{
  "txid": "09067c824d25d21187d5a4c3bb8d85dc904ff1485ce5621f10ae517e7a780e0d",
  "hash": "09067c824d25d21187d5a4c3bb8d85dc904ff1485ce5621f10ae517e7a780e0d",
  "version": 1,
  "size": 258,
  "vsize": 258,
  "weight": 1032,
  "locktime": 0,
  "vin": [
    {
      "txid": "0e315c7c9189e213403eae84cee24c9d3dc8a29ebf3b9a540edad79bc3d8248f",
      "vout": 1,
      "scriptSig": {
        "asm": "30450220218f0ec686c76ee42b51d9015ab90d03ac247e5e17fdad084e677ba6d21b53d402210091255ed15da3a5d2584bf79697d43329a0928e574f52ed0ab16a8901d4f7929f[ALL] 04e9ba2fed1aa3402d53c2960897e0c0761e98fcc013f5f3f4135f5f2c5f0fee6945ecea61e5f82604c49b499c227b3aefe9155972b6c96c2eb28403455d39c6e3",
        "hex": "4830450220218f0ec686c76ee42b51d9015ab90d03ac247e5e17fdad084e677ba6d21b53d402210091255ed15da3a5d2584bf79697d43329a0928e574f52ed0ab16a8901d4f7929f014104e9ba2fed1aa3402d53c2960897e0c0761e98fcc013f5f3f4135f5f2c5f0fee6945ecea61e5f82604c49b499c227b3aefe9155972b6c96c2eb28403455d39c6e3"
      },
      "sequence": 4294967295
    }
  ],
  "vout": [
    {
      "value": 0.03000000,
      "n": 0,
      "scriptPubKey": {
        "asm": "OP_DUP OP_HASH160 1f7bd341eaa059390d14b80373c093eb2a2191ab OP_EQUALVERIFY OP_CHECKSIG",
        "hex": "76a9141f7bd341eaa059390d14b80373c093eb2a2191ab88ac",
        "address": "13sUHUW8G23BLQEKFwVMf5cKUkiSuFK8XC",
        "type": "pubkeyhash"
      }
    },
    {
      "value": 258.16000000,
      "n": 1,
      "scriptPubKey": {
        "asm": "OP_DUP OP_HASH160 32cb3fb3addd28ad1fb2d439f0a217ee5f32e020 OP_EQUALVERIFY OP_CHECKSIG",
        "hex": "76a91432cb3fb3addd28ad1fb2d439f0a217ee5f32e02088ac",
        "address": "15daGZxN872UzDinhJESa7UriVWS11WzkJ",
        "type": "pubkeyhash"
      }
    }
  ],
  "blockhash": "0000000000007e122c6d5478efccb44f62b7516fc4f6456caf6250bc78a1b8f2",
  "hex": "01000000018f24d8c39bd7da0e549a3bbf9ea2c83d9d4ce2ce84ae3e4013e289917c5c310e010000008b4830450220218f0ec686c76ee42b51d9015ab90d03ac247e5e17fdad084e677ba6d21b53d402210091255ed15da3a5d2584bf79697d43329a0928e574f52ed0ab16a8901d4f7929f014104e9ba2fed1aa3402d53c2960897e0c0761e98fcc013f5f3f4135f5f2c5f0fee6945ecea61e5f82604c49b499c227b3aefe9155972b6c96c2eb28403455d39c6e3ffffffff02c0c62d00000000001976a9141f7bd341eaa059390d14b80373c093eb2a2191ab88ac00e6c002060000001976a91432cb3fb3addd28ad1fb2d439f0a217ee5f32e02088ac00000000"
}