{
  "txid": "1c517dfc5025c6925a3afb9aa8e2c25da4fddc67a03a1674b8551d285579ab65",
  "hash": "1c517dfc5025c6925a3afb9aa8e2c25da4fddc67a03a1674b8551d285579ab65",
  "version": 1,
  "size": 258,
  "vsize": 258,
  "weight": 1032,
  "locktime": 0,
  "vin": [
    {
      "txid": "67b0df8f1a142de76dc80b2004a29757e873817e751ed87963158865ddf8c157",
      "vout": 0,
      "scriptSig": {
        "asm": "3045022057d3e925fe7efea631d74f28676b4027dba0046d1b2a6bf7a2240eb66bd865c4022100ea8d2ed1ea2e54afec11bf801e2e6deab5554f6520e5710b86581ece5d2d4d65[ALL] 0493a1292c01b6440e7ba3805401375b85f5e884fd9e6db3e16dcff19ebd2f9b68af5f39c9d0358c3b4d3f7ecd2ab7ce347dc61514e72f991797495612456df695",
        "hex": "483045022057d3e925fe7efea631d74f28676b4027dba0046d1b2a6bf7a2240eb66bd865c4022100ea8d2ed1ea2e54afec11bf801e2e6deab5554f6520e5710b86581ece5d2d4d6501410493a1292c01b6440e7ba3805401375b85f5e884fd9e6db3e16dcff19ebd2f9b68af5f39c9d0358c3b4d3f7ecd2ab7ce347dc61514e72f991797495612456df695"
      },
      "sequence": 4294967295
    }
  ],
  "vout": [
    {
      "value": 1.36000000,
      "n": 0,
      "scriptPubKey": {
        "asm": "OP_DUP OP_HASH160 f89989c9d49217c501c44d0b72e37046d84bd887 OP_EQUALVERIFY OP_CHECKSIG",
        "hex": "76a914f89989c9d49217c501c44d0b72e37046d84bd88788ac",
        "address": "1PfUWbfKvk2ojdznKVLcnH9S8f2H2X6hQy",
        "type": "pubkeyhash"
      }
    },
    {
      "value": 0.05000000,
      "n": 1,
      "scriptPubKey": {
        "asm": "OP_DUP OP_HASH160 086e21ef52a4a3bed7bbbe38fbd5f60922234b89 OP_EQUALVERIFY OP_CHECKSIG",
        "hex": "76a914086e21ef52a4a3bed7bbbe38fbd5f60922234b8988ac",
        "address": "1maLgNudwKeWTWJ67JvATaehMN2LaHRdB",
        "type": "pubkeyhash"
      }
    }
  ],
  "blockhash": "000000000000ae5ec05f0d8644eb0f0fd5b311dbe117bb2052d3d5e1d2f1ebf7",
  "hex": "010000000157c1f8dd6588156379d81e757e8173e85797a204200bc86de72d141a8fdfb067000000008b483045022057d3e925fe7efea631d74f28676b4027dba0046d1b2a6bf7a2240eb66bd865c4022100ea8d2ed1ea2e54afec11bf801e2e6deab5554f6520e5710b86581ece5d2d4d6501410493a1292c01b6440e7ba3805401375b85f5e884fd9e6db3e16dcff19ebd2f9b68af5f39c9d0358c3b4d3f7ecd2ab7ce347dc61514e72f991797495612456df695ffffffff0200321b08000000001976a914f89989c9d49217c501c44d0b72e37046d84bd88788ac404b4c00000000001976a914086e21ef52a4a3bed7bbbe38fbd5f60922234b8988ac00000000"
}