{
  "txid": "33a641fcff7483fd08abad2513e7493451594b6ee6b0eccb1753c5706733c1ab",
  "hash": "33a641fcff7483fd08abad2513e7493451594b6ee6b0eccb1753c5706733c1ab",
  "version": 1,
  "size": 259,
  "vsize": 259,
  "weight": 1036,
  "locktime": 0,
  "vin": [
    {
      "txid": "6f00ec2468b9e19fc4b4b50039d7e379ddc41239b604812a34c2c7a5f2a94e6d",
      "vout": 0,
      "scriptSig": {
        "asm": "3046022100914024f1d3fef9141f5cbaf857ebb619bb6c16a2a29d5a68c2036425bc90f434022100b42b9d15c0b230bd6893abb6b9a3b28357ffb911d6ab25f9e0ab39cdbf68a10b[ALL] 0405eb4b508847fc22eab7881a43df06b556392a66e28f40c198a621f6bfdbb7b371a9e9d2619aad8c2a59c69672da9df73b26f98f75999c33ef431eb52af4b334",
        "hex": "493046022100914024f1d3fef9141f5cbaf857ebb619bb6c16a2a29d5a68c2036425bc90f434022100b42b9d15c0b230bd6893abb6b9a3b28357ffb911d6ab25f9e0ab39cdbf68a10b01410405eb4b508847fc22eab7881a43df06b556392a66e28f40c198a621f6bfdbb7b371a9e9d2619aad8c2a59c69672da9df73b26f98f75999c33ef431eb52af4b334"
      },
      "sequence": 4294967295
    }
  ],
  "vout": [
    {
      "value": 20.45000000,
      "n": 0,
      "scriptPubKey": {
        "asm": "OP_DUP OP_HASH160 0044db399cf441191dab60b6a560d9fcdbb0826b OP_EQUALVERIFY OP_CHECKSIG",
        "hex": "76a9140044db399cf441191dab60b6a560d9fcdbb0826b88ac",
        "address": "112RVDvun9kzCmNBVMbCUsJTD6wcvdF5zr",
        "type": "pubkeyhash"
      }
    },
    {
      "value": 0.53000000,
      "n": 1,
      "scriptPubKey": {
        "asm": "OP_DUP OP_HASH160 6bae1d3cdafa4b0fd2008af6bc7a363c2c93635d OP_EQUALVERIFY OP_CHECKSIG",
        "hex": "76a9146bae1d3cdafa4b0fd2008af6bc7a363c2c93635d88ac",
        "address": "1ApMtCD4V1zLruoSsecJpRNUnNKYe8c32k",
        "type": "pubkeyhash"
      }
    }
  ],
  "blockhash": "0000000000005de3559bba3f403272916e53be98e8982201a5573b0ebc25737d",
  "hex": "01000000016d4ea9f2a5c7c2342a8104b63912c4dd79e3d73900b5b4c49fe1b96824ec006f000000008c493046022100914024f1d3fef9141f5cbaf857ebb619bb6c16a2a29d5a68c2036425bc90f434022100b42b9d15c0b230bd6893abb6b9a3b28357ffb911d6ab25f9e0ab39cdbf68a10b01410405eb4b508847fc22eab7881a43df06b556392a66e28f40c198a621f6bfdbb7b371a9e9d2619aad8c2a59c69672da9df73b26f98f75999c33ef431eb52af4b334ffffffff024039e479000000001976a9140044db399cf441191dab60b6a560d9fcdbb0826b88ac40b72803000000001976a9146bae1d3cdafa4b0fd2008af6bc7a363c2c93635d88ac00000000"
}