{
  "txid": "72ac570a7698fa64eaafd4f088e2cb35dac1ea86a3c9a66b0205e62456ebeba1",
  "hash": "72ac570a7698fa64eaafd4f088e2cb35dac1ea86a3c9a66b0205e62456ebeba1",
  "version": 1,
  "size": 257,
  "vsize": 257,
  "weight": 1028,
  "locktime": 0,
  "vin": [
    {
      "txid": "b1e87eb6b64d5c65f2af3f893de4402d09686fead8707e3f52b09ded888af680",
      "vout": 0,
      "scriptSig": {
        "asm": "304402201f9c305bb7304c16d6934eb8af3ce839dcebc345859b10a3b7d175ca93e784ac022006a56be52a4e3e4cd021d29b7cb91388eee133155b1af0d86d9c66ef0a679b65[ALL] 040661e1e35e48bf24a06fc7836526e95e02b21fef9913a1eb22794a248e4ae3deb70963186b1bdf7d19298735cbc976837400e1d34b84640a9a8fd50b32d6f3e6",
        "hex": "47304402201f9c305bb7304c16d6934eb8af3ce839dcebc345859b10a3b7d175ca93e784ac022006a56be52a4e3e4cd021d29b7cb91388eee133155b1af0d86d9c66ef0a679b650141040661e1e35e48bf24a06fc7836526e95e02b21fef9913a1eb22794a248e4ae3deb70963186b1bdf7d19298735cbc976837400e1d34b84640a9a8fd50b32d6f3e6"
      },
      "sequence": 4294967295
    }
  ],
  "vout": [
    {
      "value": 0.03000000,
      "n": 0,
      "scriptPubKey": {
        "asm": "OP_DUP OP_HASH160 1f7bd341eaa059390d14b80373c093eb2a2191ab OP_EQUALVERIFY OP_CHECKSIG",
        "hex": "76a9141f7bd341eaa059390d14b80373c093eb2a2191ab88ac",
        "address": "13sUHUW8G23BLQEKFwVMf5cKUkiSuFK8XC",
        "type": "pubkeyhash"
      }
    },
    {
      "value": 22.61000000,
      "n": 1,
      "scriptPubKey": {
        "asm": "OP_DUP OP_HASH160 571d6722f36f40ed5dd2480226d531f19d9ff21b OP_EQUALVERIFY OP_CHECKSIG",
        "hex": "76a914571d6722f36f40ed5dd2480226d531f19d9ff21b88ac",
        "address": "18wd1dwjWHx4MPv8jz9bdBZGw2utc9K18H",
        "type": "pubkeyhash"
      }
    }
  ],
  "blockhash": "000000000000589e0fd54561bf4d0a39d213c5c6a8bea4f4272044821e9a6951",
  "hex": "010000000180f68a88ed9db0523f7e70d8ea6f68092d40e43d893faff2655c4db6b67ee8b1000000008a47304402201f9c305bb7304c16d6934eb8af3ce839dcebc345859b10a3b7d175ca93e784ac022006a56be52a4e3e4cd021d29b7cb91388eee133155b1af0d86d9c66ef0a679b650141040661e1e35e48bf24a06fc7836526e95e02b21fef9913a1eb22794a248e4ae3deb70963186b1bdf7d19298735cbc976837400e1d34b84640a9a8fd50b32d6f3e6ffffffff02c0c62d00000000001976a9141f7bd341eaa059390d14b80373c093eb2a2191ab88ac401fc486000000001976a914571d6722f36f40ed5dd2480226d531f19d9ff21b88ac00000000"
}