{
  "txid": "80224622dadb1a9e87940f88180f15eddfe7b8c4ac6e3643ea23ffe0f64087b2",
  "hash": "80224622dadb1a9e87940f88180f15eddfe7b8c4ac6e3643ea23ffe0f64087b2",
  "version": 1,
  "size": 257,
  "vsize": 257,
  "weight": 1028,
  "locktime": 0,
  "vin": [
    {
      "txid": "64cb6cf5585aca4dce2bedf1a70d83502bb8c85ab0e49fc3a50e44e2907d8ba8",
      "vout": 0,
      "scriptSig": {
        "asm": "304402201438add8e4702bcac9095b5d4601cf3e678eb2b1f5e58d597884af83a12f84090220220a2cebdcea83198e33c90412a889a1d0cf0e7fe9d7060929ea3a574b3ca4b4[ALL] 04a313b7a1eef04fe32ffd482bab39ad76ace945d01ce1a26646fe2a122c910294cc4bb9f3d0c471526b9e869fb361dfa877ddeaa553068c87438b7f93a9919993",
        "hex": "47304402201438add8e4702bcac9095b5d4601cf3e678eb2b1f5e58d597884af83a12f84090220220a2cebdcea83198e33c90412a889a1d0cf0e7fe9d7060929ea3a574b3ca4b4014104a313b7a1eef04fe32ffd482bab39ad76ace945d01ce1a26646fe2a122c910294cc4bb9f3d0c471526b9e869fb361dfa877ddeaa553068c87438b7f93a9919993"
      },
      "sequence": 4294967295
    }
  ],
  "vout": [
    {
      "value": 0.11000000,
      "n": 0,
      "scriptPubKey": {
        "asm": "OP_DUP OP_HASH160 c49292b8db485de9cdce09a714060f7813f0662f OP_EQUALVERIFY OP_CHECKSIG",
        "hex": "76a914c49292b8db485de9cdce09a714060f7813f0662f88ac",
        "address": "1JvP2gMo2tjBAHvVgjkTf8vtoG5ZJeugUn",
        "type": "pubkeyhash"
      }
    },
    {
      "value": 0.10000000,
      "n": 1,
      "scriptPubKey": {
        "asm": "OP_DUP OP_HASH160 480c0241b592d36fbcfdd6758763db2bbf6b7c76 OP_EQUALVERIFY OP_CHECKSIG",
        "hex": "76a914480c0241b592d36fbcfdd6758763db2bbf6b7c7688ac",
        "address": "17Zx3CY5eSJVjE2SsnLt4q4hretYsug5ek",
        "type": "pubkeyhash"
      }
    }
  ],
  "blockhash": "000000000000028c2206e2565a9c14784d9f8686ed8b1fddf073ecbe35a463d7",
  "hex": "0100000001a88b7d90e2440ea5c39fe4b05ac8b82b50830da7f1ed2bce4dca5a58f56ccb64000000008a47304402201438add8e4702bcac9095b5d4601cf3e678eb2b1f5e58d597884af83a12f84090220220a2cebdcea83198e33c90412a889a1d0cf0e7fe9d7060929ea3a574b3ca4b4014104a313b7a1eef04fe32ffd482bab39ad76ace945d01ce1a26646fe2a122c910294cc4bb9f3d0c471526b9e869fb361dfa877ddeaa553068c87438b7f93a9919993ffffffff02c0d8a700000000001976a914c49292b8db485de9cdce09a714060f7813f0662f88ac80969800000000001976a914480c0241b592d36fbcfdd6758763db2bbf6b7c7688ac00000000"
}