{
  "txid": "85f0a13e72d794af09e136d7095ee1321e931511cc862de18b997d752e422472",
  "hash": "85f0a13e72d794af09e136d7095ee1321e931511cc862de18b997d752e422472",
  "version": 1,
  "size": 440,
  "vsize": 440,
  "weight": 1760,
  "locktime": 0,
  "vin": [
    {
      "txid": "824fee6d774156532185832b775fe6f5fbfc25d8e47452058026fb9af94bb7b3",
      "vout": 0,
      "scriptSig": {
        "asm": "30460221009aac7eb6a32274df2e69892f4ccd0ded495d423e09127efebd9247bf2d845c43022100c6a5f02bb6e215816f8d52496f61af9abbb0bdaa6012dea620cfbf336e4152d1[ALL] 044e87ee31d1e0b234e59c144ceee0cc635c928be3cd9929940b2f537a342634afda0068d52d0329b0f325418b06164a2428423ccbf0678e20f1ac1a7dfcbab1cd",
        "hex": "4930460221009aac7eb6a32274df2e69892f4ccd0ded495d423e09127efebd9247bf2d845c43022100c6a5f02bb6e215816f8d52496f61af9abbb0bdaa6012dea620cfbf336e4152d10141044e87ee31d1e0b234e59c144ceee0cc635c928be3cd9929940b2f537a342634afda0068d52d0329b0f325418b06164a2428423ccbf0678e20f1ac1a7dfcbab1cd"
      },
      "sequence": 4294967295
    },
    {
      "txid": "26f6357f0244e2ee68fff0eb8f730fd983a369e92dcfbd11e36d1b850bc441ce",
      "vout": 0,
      "scriptSig": {
        "asm": "3046022100928c684e2930130239bd96419c92ce3eb772ab57457b874dfbb5b1e924d0c3d6022100ef0343e30f469573502827a6e0a6f243ad084fea5147e331fa2d6aafbda30ea4[ALL] 045821d52e59ef1e5dfcd7d3a38e3697ccc8f3ea9e0ccca856b9193b69eaf165e7bf31ca1f9c240fc6f1d9b27d574bb1797f0243b9d2e73e5993c7f7061cfc44f3",
        "hex": "493046022100928c684e2930130239bd96419c92ce3eb772ab57457b874dfbb5b1e924d0c3d6022100ef0343e30f469573502827a6e0a6f243ad084fea5147e331fa2d6aafbda30ea40141045821d52e59ef1e5dfcd7d3a38e3697ccc8f3ea9e0ccca856b9193b69eaf165e7bf31ca1f9c240fc6f1d9b27d574bb1797f0243b9d2e73e5993c7f7061cfc44f3"
      },
      "sequence": 4294967295
    }
  ],
  "vout": [
    {
      "value": 4.14000000,
      "n": 0,
      "scriptPubKey": {
        "asm": "OP_DUP OP_HASH160 ed71cdc89e37d1d511535ff887cac2b838ad8e94 OP_EQUALVERIFY OP_CHECKSIG",
        "hex": "76a914ed71cdc89e37d1d511535ff887cac2b838ad8e9488ac",
        "address": "1NeVUhDcfE77vJysf6LdShyKK7mhv1zb8Q",
        "type": "pubkeyhash"
      }
    },
    {
      "value": 20.00000000,
      "n": 1,
      "scriptPubKey": {
        "asm": "OP_DUP OP_HASH160 ac65a4f6dccf4ed1c4ba85138ec3beed1c90a395 OP_EQUALVERIFY OP_CHECKSIG",
        "hex": "76a914ac65a4f6dccf4ed1c4ba85138ec3beed1c90a39588ac",
        "address": "1GiYzNX1BPL4hQrQtRRxCaXQmyjUN2Yo7B",
        "type": "pubkeyhash"
      }
    }
  ],
  "blockhash": "0000000000007065264dbb69393f452299a01d1bfc2d982e637f443dabb29be9",
  "hex": "0100000002b3b74bf99afb2680055274e4d825fcfbf5e65f772b838521535641776dee4f82000000008c4930460221009aac7eb6a32274df2e69892f4ccd0ded495d423e09127efebd9247bf2d845c43022100c6a5f02bb6e215816f8d52496f61af9abbb0bdaa6012dea620cfbf336e4152d10141044e87ee31d1e0b234e59c144ceee0cc635c928be3cd9929940b2f537a342634afda0068d52d0329b0f325418b06164a2428423ccbf0678e20f1ac1a7dfcbab1cdffffffffce41c40b851b6de311bdcf2de969a383d90f738febf0ff68eee244027f35f626000000008c493046022100928c684e2930130239bd96419c92ce3eb772ab57457b874dfbb5b1e924d0c3d6022100ef0343e30f469573502827a6e0a6f243ad084fea5147e331fa2d6aafbda30ea40141045821d52e59ef1e5dfcd7d3a38e3697ccc8f3ea9e0ccca856b9193b69eaf165e7bf31ca1f9c240fc6f1d9b27d574bb1797f0243b9d2e73e5993c7f7061cfc44f3ffffffff028023ad18000000001976a914ed71cdc89e37d1d511535ff887cac2b838ad8e9488ac00943577000000001976a914ac65a4f6dccf4ed1c4ba85138ec3beed1c90a39588ac00000000"
}