{
  "txid": "b1e87eb6b64d5c65f2af3f893de4402d09686fead8707e3f52b09ded888af680",
  "hash": "b1e87eb6b64d5c65f2af3f893de4402d09686fead8707e3f52b09ded888af680",
  "version": 1,
  "size": 258,
  "vsize": 258,
  "weight": 1032,
  "locktime": 0,
  "vin": [
    {
      "txid": "4a75524ca94b400880526e8bfa88c03c8a19e42fbb35980381877f5c89831df8",
      "vout": 1,
      "scriptSig": {
        "asm": "304502205aa7461defa6fa064a1d311b2f2041d3245251080ce8287ca779be905729a228022100cb9f5597371b6d6f24ba22588c9ed498adc2d4d82c5a9c9ee0393613d2ef2a2a[ALL] 0414e7fa39a66ca73afc454efb3cc93cc570e00e154f68b06dabdf1958fd3a105e25e8284458356712fea25ea5271daf273f3247ddc05fff94b0bcf8ee46a04a56",
        "hex": "48304502205aa7461defa6fa064a1d311b2f2041d3245251080ce8287ca779be905729a228022100cb9f5597371b6d6f24ba22588c9ed498adc2d4d82c5a9c9ee0393613d2ef2a2a01410414e7fa39a66ca73afc454efb3cc93cc570e00e154f68b06dabdf1958fd3a105e25e8284458356712fea25ea5271daf273f3247ddc05fff94b0bcf8ee46a04a56"
      },
      "sequence": 4294967295
    }
  ],
  "vout": [
    {
      "value": 22.64000000,
      "n": 0,
      "scriptPubKey": {
        "asm": "OP_DUP OP_HASH160 b30e81eb51962056fb5cc9d65b1e63d0ed593e70 OP_EQUALVERIFY OP_CHECKSIG",
        "hex": "76a914b30e81eb51962056fb5cc9d65b1e63d0ed593e7088ac",
        "address": "1HKmLLVzG2Ttf6G5ysvBuD5w4weNgx1vUx",
        "type": "pubkeyhash"
      }
    },
    {
      "value": 0.03000000,
      "n": 1,
      "scriptPubKey": {
        "asm": "OP_DUP OP_HASH160 1f7bd341eaa059390d14b80373c093eb2a2191ab OP_EQUALVERIFY OP_CHECKSIG",
        "hex": "76a9141f7bd341eaa059390d14b80373c093eb2a2191ab88ac",
        "address": "13sUHUW8G23BLQEKFwVMf5cKUkiSuFK8XC",
        "type": "pubkeyhash"
      }
    }
  ],
  "blockhash": "0000000000007e122c6d5478efccb44f62b7516fc4f6456caf6250bc78a1b8f2",
  "hex": "0100000001f81d83895c7f8781039835bb2fe4198a3cc088fa8b6e528008404ba94c52754a010000008b48304502205aa7461defa6fa064a1d311b2f2041d3245251080ce8287ca779be905729a228022100cb9f5597371b6d6f24ba22588c9ed498adc2d4d82c5a9c9ee0393613d2ef2a2a01410414e7fa39a66ca73afc454efb3cc93cc570e00e154f68b06dabdf1958fd3a105e25e8284458356712fea25ea5271daf273f3247ddc05fff94b0bcf8ee46a04a56ffffffff0200e6f186000000001976a914b30e81eb51962056fb5cc9d65b1e63d0ed593e7088acc0c62d00000000001976a9141f7bd341eaa059390d14b80373c093eb2a2191ab88ac00000000"
}