{
  "txid": "bdf69a5436d4d5ccd7841b7b74e222c6b5a528eb314c156b59cc32bb60fc9de3",
  "hash": "bdf69a5436d4d5ccd7841b7b74e222c6b5a528eb314c156b59cc32bb60fc9de3",
  "version": 1,
  "size": 258,
  "vsize": 258,
  "weight": 1032,
  "locktime": 0,
  "vin": [
    {
      "txid": "72ac570a7698fa64eaafd4f088e2cb35dac1ea86a3c9a66b0205e62456ebeba1",
      "vout": 1,
      "scriptSig": {
        "asm": "3045022008ae81021b34cbde0356bbfedefcf55e6ba104c6f32952c603904544c1dcd82f022100c4d7a33b959522dd3b0ab7de5f7c00cdabb29ff1089c26632fb409444ce32079[ALL] 04236936585b061831b7778c5b82de5bfb12cbf5de235ba6d21cff272dddfe7b31511bdfa97037e7e2e264a10a3b1f3f899c4590eaf8750d7e3f059d96ae20fa5d",
        "hex": "483045022008ae81021b34cbde0356bbfedefcf55e6ba104c6f32952c603904544c1dcd82f022100c4d7a33b959522dd3b0ab7de5f7c00cdabb29ff1089c26632fb409444ce32079014104236936585b061831b7778c5b82de5bfb12cbf5de235ba6d21cff272dddfe7b31511bdfa97037e7e2e264a10a3b1f3f899c4590eaf8750d7e3f059d96ae20fa5d"
      },
      "sequence": 4294967295
    }
  ],
  "vout": [
    {
      "value": 0.03000000,
      "n": 0,
      "scriptPubKey": {
        "asm": "OP_DUP OP_HASH160 1f7bd341eaa059390d14b80373c093eb2a2191ab OP_EQUALVERIFY OP_CHECKSIG",
        "hex": "76a9141f7bd341eaa059390d14b80373c093eb2a2191ab88ac",
        "address": "13sUHUW8G23BLQEKFwVMf5cKUkiSuFK8XC",
        "type": "pubkeyhash"
      }
    },
    {
      "value": 22.58000000,
      "n": 1,
      "scriptPubKey": {
        "asm": "OP_DUP OP_HASH160 a14de6638cd78c1271339247e76a0e10a59d88b5 OP_EQUALVERIFY OP_CHECKSIG",
        "hex": "76a914a14de6638cd78c1271339247e76a0e10a59d88b588ac",
        "address": "1Fhu7UBFh6RetTMtvMmfyedY14LJufevPp",
        "type": "pubkeyhash"
      }
    }
  ],
  "blockhash": "000000000000589e0fd54561bf4d0a39d213c5c6a8bea4f4272044821e9a6951",
  "hex": "0100000001a1ebeb5624e605026ba6c9a386eac1da35cbe288f0d4afea64fa98760a57ac72010000008b483045022008ae81021b34cbde0356bbfedefcf55e6ba104c6f32952c603904544c1dcd82f022100c4d7a33b959522dd3b0ab7de5f7c00cdabb29ff1089c26632fb409444ce32079014104236936585b061831b7778c5b82de5bfb12cbf5de235ba6d21cff272dddfe7b31511bdfa97037e7e2e264a10a3b1f3f899c4590eaf8750d7e3f059d96ae20fa5dffffffff02c0c62d00000000001976a9141f7bd341eaa059390d14b80373c093eb2a2191ab88ac80589686000000001976a914a14de6638cd78c1271339247e76a0e10a59d88b588ac00000000"
}