{
  "txid": "c1be20a2f96a1d3b28e09a65f954a3645cf7237e8312476a9f5073a5397d2846",
  "hash": "c1be20a2f96a1d3b28e09a65f954a3645cf7237e8312476a9f5073a5397d2846",
  "version": 1,
  "size": 258,
  "vsize": 258,
  "weight": 1032,
  "locktime": 0,
  "vin": [
    {
      "txid": "7b947ea37bc8cbab71ba67040f8419700a8edae82c5e20147e86110879548de1",
      "vout": 0,
      "scriptSig": {
        "asm": "3045022100df6cefee157f53d1a1a0b6a3c14d39c37e737f8575416e122364362dd5ed1e5b02204489a4fdb04c13fdce7f3b04290c9efcffa309811e3c449be5b49def497be136[ALL] 0414782fcee5a5383467bf467001d7aa1fd77cd2dbb2bdf65ca0b7a11aa6db26a83b432b8fc94b5699490ffb25a13bf3e3494811cb72bd217ef46955cac6591fa9",
        "hex": "483045022100df6cefee157f53d1a1a0b6a3c14d39c37e737f8575416e122364362dd5ed1e5b02204489a4fdb04c13fdce7f3b04290c9efcffa309811e3c449be5b49def497be13601410414782fcee5a5383467bf467001d7aa1fd77cd2dbb2bdf65ca0b7a11aa6db26a83b432b8fc94b5699490ffb25a13bf3e3494811cb72bd217ef46955cac6591fa9"
      },
      "sequence": 4294967295
    }
  ],
  "vout": [
    {
      "value": 15.36000000,
      "n": 0,
      "scriptPubKey": {
        "asm": "OP_DUP OP_HASH160 a9c9022a030705b9390a5e96fe29a135cb57ff55 OP_EQUALVERIFY OP_CHECKSIG",
        "hex": "76a914a9c9022a030705b9390a5e96fe29a135cb57ff5588ac",
        "address": "1GUjzjRu8C8WC9wNn2pP6Mygs1QP2nbzeV",
        "type": "pubkeyhash"
      }
    },
    {
      "value": 34.64000000,
      "n": 1,
      "scriptPubKey": {
        "asm": "OP_DUP OP_HASH160 41ca6d290fa1f8d83d3df61157168a8cd6395280 OP_EQUALVERIFY OP_CHECKSIG",
        "hex": "76a91441ca6d290fa1f8d83d3df61157168a8cd639528088ac",
        "address": "16zsRJY9oMPcUZwqtcJnqhXJeuBZv2bp3j",
        "type": "pubkeyhash"
      }
    }
  ],
  "blockhash": "0000000000074e8b770007b55a55a9e2f68226e9326f725ca69093be9c56ed5e",
  "hex": "0100000001e18d54790811867e14205e2ce8da8e0a7019840f0467ba71abcbc87ba37e947b000000008b483045022100df6cefee157f53d1a1a0b6a3c14d39c37e737f8575416e122364362dd5ed1e5b02204489a4fdb04c13fdce7f3b04290c9efcffa309811e3c449be5b49def497be13601410414782fcee5a5383467bf467001d7aa1fd77cd2dbb2bdf65ca0b7a11aa6db26a83b432b8fc94b5699490ffb25a13bf3e3494811cb72bd217ef46955cac6591fa9ffffffff0200808d5b000000001976a914a9c9022a030705b9390a5e96fe29a135cb57ff5588ac007278ce000000001976a91441ca6d290fa1f8d83d3df61157168a8cd639528088ac00000000"
}