{
  "txid": "d624decaf512e2d71dcb10638d275882bd112d3f6528b0bbdef241e584eade0e",
  "hash": "d624decaf512e2d71dcb10638d275882bd112d3f6528b0bbdef241e584eade0e",
  "version": 1,
  "size": 259,
  "vsize": 259,
  "weight": 1036,
  "locktime": 0,
  "vin": [
    {
      "txid": "017e40db3acb3dceddef45345209741c4980920c2fdc46d99633bee63770db16",
      "vout": 0,
      "scriptSig": {
        "asm": "304602210097227894a732a0541bc5222c274e194fd0fae4bcb9a5d88e7a77062ccabed9f1022100c4edfe20707e189fa1e4f22315585d5f16b567bbaf80d106644a4ee0a889e7c0[ALL] 04924ebdadfd94ec3fb4a05554b4a89c49ba36786fa12f5bbd7f871323ffdd0858e12091b5e773f7fb5650394b0024d1bed2c1fb7ec6c66a551ed191ab786dfaa6",
        "hex": "49304602210097227894a732a0541bc5222c274e194fd0fae4bcb9a5d88e7a77062ccabed9f1022100c4edfe20707e189fa1e4f22315585d5f16b567bbaf80d106644a4ee0a889e7c0014104924ebdadfd94ec3fb4a05554b4a89c49ba36786fa12f5bbd7f871323ffdd0858e12091b5e773f7fb5650394b0024d1bed2c1fb7ec6c66a551ed191ab786dfaa6"
      },
      "sequence": 4294967295
    }
  ],
  "vout": [
    {
      "value": 259.60000000,
      "n": 0,
      "scriptPubKey": {
        "asm": "OP_DUP OP_HASH160 630f9c7adfbbced2251b688c6a16db86eecdd440 OP_EQUALVERIFY OP_CHECKSIG",
        "hex": "76a914630f9c7adfbbced2251b688c6a16db86eecdd44088ac",
        "address": "1A2nbgS5zZRUdN6mj9p5ykN7qgMzP8CEUq",
        "type": "pubkeyhash"
      }
    },
    {
      "value": 0.03000000,
      "n": 1,
      "scriptPubKey": {
        "asm": "OP_DUP OP_HASH160 1f7bd341eaa059390d14b80373c093eb2a2191ab OP_EQUALVERIFY OP_CHECKSIG",
        "hex": "76a9141f7bd341eaa059390d14b80373c093eb2a2191ab88ac",
        "address": "13sUHUW8G23BLQEKFwVMf5cKUkiSuFK8XC",
        "type": "pubkeyhash"
      }
    }
  ],
  "blockhash": "0000000000007e122c6d5478efccb44f62b7516fc4f6456caf6250bc78a1b8f2",
  "hex": "010000000116db7037e6be3396d946dc2f0c9280491c7409523445efddce3dcb3adb407e01000000008c49304602210097227894a732a0541bc5222c274e194fd0fae4bcb9a5d88e7a77062ccabed9f1022100c4edfe20707e189fa1e4f22315585d5f16b567bbaf80d106644a4ee0a889e7c0014104924ebdadfd94ec3fb4a05554b4a89c49ba36786fa12f5bbd7f871323ffdd0858e12091b5e773f7fb5650394b0024d1bed2c1fb7ec6c66a551ed191ab786dfaa6ffffffff02002a560b060000001976a914630f9c7adfbbced2251b688c6a16db86eecdd44088acc0c62d00000000001976a9141f7bd341eaa059390d14b80373c093eb2a2191ab88ac00000000"
}