{
  "txid": "0e315c7c9189e213403eae84cee24c9d3dc8a29ebf3b9a540edad79bc3d8248f",
  "hash": "0e315c7c9189e213403eae84cee24c9d3dc8a29ebf3b9a540edad79bc3d8248f",
  "version": 1,
  "size": 259,
  "vsize": 259,
  "weight": 1036,
  "locktime": 0,
  "vin": [
    {
      "txid": "e4192b3d45885bed8e0a1b7f35d1ee8ff38702ba6314675987a3f78d6fee0de6",
      "vout": 1,
      "scriptSig": {
        "asm": "30460221008a373f273de83af7ba6f936eb568a362eb6239b7aca9f36fa596761ae96a2983022100e88788d014c078362aac685475810ca2ec191ceacbe85bbfe9410c988ab40bf7[ALL] 048d8373ac486e5bae7479bfc1a5106de2f3ab2d0f85a0197790972172be9dd21af092e43b0c12e7a65c349d190f07ba883a1c8d3faa96aec183be4f3b6eebe87a",
        "hex": "4930460221008a373f273de83af7ba6f936eb568a362eb6239b7aca9f36fa596761ae96a2983022100e88788d014c078362aac685475810ca2ec191ceacbe85bbfe9410c988ab40bf70141048d8373ac486e5bae7479bfc1a5106de2f3ab2d0f85a0197790972172be9dd21af092e43b0c12e7a65c349d190f07ba883a1c8d3faa96aec183be4f3b6eebe87a"
      },
      "sequence": 4294967295
    }
  ],
  "vout": [
    {
      "value": 0.03000000,
      "n": 0,
      "scriptPubKey": {
        "asm": "OP_DUP OP_HASH160 1f7bd341eaa059390d14b80373c093eb2a2191ab OP_EQUALVERIFY OP_CHECKSIG",
        "hex": "76a9141f7bd341eaa059390d14b80373c093eb2a2191ab88ac",
        "address": "13sUHUW8G23BLQEKFwVMf5cKUkiSuFK8XC",
        "type": "pubkeyhash"
      }
    },
    {
      "value": 258.19000000,
      "n": 1,
      "scriptPubKey": {
        "asm": "OP_DUP OP_HASH160 85411f499026e75ed20053dde2fe1d2f98212367 OP_EQUALVERIFY OP_CHECKSIG",
        "hex": "76a91485411f499026e75ed20053dde2fe1d2f9821236788ac",
        "address": "1D9atHVZwE6BFfhC7SYM6BFKdJRP7RRD33",
        "type": "pubkeyhash"
      }
    }
  ],
  "blockhash": "00000000000044f0f93afa970a7b95c91899a2b53040d449fdde7ee88856ce7d",
  "hex": "0100000001e60dee6f8df7a38759671463ba0287f38feed1357f1b0a8eed5b88453d2b19e4010000008c4930460221008a373f273de83af7ba6f936eb568a362eb6239b7aca9f36fa596761ae96a2983022100e88788d014c078362aac685475810ca2ec191ceacbe85bbfe9410c988ab40bf70141048d8373ac486e5bae7479bfc1a5106de2f3ab2d0f85a0197790972172be9dd21af092e43b0c12e7a65c349d190f07ba883a1c8d3faa96aec183be4f3b6eebe87affffffff02c0c62d00000000001976a9141f7bd341eaa059390d14b80373c093eb2a2191ab88acc0acee02060000001976a91485411f499026e75ed20053dde2fe1d2f9821236788ac00000000"
}