{
  "txid": "017e40db3acb3dceddef45345209741c4980920c2fdc46d99633bee63770db16",
  "hash": "017e40db3acb3dceddef45345209741c4980920c2fdc46d99633bee63770db16",
  "version": 1,
  "size": 258,
  "vsize": 258,
  "weight": 1032,
  "locktime": 0,
  "vin": [
    {
      "txid": "f4992f88e3a97ec9b6953ba4b4e3d8a14940dc7a6537ac322f05db46c42b0f66",
      "vout": 1,
      "scriptSig": {
        "asm": "3045022100f11abf5aa4a121a399059d75d579dfd04a5b2a0b2424cde8fda40ea0d1dc1f550220789afcfd1a10549b4503dd8e884eec020c941889019f2fb1189e403f2311af4b[ALL] 04e770b67fe1e598d5882f1922ee6f5e05cff45627c2d91fbc012ca40f3acca99ce0dd27a97504f81555a295df2ee26db35558f93656b46c5a9315a39ea614575f",
        "hex": "483045022100f11abf5aa4a121a399059d75d579dfd04a5b2a0b2424cde8fda40ea0d1dc1f550220789afcfd1a10549b4503dd8e884eec020c941889019f2fb1189e403f2311af4b014104e770b67fe1e598d5882f1922ee6f5e05cff45627c2d91fbc012ca40f3acca99ce0dd27a97504f81555a295df2ee26db35558f93656b46c5a9315a39ea614575f"
      },
      "sequence": 4294967295
    }
  ],
  "vout": [
    {
      "value": 259.63000000,
      "n": 0,
      "scriptPubKey": {
        "asm": "OP_DUP OP_HASH160 6771de3d93aee3dba2aa808128a25a11babbdaf4 OP_EQUALVERIFY OP_CHECKSIG",
        "hex": "76a9146771de3d93aee3dba2aa808128a25a11babbdaf488ac",
        "address": "1ARy1TNdLuVyggUQJBRqBuLAZV64GyqXb7",
        "type": "pubkeyhash"
      }
    },
    {
      "value": 0.03000000,
      "n": 1,
      "scriptPubKey": {
        "asm": "OP_DUP OP_HASH160 1f7bd341eaa059390d14b80373c093eb2a2191ab OP_EQUALVERIFY OP_CHECKSIG",
        "hex": "76a9141f7bd341eaa059390d14b80373c093eb2a2191ab88ac",
        "address": "13sUHUW8G23BLQEKFwVMf5cKUkiSuFK8XC",
        "type": "pubkeyhash"
      }
    }
  ],
  "blockhash": "00000000000044f0f93afa970a7b95c91899a2b53040d449fdde7ee88856ce7d",
  "hex": "0100000001660f2bc446db052f32ac37657adc4049a1d8e3b4a43b95b6c97ea9e3882f99f4010000008b483045022100f11abf5aa4a121a399059d75d579dfd04a5b2a0b2424cde8fda40ea0d1dc1f550220789afcfd1a10549b4503dd8e884eec020c941889019f2fb1189e403f2311af4b014104e770b67fe1e598d5882f1922ee6f5e05cff45627c2d91fbc012ca40f3acca99ce0dd27a97504f81555a295df2ee26db35558f93656b46c5a9315a39ea614575fffffffff02c0f0830b060000001976a9146771de3d93aee3dba2aa808128a25a11babbdaf488acc0c62d00000000001976a9141f7bd341eaa059390d14b80373c093eb2a2191ab88ac00000000"
}