{
  "txid": "4a75524ca94b400880526e8bfa88c03c8a19e42fbb35980381877f5c89831df8",
  "hash": "4a75524ca94b400880526e8bfa88c03c8a19e42fbb35980381877f5c89831df8",
  "version": 1,
  "size": 257,
  "vsize": 257,
  "weight": 1028,
  "locktime": 0,
  "vin": [
    {
      "txid": "c51ca2ba351c8af82f5ac16aff9c8ac927e3d959e7446e590e23825eea248dce",
      "vout": 1,
      "scriptSig": {
        "asm": "30440220763cd0e7504e1c070b21977d89b80f94e1b470106908f53719b5e58c876f8537022026a0138dc6ff9d073fcdb5db9f1f26eea50de2bbb50ef215605b5bc9364fc496[ALL] 04682ad7ec7a38d299212b9cb2427ece63d3056abd53ff7cdbc9a27f2b4b8bf34fb232b2cbdbd4c087327a493e632e47a740a0865fbfc641afaf317571b0f03658",
        "hex": "4730440220763cd0e7504e1c070b21977d89b80f94e1b470106908f53719b5e58c876f8537022026a0138dc6ff9d073fcdb5db9f1f26eea50de2bbb50ef215605b5bc9364fc496014104682ad7ec7a38d299212b9cb2427ece63d3056abd53ff7cdbc9a27f2b4b8bf34fb232b2cbdbd4c087327a493e632e47a740a0865fbfc641afaf317571b0f03658"
      },
      "sequence": 4294967295
    }
  ],
  "vout": [
    {
      "value": 0.03000000,
      "n": 0,
      "scriptPubKey": {
        "asm": "OP_DUP OP_HASH160 1f7bd341eaa059390d14b80373c093eb2a2191ab OP_EQUALVERIFY OP_CHECKSIG",
        "hex": "76a9141f7bd341eaa059390d14b80373c093eb2a2191ab88ac",
        "address": "13sUHUW8G23BLQEKFwVMf5cKUkiSuFK8XC",
        "type": "pubkeyhash"
      }
    },
    {
      "value": 22.67000000,
      "n": 1,
      "scriptPubKey": {
        "asm": "OP_DUP OP_HASH160 d4eca167040beee60b7c4e4eb01304e29949ad65 OP_EQUALVERIFY OP_CHECKSIG",
        "hex": "76a914d4eca167040beee60b7c4e4eb01304e29949ad6588ac",
        "address": "1LQqj3RybwuwRyKkDQZcwRKxgWSwcVx495",
        "type": "pubkeyhash"
      }
    }
  ],
  "blockhash": "0000000000007e122c6d5478efccb44f62b7516fc4f6456caf6250bc78a1b8f2",
  "hex": "0100000001ce8d24ea5e82230e596e44e759d9e327c98a9cff6ac15a2ff88a1c35baa21cc5010000008a4730440220763cd0e7504e1c070b21977d89b80f94e1b470106908f53719b5e58c876f8537022026a0138dc6ff9d073fcdb5db9f1f26eea50de2bbb50ef215605b5bc9364fc496014104682ad7ec7a38d299212b9cb2427ece63d3056abd53ff7cdbc9a27f2b4b8bf34fb232b2cbdbd4c087327a493e632e47a740a0865fbfc641afaf317571b0f03658ffffffff02c0c62d00000000001976a9141f7bd341eaa059390d14b80373c093eb2a2191ab88acc0ac1f87000000001976a914d4eca167040beee60b7c4e4eb01304e29949ad6588ac00000000"
}