{
  "txid": "744b5b334c32d62394721f0ffff3a71a25e895f6dcee3a8975dcdcf4d3d48181",
  "hash": "744b5b334c32d62394721f0ffff3a71a25e895f6dcee3a8975dcdcf4d3d48181",
  "version": 1,
  "size": 258,
  "vsize": 258,
  "weight": 1032,
  "locktime": 0,
  "vin": [
    {
      "txid": "f1905aa61e6b2c74f66789749e8fc148a84486b5b99c4c6c2261c4f2956de8ae",
      "vout": 1,
      "scriptSig": {
        "asm": "3045022100a6a7706260390f592869fe788737ee475a3b5b635668002eb2d77c493302198402201c80d9adc89c74eb8f9a5eb357a36767d844fc03718f07232f5f8d9b8b270e2d[ALL] 048abb8e17559b37c06cf693d69c920a95aa8aefd7172c1d0c911aabce6b86ff759b4e7f86aec51f3673994eb8eef2e0a3e7f20da779752dab41e360066d718864",
        "hex": "483045022100a6a7706260390f592869fe788737ee475a3b5b635668002eb2d77c493302198402201c80d9adc89c74eb8f9a5eb357a36767d844fc03718f07232f5f8d9b8b270e2d0141048abb8e17559b37c06cf693d69c920a95aa8aefd7172c1d0c911aabce6b86ff759b4e7f86aec51f3673994eb8eef2e0a3e7f20da779752dab41e360066d718864"
      },
      "sequence": 4294967295
    }
  ],
  "vout": [
    {
      "value": 22.79000000,
      "n": 0,
      "scriptPubKey": {
        "asm": "OP_DUP OP_HASH160 e3cef8864d401df3bd7337a68f4d3a364d857ca8 OP_EQUALVERIFY OP_CHECKSIG",
        "hex": "76a914e3cef8864d401df3bd7337a68f4d3a364d857ca888ac",
        "address": "1MmYL8U7GcHRB2X2yccJGsbiyzEzNjPKBq",
        "type": "pubkeyhash"
      }
    },
    {
      "value": 0.03000000,
      "n": 1,
      "scriptPubKey": {
        "asm": "OP_DUP OP_HASH160 1f7bd341eaa059390d14b80373c093eb2a2191ab OP_EQUALVERIFY OP_CHECKSIG",
        "hex": "76a9141f7bd341eaa059390d14b80373c093eb2a2191ab88ac",
        "address": "13sUHUW8G23BLQEKFwVMf5cKUkiSuFK8XC",
        "type": "pubkeyhash"
      }
    }
  ],
  "blockhash": "00000000000044f0f93afa970a7b95c91899a2b53040d449fdde7ee88856ce7d",
  "hex": "0100000001aee86d95f2c461226c4c9cb9b58644a848c18f9e748967f6742c6b1ea65a90f1010000008b483045022100a6a7706260390f592869fe788737ee475a3b5b635668002eb2d77c493302198402201c80d9adc89c74eb8f9a5eb357a36767d844fc03718f07232f5f8d9b8b270e2d0141048abb8e17559b37c06cf693d69c920a95aa8aefd7172c1d0c911aabce6b86ff759b4e7f86aec51f3673994eb8eef2e0a3e7f20da779752dab41e360066d718864ffffffff02c0c7d687000000001976a914e3cef8864d401df3bd7337a68f4d3a364d857ca888acc0c62d00000000001976a9141f7bd341eaa059390d14b80373c093eb2a2191ab88ac00000000"
}