{
  "txid": "8b127b737d62a84361f9af06301b3859dbcc5bdb594e9986b15ff3395c32cdeb",
  "hash": "8b127b737d62a84361f9af06301b3859dbcc5bdb594e9986b15ff3395c32cdeb",
  "version": 1,
  "size": 258,
  "vsize": 258,
  "weight": 1032,
  "locktime": 0,
  "vin": [
    {
      "txid": "a6a4cdf04dd587c1b946374617c55620844e2edbfe91eb912838f03e89468a16",
      "vout": 1,
      "scriptSig": {
        "asm": "30450220650b54ec76eb21a9dd99d234e09a2d580cc258e983403a706b155c5668d87211022100ec6362a0903f223b89ccf7a65ebe73a72f80648e1e3737a32b5f22613bf47a82[ALL] 042cc5592dd12df534e0e18758ea433497432d69f4d40826c73f95fce09bb087e688ffcce885ef58f8db05d8886c531a3d799388afffd39b86c5b565f2d91a6e70",
        "hex": "4830450220650b54ec76eb21a9dd99d234e09a2d580cc258e983403a706b155c5668d87211022100ec6362a0903f223b89ccf7a65ebe73a72f80648e1e3737a32b5f22613bf47a820141042cc5592dd12df534e0e18758ea433497432d69f4d40826c73f95fce09bb087e688ffcce885ef58f8db05d8886c531a3d799388afffd39b86c5b565f2d91a6e70"
      },
      "sequence": 4294967295
    }
  ],
  "vout": [
    {
      "value": 0.03000000,
      "n": 0,
      "scriptPubKey": {
        "asm": "OP_DUP OP_HASH160 1f7bd341eaa059390d14b80373c093eb2a2191ab OP_EQUALVERIFY OP_CHECKSIG",
        "hex": "76a9141f7bd341eaa059390d14b80373c093eb2a2191ab88ac",
        "address": "13sUHUW8G23BLQEKFwVMf5cKUkiSuFK8XC",
        "type": "pubkeyhash"
      }
    },
    {
      "value": 22.73000000,
      "n": 1,
      "scriptPubKey": {
        "asm": "OP_DUP OP_HASH160 d85ddcda478a4c18473b2e5bdff5fc5adde4896e OP_EQUALVERIFY OP_CHECKSIG",
        "hex": "76a914d85ddcda478a4c18473b2e5bdff5fc5adde4896e88ac",
        "address": "1Lj3Q8Zz19jSLKbc8GTVhSTapy14gKZ3by",
        "type": "pubkeyhash"
      }
    }
  ],
  "blockhash": "0000000000007e122c6d5478efccb44f62b7516fc4f6456caf6250bc78a1b8f2",
  "hex": "0100000001168a46893ef0382891eb91fedb2e4e842056c517463746b9c187d54df0cda4a6010000008b4830450220650b54ec76eb21a9dd99d234e09a2d580cc258e983403a706b155c5668d87211022100ec6362a0903f223b89ccf7a65ebe73a72f80648e1e3737a32b5f22613bf47a820141042cc5592dd12df534e0e18758ea433497432d69f4d40826c73f95fce09bb087e688ffcce885ef58f8db05d8886c531a3d799388afffd39b86c5b565f2d91a6e70ffffffff02c0c62d00000000001976a9141f7bd341eaa059390d14b80373c093eb2a2191ab88ac403a7b87000000001976a914d85ddcda478a4c18473b2e5bdff5fc5adde4896e88ac00000000"
}