{
  "txid": "a6a4cdf04dd587c1b946374617c55620844e2edbfe91eb912838f03e89468a16",
  "hash": "a6a4cdf04dd587c1b946374617c55620844e2edbfe91eb912838f03e89468a16",
  "version": 1,
  "size": 257,
  "vsize": 257,
  "weight": 1028,
  "locktime": 0,
  "vin": [
    {
      "txid": "744b5b334c32d62394721f0ffff3a71a25e895f6dcee3a8975dcdcf4d3d48181",
      "vout": 0,
      "scriptSig": {
        "asm": "3044022002b2665cabfb9de941e3a7438d67a7e777a86e016895e7f3e5942771d51c906202201878b058d1087baf1c5e117908fbb3275d93f4058fa5a1117df2e88adf7a7bfd[ALL] 044b70c057c7191cf1e66de6a5830ad980c1f1a0b39ea4cc3b81bf6dd51490a5747ff863944ac6ca32173377ad5044e75ab4cd9d6a7e3c16023232fb4c51665e09",
        "hex": "473044022002b2665cabfb9de941e3a7438d67a7e777a86e016895e7f3e5942771d51c906202201878b058d1087baf1c5e117908fbb3275d93f4058fa5a1117df2e88adf7a7bfd0141044b70c057c7191cf1e66de6a5830ad980c1f1a0b39ea4cc3b81bf6dd51490a5747ff863944ac6ca32173377ad5044e75ab4cd9d6a7e3c16023232fb4c51665e09"
      },
      "sequence": 4294967295
    }
  ],
  "vout": [
    {
      "value": 0.03000000,
      "n": 0,
      "scriptPubKey": {
        "asm": "OP_DUP OP_HASH160 1f7bd341eaa059390d14b80373c093eb2a2191ab OP_EQUALVERIFY OP_CHECKSIG",
        "hex": "76a9141f7bd341eaa059390d14b80373c093eb2a2191ab88ac",
        "address": "13sUHUW8G23BLQEKFwVMf5cKUkiSuFK8XC",
        "type": "pubkeyhash"
      }
    },
    {
      "value": 22.76000000,
      "n": 1,
      "scriptPubKey": {
        "asm": "OP_DUP OP_HASH160 27ddb8ff905306d330e0b310f7d04e9f0f5e2a7c OP_EQUALVERIFY OP_CHECKSIG",
        "hex": "76a91427ddb8ff905306d330e0b310f7d04e9f0f5e2a7c88ac",
        "address": "14dny3PTNLoqTwnrPBaE8gKURQoeNtsZLu",
        "type": "pubkeyhash"
      }
    }
  ],
  "blockhash": "0000000000007e122c6d5478efccb44f62b7516fc4f6456caf6250bc78a1b8f2",
  "hex": "01000000018181d4d3f4dcdc75893aeedcf695e8251aa7f3ff0f1f729423d6324c335b4b74000000008a473044022002b2665cabfb9de941e3a7438d67a7e777a86e016895e7f3e5942771d51c906202201878b058d1087baf1c5e117908fbb3275d93f4058fa5a1117df2e88adf7a7bfd0141044b70c057c7191cf1e66de6a5830ad980c1f1a0b39ea4cc3b81bf6dd51490a5747ff863944ac6ca32173377ad5044e75ab4cd9d6a7e3c16023232fb4c51665e09ffffffff02c0c62d00000000001976a9141f7bd341eaa059390d14b80373c093eb2a2191ab88ac0001a987000000001976a91427ddb8ff905306d330e0b310f7d04e9f0f5e2a7c88ac00000000"
}