{
  "txid": "b7ef659ced0747f16ff6d6d57ed0736cd7fb02d139920b0a45cfa8f762796328",
  "hash": "b7ef659ced0747f16ff6d6d57ed0736cd7fb02d139920b0a45cfa8f762796328",
  "version": 1,
  "size": 223,
  "vsize": 223,
  "weight": 892,
  "locktime": 0,
  "vin": [
    {
      "txid": "08d3cb2b12cd97c13eeb30b595eb9c3d80b4ccad9d6a27cc295ee3acaadc8e32",
      "vout": 0,
      "scriptSig": {
        "asm": "3044022070bccb27143baec68999378ec5e372c0701060c998e922e6afd116a301e6ff8b02202818a74e6aa8ba1cba1e9b70a9f68493d3a0b2be47f0e55d6813433eb02d1b05[ALL] 043862b649373e3c50afefc87cec8033d4643358295bceb3daa198bfa2262da20799dc666a8241238dea687fb928939f97447e932faf82e6dd64ff778223d053e2",
        "hex": "473044022070bccb27143baec68999378ec5e372c0701060c998e922e6afd116a301e6ff8b02202818a74e6aa8ba1cba1e9b70a9f68493d3a0b2be47f0e55d6813433eb02d1b050141043862b649373e3c50afefc87cec8033d4643358295bceb3daa198bfa2262da20799dc666a8241238dea687fb928939f97447e932faf82e6dd64ff778223d053e2"
      },
      "sequence": 4294967295
    }
  ],
  "vout": [
    {
      "value": 11.74000000,
      "n": 0,
      "scriptPubKey": {
        "asm": "OP_DUP OP_HASH160 16bcee8bcec76e467a1c12672f50b12aad7a247d OP_EQUALVERIFY OP_CHECKSIG",
        "hex": "76a91416bcee8bcec76e467a1c12672f50b12aad7a247d88ac",
        "address": "135ECS8fhd35N7MBtYBatm7PLYfncQZ5rA",
        "type": "pubkeyhash"
      }
    }
  ],
  "blockhash": "0000000000001f2785ea584c6a122a13203f39bb12b720ac1a68b001064c7b21",
  "hex": "0100000001328edcaaace35e29cc276a9dadccb4803d9ceb95b530eb3ec197cd122bcbd308000000008a473044022070bccb27143baec68999378ec5e372c0701060c998e922e6afd116a301e6ff8b02202818a74e6aa8ba1cba1e9b70a9f68493d3a0b2be47f0e55d6813433eb02d1b050141043862b649373e3c50afefc87cec8033d4643358295bceb3daa198bfa2262da20799dc666a8241238dea687fb928939f97447e932faf82e6dd64ff778223d053e2ffffffff0180d1f945000000001976a91416bcee8bcec76e467a1c12672f50b12aad7a247d88ac00000000"
}