{
  "txid": "c51ca2ba351c8af82f5ac16aff9c8ac927e3d959e7446e590e23825eea248dce",
  "hash": "c51ca2ba351c8af82f5ac16aff9c8ac927e3d959e7446e590e23825eea248dce",
  "version": 1,
  "size": 258,
  "vsize": 258,
  "weight": 1032,
  "locktime": 0,
  "vin": [
    {
      "txid": "8b127b737d62a84361f9af06301b3859dbcc5bdb594e9986b15ff3395c32cdeb",
      "vout": 1,
      "scriptSig": {
        "asm": "304502204ad9d06e027f3f02a5f72a10775c4a5d2442cc133a9946282d0679d9f26facb1022100a50cac323e11dfc063eba5fb45167cb6beda8c56aaf5a4121e53e3f0e131d6ec[ALL] 044c78c891f834bacc48f1460af91098d983064f9c6dd7685896528ef899447f65bb8d7cd98b7ac465ccae8e356ff01a5851be5eac9d457f1a4cda9e84824cb9fe",
        "hex": "48304502204ad9d06e027f3f02a5f72a10775c4a5d2442cc133a9946282d0679d9f26facb1022100a50cac323e11dfc063eba5fb45167cb6beda8c56aaf5a4121e53e3f0e131d6ec0141044c78c891f834bacc48f1460af91098d983064f9c6dd7685896528ef899447f65bb8d7cd98b7ac465ccae8e356ff01a5851be5eac9d457f1a4cda9e84824cb9fe"
      },
      "sequence": 4294967295
    }
  ],
  "vout": [
    {
      "value": 0.03000000,
      "n": 0,
      "scriptPubKey": {
        "asm": "OP_DUP OP_HASH160 1f7bd341eaa059390d14b80373c093eb2a2191ab OP_EQUALVERIFY OP_CHECKSIG",
        "hex": "76a9141f7bd341eaa059390d14b80373c093eb2a2191ab88ac",
        "address": "13sUHUW8G23BLQEKFwVMf5cKUkiSuFK8XC",
        "type": "pubkeyhash"
      }
    },
    {
      "value": 22.70000000,
      "n": 1,
      "scriptPubKey": {
        "asm": "OP_DUP OP_HASH160 f2231efab3ad5250721900c310043ce4c29b026f OP_EQUALVERIFY OP_CHECKSIG",
        "hex": "76a914f2231efab3ad5250721900c310043ce4c29b026f88ac",
        "address": "1P5Jbg5Pcz9fceYYZ8s5vverSpzbnuWzGw",
        "type": "pubkeyhash"
      }
    }
  ],
  "blockhash": "0000000000007e122c6d5478efccb44f62b7516fc4f6456caf6250bc78a1b8f2",
  "hex": "0100000001ebcd325c39f35fb186994e59db5bccdb59381b3006aff96143a8627d737b128b010000008b48304502204ad9d06e027f3f02a5f72a10775c4a5d2442cc133a9946282d0679d9f26facb1022100a50cac323e11dfc063eba5fb45167cb6beda8c56aaf5a4121e53e3f0e131d6ec0141044c78c891f834bacc48f1460af91098d983064f9c6dd7685896528ef899447f65bb8d7cd98b7ac465ccae8e356ff01a5851be5eac9d457f1a4cda9e84824cb9feffffffff02c0c62d00000000001976a9141f7bd341eaa059390d14b80373c093eb2a2191ab88ac80734d87000000001976a914f2231efab3ad5250721900c310043ce4c29b026f88ac00000000"
}