{
  "hash": "00000000000044f0f93afa970a7b95c91899a2b53040d449fdde7ee88856ce7d",
  "confirmations": 596019,
  "height": 120461,
  "version": 1,
  "versionHex": "00000001",
  "merkleroot": "6e3af4bbe13b277898a15129e50f545383b0a73a2ff8bd2a75c759c8770fa0f5",
  "time": 1303891894,
  "mediantime": 1303889608,
  "nonce": 1082094377,
  "bits": "1b00b5ac",
  "difficulty": 92347.59095209427,
  "chainwork": "0000000000000000000000000000000000000000000000003fa8b7cffe01cfd8",
  "nTx": 8,
  "previousblockhash": "0000000000005de3559bba3f403272916e53be98e8982201a5573b0ebc25737d",
  "nextblockhash": "0000000000007e122c6d5478efccb44f62b7516fc4f6456caf6250bc78a1b8f2",
  "strippedsize": 3211,
  "size": 3211,
  "weight": 12844,
  "tx": [
    {
      "txid": "85ad6d2003f88a80ba1387eb18f3e511c2f2e2e1d4069dc64d0bda4101981829",
      "hash": "85ad6d2003f88a80ba1387eb18f3e511c2f2e2e1d4069dc64d0bda4101981829",
      "version": 1,
      "size": 134,
      "vsize": 134,
      "weight": 536,
      "locktime": 0,
      "vin": [
        {
          "coinbase": "04acb5001b0129",
          "sequence": 4294967295
        }
      ],
      "vout": [
        {
          "value": 50.00000000,
          "n": 0,
          "scriptPubKey": {
            "asm": "04a17b8ba7d6078611816bf540ff1efa034e92c5e58fb06c015d7a13ea7f254e76b853f37fe6756fcd6b16f9d065089ae11d4bc7419c7e8956e56d086292840440 OP_CHECKSIG",
            "hex": "4104a17b8ba7d6078611816bf540ff1efa034e92c5e58fb06c015d7a13ea7f254e76b853f37fe6756fcd6b16f9d065089ae11d4bc7419c7e8956e56d086292840440ac",
            "type": "pubkey"
          }
        }
      ],
      "hex": "01000000010000000000000000000000000000000000000000000000000000000000000000ffffffff0704acb5001b0129ffffffff0100f2052a01000000434104a17b8ba7d6078611816bf540ff1efa034e92c5e58fb06c015d7a13ea7f254e76b853f37fe6756fcd6b16f9d065089ae11d4bc7419c7e8956e56d086292840440ac00000000"
    },
    {
      "txid": "19906553fb7fb4f8288041aed75108e61f9e3391844a3d72c892840af046ffbb",
      "hash": "19906553fb7fb4f8288041aed75108e61f9e3391844a3d72c892840af046ffbb",
      "version": 1,
      "size": 223,
      "vsize": 223,
      "weight": 892,
      "locktime": 0,
      "vin": [
        {
          "txid": "e8a17a8973a981a6446c7ea56ca66e861ae92acf248acc721fd26306c1be26ea",
          "vout": 1,
          "scriptSig": {
            "asm": "304402201d9a6c405bbcbee8ec369b39198c682864567dc1036132ee3f31b32dd9175d400220726928dee19a40ed195d4ecb01198a0121d5e363433018f4913e0105052a1528[ALL] 04e7660a03a48d5597c9cf3bf5367c96aeacfeef0dd644b035465ccabcae35348dafb354b7620f3143a55ac36b3a8bd6ff9e9caab076a3c978d0cba3691a0cc9f0",
            "hex": "47304402201d9a6c405bbcbee8ec369b39198c682864567dc1036132ee3f31b32dd9175d400220726928dee19a40ed195d4ecb01198a0121d5e363433018f4913e0105052a1528014104e7660a03a48d5597c9cf3bf5367c96aeacfeef0dd644b035465ccabcae35348dafb354b7620f3143a55ac36b3a8bd6ff9e9caab076a3c978d0cba3691a0cc9f0"
          },
          "sequence": 4294967295
        }
      ],
      "vout": [
        {
          "value": 293.00000000,
          "n": 0,
          "scriptPubKey": {
            "asm": "OP_DUP OP_HASH160 26316aa4e7c427163ae3f7b4350f2946c99442e7 OP_EQUALVERIFY OP_CHECKSIG",
            "hex": "76a91426316aa4e7c427163ae3f7b4350f2946c99442e788ac",
            "address": "14UwspC6F6az8ST51fFKyNdsbiPRcc3kWJ",
            "type": "pubkeyhash"
          }
        }
      ],
      "fee": 0.00000000,
      "hex": "0100000001ea26bec10663d21f72cc8a24cf2ae91a866ea66ca57e6c44a681a973897aa1e8010000008a47304402201d9a6c405bbcbee8ec369b39198c682864567dc1036132ee3f31b32dd9175d400220726928dee19a40ed195d4ecb01198a0121d5e363433018f4913e0105052a1528014104e7660a03a48d5597c9cf3bf5367c96aeacfeef0dd644b035465ccabcae35348dafb354b7620f3143a55ac36b3a8bd6ff9e9caab076a3c978d0cba3691a0cc9f0ffffffff0100856ad2060000001976a91426316aa4e7c427163ae3f7b4350f2946c99442e788ac00000000"
    },
    {
      "txid": "1a0c1629e25c93bfd5543989a0eef4ed6a9c7bfe564906125ebb3890991192cb",
      "hash": "1a0c1629e25c93bfd5543989a0eef4ed6a9c7bfe564906125ebb3890991192cb",
      "version": 1,
      "size": 403,
      "vsize": 403,
      "weight": 1612,
      "locktime": 0,
      "vin": [
        {
          "txid": "0ec0e4894797ef91a562e0b4a08ee1f6501cf754252a0cbc89827884824f5f2b",
          "vout": 0,
          "scriptSig": {
            "asm": "304402202802afe2a88e592970af560662a7604a8f33c5894ce4383a12db52876ed145ce02204b5acc3a3eb2394a934dd36fd591a80471f496237aa4185791d69b1dbeda7245[ALL] 0453494c53f3cdd36298efca88c150adcd24ec3b99ccddcb170df49bb256df40124044f6712d8ce9d4503ff87352069e0396ed2c8da91e1001f80511d13ed8db0f",
            "hex": "47304402202802afe2a88e592970af560662a7604a8f33c5894ce4383a12db52876ed145ce02204b5acc3a3eb2394a934dd36fd591a80471f496237aa4185791d69b1dbeda724501410453494c53f3cdd36298efca88c150adcd24ec3b99ccddcb170df49bb256df40124044f6712d8ce9d4503ff87352069e0396ed2c8da91e1001f80511d13ed8db0f"
          },
          "sequence": 4294967295
        },
        {
          "txid": "a78097ac964c50839999742432794f8dba16eccc2365a47be0130f6c657f427a",
          "vout": 1,
          "scriptSig": {
            "asm": "3045022100da4deef1e4393e11a118c79b1c481a1c030c422acdaea608135cb9681e2ebbc3022013cf92d1dd432a58d3ece8516573ace1a7c275e5e634d7a7414af36033791392[ALL] 0453494c53f3cdd36298efca88c150adcd24ec3b99ccddcb170df49bb256df40124044f6712d8ce9d4503ff87352069e0396ed2c8da91e1001f80511d13ed8db0f",
            "hex": "483045022100da4deef1e4393e11a118c79b1c481a1c030c422acdaea608135cb9681e2ebbc3022013cf92d1dd432a58d3ece8516573ace1a7c275e5e634d7a7414af3603379139201410453494c53f3cdd36298efca88c150adcd24ec3b99ccddcb170df49bb256df40124044f6712d8ce9d4503ff87352069e0396ed2c8da91e1001f80511d13ed8db0f"
          },
          "sequence": 4294967295
        }
      ],
      "vout": [
        {
          "value": 50.00000000,
          "n": 0,
          "scriptPubKey": {
            "asm": "OP_DUP OP_HASH160 7f5c9219a11c84abdc371d25bcb4bb9fdf483d8e OP_EQUALVERIFY OP_CHECKSIG",
            "hex": "76a9147f5c9219a11c84abdc371d25bcb4bb9fdf483d8e88ac",
            "address": "1CcRiHgr3HWK5bHJ38jBwgLVmBUWRzqEu6",
            "type": "pubkeyhash"
          }
        }
      ],
      "fee": 0.00000000,
      "hex": "01000000022b5f4f8284788289bc0c2a2554f71c50f6e18ea0b4e062a591ef974789e4c00e000000008a47304402202802afe2a88e592970af560662a7604a8f33c5894ce4383a12db52876ed145ce02204b5acc3a3eb2394a934dd36fd591a80471f496237aa4185791d69b1dbeda724501410453494c53f3cdd36298efca88c150adcd24ec3b99ccddcb170df49bb256df40124044f6712d8ce9d4503ff87352069e0396ed2c8da91e1001f80511d13ed8db0fffffffff7a427f656c0f13e07ba46523ccec16ba8d4f79322474999983504c96ac9780a7010000008b483045022100da4deef1e4393e11a118c79b1c481a1c030c422acdaea608135cb9681e2ebbc3022013cf92d1dd432a58d3ece8516573ace1a7c275e5e634d7a7414af3603379139201410453494c53f3cdd36298efca88c150adcd24ec3b99ccddcb170df49bb256df40124044f6712d8ce9d4503ff87352069e0396ed2c8da91e1001f80511d13ed8db0fffffffff0100f2052a010000001976a9147f5c9219a11c84abdc371d25bcb4bb9fdf483d8e88ac00000000"
    },
    {
      "txid": "017e40db3acb3dceddef45345209741c4980920c2fdc46d99633bee63770db16",
      "hash": "017e40db3acb3dceddef45345209741c4980920c2fdc46d99633bee63770db16",
      "version": 1,
      "size": 258,
      "vsize": 258,
      "weight": 1032,
      "locktime": 0,
      "vin": [
        {
          "txid": "f4992f88e3a97ec9b6953ba4b4e3d8a14940dc7a6537ac322f05db46c42b0f66",
          "vout": 1,
          "scriptSig": {
            "asm": "3045022100f11abf5aa4a121a399059d75d579dfd04a5b2a0b2424cde8fda40ea0d1dc1f550220789afcfd1a10549b4503dd8e884eec020c941889019f2fb1189e403f2311af4b[ALL] 04e770b67fe1e598d5882f1922ee6f5e05cff45627c2d91fbc012ca40f3acca99ce0dd27a97504f81555a295df2ee26db35558f93656b46c5a9315a39ea614575f",
            "hex": "483045022100f11abf5aa4a121a399059d75d579dfd04a5b2a0b2424cde8fda40ea0d1dc1f550220789afcfd1a10549b4503dd8e884eec020c941889019f2fb1189e403f2311af4b014104e770b67fe1e598d5882f1922ee6f5e05cff45627c2d91fbc012ca40f3acca99ce0dd27a97504f81555a295df2ee26db35558f93656b46c5a9315a39ea614575f"
          },
          "sequence": 4294967295
        }
      ],
      "vout": [
        {
          "value": 259.63000000,
          "n": 0,
          "scriptPubKey": {
            "asm": "OP_DUP OP_HASH160 6771de3d93aee3dba2aa808128a25a11babbdaf4 OP_EQUALVERIFY OP_CHECKSIG",
            "hex": "76a9146771de3d93aee3dba2aa808128a25a11babbdaf488ac",
            "address": "1ARy1TNdLuVyggUQJBRqBuLAZV64GyqXb7",
            "type": "pubkeyhash"
          }
        },
        {
          "value": 0.03000000,
          "n": 1,
          "scriptPubKey": {
            "asm": "OP_DUP OP_HASH160 1f7bd341eaa059390d14b80373c093eb2a2191ab OP_EQUALVERIFY OP_CHECKSIG",
            "hex": "76a9141f7bd341eaa059390d14b80373c093eb2a2191ab88ac",
            "address": "13sUHUW8G23BLQEKFwVMf5cKUkiSuFK8XC",
            "type": "pubkeyhash"
          }
        }
      ],
      "fee": 0.00000000,
      "hex": "0100000001660f2bc446db052f32ac37657adc4049a1d8e3b4a43b95b6c97ea9e3882f99f4010000008b483045022100f11abf5aa4a121a399059d75d579dfd04a5b2a0b2424cde8fda40ea0d1dc1f550220789afcfd1a10549b4503dd8e884eec020c941889019f2fb1189e403f2311af4b014104e770b67fe1e598d5882f1922ee6f5e05cff45627c2d91fbc012ca40f3acca99ce0dd27a97504f81555a295df2ee26db35558f93656b46c5a9315a39ea614575fffffffff02c0f0830b060000001976a9146771de3d93aee3dba2aa808128a25a11babbdaf488acc0c62d00000000001976a9141f7bd341eaa059390d14b80373c093eb2a2191ab88ac00000000"
    },
    {
      "txid": "0e315c7c9189e213403eae84cee24c9d3dc8a29ebf3b9a540edad79bc3d8248f",
      "hash": "0e315c7c9189e213403eae84cee24c9d3dc8a29ebf3b9a540edad79bc3d8248f",
      "version": 1,
      "size": 259,
      "vsize": 259,
      "weight": 1036,
      "locktime": 0,
      "vin": [
        {
          "txid": "e4192b3d45885bed8e0a1b7f35d1ee8ff38702ba6314675987a3f78d6fee0de6",
          "vout": 1,
          "scriptSig": {
            "asm": "30460221008a373f273de83af7ba6f936eb568a362eb6239b7aca9f36fa596761ae96a2983022100e88788d014c078362aac685475810ca2ec191ceacbe85bbfe9410c988ab40bf7[ALL] 048d8373ac486e5bae7479bfc1a5106de2f3ab2d0f85a0197790972172be9dd21af092e43b0c12e7a65c349d190f07ba883a1c8d3faa96aec183be4f3b6eebe87a",
            "hex": "4930460221008a373f273de83af7ba6f936eb568a362eb6239b7aca9f36fa596761ae96a2983022100e88788d014c078362aac685475810ca2ec191ceacbe85bbfe9410c988ab40bf70141048d8373ac486e5bae7479bfc1a5106de2f3ab2d0f85a0197790972172be9dd21af092e43b0c12e7a65c349d190f07ba883a1c8d3faa96aec183be4f3b6eebe87a"
          },
          "sequence": 4294967295
        }
      ],
      "vout": [
        {
          "value": 0.03000000,
          "n": 0,
          "scriptPubKey": {
            "asm": "OP_DUP OP_HASH160 1f7bd341eaa059390d14b80373c093eb2a2191ab OP_EQUALVERIFY OP_CHECKSIG",
            "hex": "76a9141f7bd341eaa059390d14b80373c093eb2a2191ab88ac",
            "address": "13sUHUW8G23BLQEKFwVMf5cKUkiSuFK8XC",
            "type": "pubkeyhash"
          }
        },
        {
          "value": 258.19000000,
          "n": 1,
          "scriptPubKey": {
            "asm": "OP_DUP OP_HASH160 85411f499026e75ed20053dde2fe1d2f98212367 OP_EQUALVERIFY OP_CHECKSIG",
            "hex": "76a91485411f499026e75ed20053dde2fe1d2f9821236788ac",
            "address": "1D9atHVZwE6BFfhC7SYM6BFKdJRP7RRD33",
            "type": "pubkeyhash"
          }
        }
      ],
      "fee": 0.00000000,
      "hex": "0100000001e60dee6f8df7a38759671463ba0287f38feed1357f1b0a8eed5b88453d2b19e4010000008c4930460221008a373f273de83af7ba6f936eb568a362eb6239b7aca9f36fa596761ae96a2983022100e88788d014c078362aac685475810ca2ec191ceacbe85bbfe9410c988ab40bf70141048d8373ac486e5bae7479bfc1a5106de2f3ab2d0f85a0197790972172be9dd21af092e43b0c12e7a65c349d190f07ba883a1c8d3faa96aec183be4f3b6eebe87affffffff02c0c62d00000000001976a9141f7bd341eaa059390d14b80373c093eb2a2191ab88acc0acee02060000001976a91485411f499026e75ed20053dde2fe1d2f9821236788ac00000000"
    },
    {
      "txid": "f1905aa61e6b2c74f66789749e8fc148a84486b5b99c4c6c2261c4f2956de8ae",
      "hash": "f1905aa61e6b2c74f66789749e8fc148a84486b5b99c4c6c2261c4f2956de8ae",
      "version": 1,
      "size": 258,
      "vsize": 258,
      "weight": 1032,
      "locktime": 0,
      "vin": [
        {
          "txid": "b721a43b7ff9b220cb0d48cadc65baaf962fe4d2f774780805f2760a40a8808e",
          "vout": 0,
          "scriptSig": {
            "asm": "3045022007e29f51a13ede8d5807dc1ff390f84ccf167e9e86923c2e0138be0fe1826ab3022100bbc0293002bad329c749769e190285754e3f29b275054bb6a0529046ccb3eca6[ALL] 0457b748d6156a0a244a12bd18ebd87a162bfc0410e291ee1e11ddf8d7ab51718ffdcb8366af0a84ccadc4433cb5425d34060cd3702de0fcabc7599e01a81b2f89",
            "hex": "483045022007e29f51a13ede8d5807dc1ff390f84ccf167e9e86923c2e0138be0fe1826ab3022100bbc0293002bad329c749769e190285754e3f29b275054bb6a0529046ccb3eca601410457b748d6156a0a244a12bd18ebd87a162bfc0410e291ee1e11ddf8d7ab51718ffdcb8366af0a84ccadc4433cb5425d34060cd3702de0fcabc7599e01a81b2f89"
          },
          "sequence": 4294967295
        }
      ],
      "vout": [
        {
          "value": 0.03000000,
          "n": 0,
          "scriptPubKey": {
            "asm": "OP_DUP OP_HASH160 1f7bd341eaa059390d14b80373c093eb2a2191ab OP_EQUALVERIFY OP_CHECKSIG",
            "hex": "76a9141f7bd341eaa059390d14b80373c093eb2a2191ab88ac",
            "address": "13sUHUW8G23BLQEKFwVMf5cKUkiSuFK8XC",
            "type": "pubkeyhash"
          }
        },
        {
          "value": 22.82000000,
          "n": 1,
          "scriptPubKey": {
            "asm": "OP_DUP OP_HASH160 c611c24ce824dde468d381f9db5db08b567428b9 OP_EQUALVERIFY OP_CHECKSIG",
            "hex": "76a914c611c24ce824dde468d381f9db5db08b567428b988ac",
            "address": "1K4J4u7E9bxYXSQHatYik8xZT1UVXStoyU",
            "type": "pubkeyhash"
          }
        }
      ],
      "fee": 0.00000000,
      "hex": "01000000018e80a8400a76f205087874f7d2e42f96afba65dcca480dcb20b2f97f3ba421b7000000008b483045022007e29f51a13ede8d5807dc1ff390f84ccf167e9e86923c2e0138be0fe1826ab3022100bbc0293002bad329c749769e190285754e3f29b275054bb6a0529046ccb3eca601410457b748d6156a0a244a12bd18ebd87a162bfc0410e291ee1e11ddf8d7ab51718ffdcb8366af0a84ccadc4433cb5425d34060cd3702de0fcabc7599e01a81b2f89ffffffff02c0c62d00000000001976a9141f7bd341eaa059390d14b80373c093eb2a2191ab88ac808e0488000000001976a914c611c24ce824dde468d381f9db5db08b567428b988ac00000000"
    },
    {
      "txid": "000c42ccc569addd69262c759a6da7f371d3cc66bbfbdfc4b262066fff3a488c",
      "hash": "000c42ccc569addd69262c759a6da7f371d3cc66bbfbdfc4b262066fff3a488c",
      "version": 1,
      "size": 1337,
      "vsize": 1337,
      "weight": 5348,
      "locktime": 0,
      "vin": [
        {
          "txid": "5712f9dbd05ec0cbc027f87c5bf7b9e756185b6c7ee6aa776df34b91352a8aa7",
          "vout": 1,
          "scriptSig": {
            "asm": "30450221009ed0f3f50b23bb36dd67a37ef4ce338e8a67cef9bb46582bf951c8abe0ea279402203bcaee130da2ccca34ed58be7ec147d24277d45bdf06c54d09f2f9ac13559a26[ALL] 0471e9f0feb6f846bc37969a2843c9719b4025befa59d37dfa2a1ae89957c2178047db9b50732397870cc96f9b4580a6aa01f78e15cc6d367a3dd78de42393ef77",
            "hex": "4830450221009ed0f3f50b23bb36dd67a37ef4ce338e8a67cef9bb46582bf951c8abe0ea279402203bcaee130da2ccca34ed58be7ec147d24277d45bdf06c54d09f2f9ac13559a2601410471e9f0feb6f846bc37969a2843c9719b4025befa59d37dfa2a1ae89957c2178047db9b50732397870cc96f9b4580a6aa01f78e15cc6d367a3dd78de42393ef77"
          },
          "sequence": 4294967295
        },
        {
          "txid": "8a3afca26f778b7ac2266862fa72dfecc81247fc1b8e7a6c214bd307196b8769",
          "vout": 0,
          "scriptSig": {
            "asm": "30450220506e38a22ccf25f24a1d0413dff7bddd9b00dfdc8a9a5a588f7dc80effeab4b2022100a2fc4b8c875e51e076d12f4564800992ee82347ce0b1df27bd16ddad8861cf94[ALL] 04c7e505b5504c94d9b1719952ea8cddad8694057aaf3f65a4e30edf330f23e45ea6a558948620393761dac8c1a2789f23ec06022ef4fb8c87fad0252b3897c04c",
            "hex": "4830450220506e38a22ccf25f24a1d0413dff7bddd9b00dfdc8a9a5a588f7dc80effeab4b2022100a2fc4b8c875e51e076d12f4564800992ee82347ce0b1df27bd16ddad8861cf94014104c7e505b5504c94d9b1719952ea8cddad8694057aaf3f65a4e30edf330f23e45ea6a558948620393761dac8c1a2789f23ec06022ef4fb8c87fad0252b3897c04c"
          },
          "sequence": 4294967295
        },
        {
          "txid": "23394c536c343fc90dc9e804f1f13543572313cd2d07553c4229df836445b821",
          "vout": 0,
          "scriptSig": {
            "asm": "3045022100bf1f43ee08ede6e949328c6ce812726c0fa45dcadefdd5730599c0d0f07609d0022026378e9a24fa3c7281cf62b55d6fbfabcfb0b366288a51b978f762755ad90e0c[ALL] 0446c83805fd95159f7e3963d0774cda756b79c7a71a11d1f27adb3a6b927dcb630d9eeac2e511de420b1fa83af109aad2ef90c9df417680ffca71538447103659",
            "hex": "483045022100bf1f43ee08ede6e949328c6ce812726c0fa45dcadefdd5730599c0d0f07609d0022026378e9a24fa3c7281cf62b55d6fbfabcfb0b366288a51b978f762755ad90e0c01410446c83805fd95159f7e3963d0774cda756b79c7a71a11d1f27adb3a6b927dcb630d9eeac2e511de420b1fa83af109aad2ef90c9df417680ffca71538447103659"
          },
          "sequence": 4294967295
        },
        {
          "txid": "23394c536c343fc90dc9e804f1f13543572313cd2d07553c4229df836445b821",
          "vout": 1,
          "scriptSig": {
            "asm": "3045022100d86f4e588271d0a5c1b2ae57b27d5cc916a37c3f93a4a3e2f363e81928dc09a4022078e8908bf8441d605db113793eb2d261c75106dc8fd881af92ed5e48c946f1e7[ALL] 040a05b326e84b06533ef949e94e17e2e41ed7aea1b19ab39060902fac2efceea4d294f61ce77e296523953fb0db8b6678f48650aa0c9c63193509dea1e54d432a",
            "hex": "483045022100d86f4e588271d0a5c1b2ae57b27d5cc916a37c3f93a4a3e2f363e81928dc09a4022078e8908bf8441d605db113793eb2d261c75106dc8fd881af92ed5e48c946f1e70141040a05b326e84b06533ef949e94e17e2e41ed7aea1b19ab39060902fac2efceea4d294f61ce77e296523953fb0db8b6678f48650aa0c9c63193509dea1e54d432a"
          },
          "sequence": 4294967295
        },
        {
          "txid": "7c5d726c428f05bca4c52fc2bca5f52e56f395158b77df7285586180d3091f2f",
          "vout": 0,
          "scriptSig": {
            "asm": "304402201032cb0560fdee01fc9eb66e172204f087c51ea5aeb8b7dbcadcd6138a594dcb0220516394daa1a1f80edcd7deb35adfaef917649f2f5f3c3509e1a8962ebdfa1161[ALL] 04b774d8b7efad048ec46dc0755cebf06f272934c90f39c2ffc577a492028033741b085c620a9531a00712bf53332cd3210ee074787bfd7d04414dbec63505714e",
            "hex": "47304402201032cb0560fdee01fc9eb66e172204f087c51ea5aeb8b7dbcadcd6138a594dcb0220516394daa1a1f80edcd7deb35adfaef917649f2f5f3c3509e1a8962ebdfa1161014104b774d8b7efad048ec46dc0755cebf06f272934c90f39c2ffc577a492028033741b085c620a9531a00712bf53332cd3210ee074787bfd7d04414dbec63505714e"
          },
          "sequence": 4294967295
        },
        {
          "txid": "7c5d726c428f05bca4c52fc2bca5f52e56f395158b77df7285586180d3091f2f",
          "vout": 1,
          "scriptSig": {
            "asm": "3044022054ac5fa6282fbf0ef1c731bc9e51deba248e6be1cdfaed212eee9355a3f9faa60220250fb70d4421424b1680d2747df134740e4d21a3a7e0f4ef42c116ed37c2b5be[ALL] 04d0bbf2669880e1b7a293e3c32f92c42617889cdc96f61baae707310665916ff68adcf3529ac141fe1b35c560524a1185cbd4317bff4baf347843275d3ff0fcee",
            "hex": "473044022054ac5fa6282fbf0ef1c731bc9e51deba248e6be1cdfaed212eee9355a3f9faa60220250fb70d4421424b1680d2747df134740e4d21a3a7e0f4ef42c116ed37c2b5be014104d0bbf2669880e1b7a293e3c32f92c42617889cdc96f61baae707310665916ff68adcf3529ac141fe1b35c560524a1185cbd4317bff4baf347843275d3ff0fcee"
          },
          "sequence": 4294967295
        },
        {
          "txid": "42fef697e34557f62901ad99b9ba8e7748ae9678e4f0b880bad5a8dd42cb24b9",
          "vout": 0,
          "scriptSig": {
            "asm": "3046022100f7c5770fda2ad0dd9a14bb1d5ef15e5af9394f10e69ebe6a33578b90e4f48fa6022100bbfa19b0bde9d43dc2e6a23dccb67a4cb493ea6aa03267a6a8c8d3183ad7d254[ALL] 049d839946965297cd23c5029fa9c143f321ae45880a2d9116e8d6c2654cdbaeabe614e9d2c98bc5b3bd867601e51c1c4f05b0eb2282c83449ccbf8db94c93b7ad",
            "hex": "493046022100f7c5770fda2ad0dd9a14bb1d5ef15e5af9394f10e69ebe6a33578b90e4f48fa6022100bbfa19b0bde9d43dc2e6a23dccb67a4cb493ea6aa03267a6a8c8d3183ad7d2540141049d839946965297cd23c5029fa9c143f321ae45880a2d9116e8d6c2654cdbaeabe614e9d2c98bc5b3bd867601e51c1c4f05b0eb2282c83449ccbf8db94c93b7ad"
          },
          "sequence": 4294967295
        }
      ],
      "vout": [
        {
          "value": 0.29000000,
          "n": 0,
          "scriptPubKey": {
            "asm": "OP_DUP OP_HASH160 637ca0c4380e89691ad2b3499e0bf3677b1458b6 OP_EQUALVERIFY OP_CHECKSIG",
            "hex": "76a914637ca0c4380e89691ad2b3499e0bf3677b1458b688ac",
            "address": "1A53CJAuJjLmvMcSi7zWQs8iXLmyZbxfgZ",
            "type": "pubkeyhash"
          }
        },
        {
          "value": 46.28000000,
          "n": 1,
          "scriptPubKey": {
            "asm": "OP_DUP OP_HASH160 aa488b648913eca50ad175c80a92f4fbef1bc604 OP_EQUALVERIFY OP_CHECKSIG",
            "hex": "76a914aa488b648913eca50ad175c80a92f4fbef1bc60488ac",
            "address": "1GXNn6K7ag8YVxobZEUfwATZraPWCqMTKA",
            "type": "pubkeyhash"
          }
        }
      ],
      "fee": 0.00000000,
      "hex": "0100000007a78a2a35914bf36d77aae67e6c5b1856e7b9f75b7cf827c0cbc05ed0dbf91257010000008b4830450221009ed0f3f50b23bb36dd67a37ef4ce338e8a67cef9bb46582bf951c8abe0ea279402203bcaee130da2ccca34ed58be7ec147d24277d45bdf06c54d09f2f9ac13559a2601410471e9f0feb6f846bc37969a2843c9719b4025befa59d37dfa2a1ae89957c2178047db9b50732397870cc96f9b4580a6aa01f78e15cc6d367a3dd78de42393ef77ffffffff69876b1907d34b216c7a8e1bfc4712c8ecdf72fa626826c27a8b776fa2fc3a8a000000008b4830450220506e38a22ccf25f24a1d0413dff7bddd9b00dfdc8a9a5a588f7dc80effeab4b2022100a2fc4b8c875e51e076d12f4564800992ee82347ce0b1df27bd16ddad8861cf94014104c7e505b5504c94d9b1719952ea8cddad8694057aaf3f65a4e30edf330f23e45ea6a558948620393761dac8c1a2789f23ec06022ef4fb8c87fad0252b3897c04cffffffff21b8456483df29423c55072dcd1323574335f1f104e8c90dc93f346c534c3923000000008b483045022100bf1f43ee08ede6e949328c6ce812726c0fa45dcadefdd5730599c0d0f07609d0022026378e9a24fa3c7281cf62b55d6fbfabcfb0b366288a51b978f762755ad90e0c01410446c83805fd95159f7e3963d0774cda756b79c7a71a11d1f27adb3a6b927dcb630d9eeac2e511de420b1fa83af109aad2ef90c9df417680ffca71538447103659ffffffff21b8456483df29423c55072dcd1323574335f1f104e8c90dc93f346c534c3923010000008b483045022100d86f4e588271d0a5c1b2ae57b27d5cc916a37c3f93a4a3e2f363e81928dc09a4022078e8908bf8441d605db113793eb2d261c75106dc8fd881af92ed5e48c946f1e70141040a05b326e84b06533ef949e94e17e2e41ed7aea1b19ab39060902fac2efceea4d294f61ce77e296523953fb0db8b6678f48650aa0c9c63193509dea1e54d432affffffff2f1f09d38061588572df778b1595f3562ef5a5bcc22fc5a4bc058f426c725d7c000000008a47304402201032cb0560fdee01fc9eb66e172204f087c51ea5aeb8b7dbcadcd6138a594dcb0220516394daa1a1f80edcd7deb35adfaef917649f2f5f3c3509e1a8962ebdfa1161014104b774d8b7efad048ec46dc0755cebf06f272934c90f39c2ffc577a492028033741b085c620a9531a00712bf53332cd3210ee074787bfd7d04414dbec63505714effffffff2f1f09d38061588572df778b1595f3562ef5a5bcc22fc5a4bc058f426c725d7c010000008a473044022054ac5fa6282fbf0ef1c731bc9e51deba248e6be1cdfaed212eee9355a3f9faa60220250fb70d4421424b1680d2747df134740e4d21a3a7e0f4ef42c116ed37c2b5be014104d0bbf2669880e1b7a293e3c32f92c42617889cdc96f61baae707310665916ff68adcf3529ac141fe1b35c560524a1185cbd4317bff4baf347843275d3ff0fceeffffffffb924cb42dda8d5ba80b8f0e47896ae48778ebab999ad0129f65745e397f6fe42000000008c493046022100f7c5770fda2ad0dd9a14bb1d5ef15e5af9394f10e69ebe6a33578b90e4f48fa6022100bbfa19b0bde9d43dc2e6a23dccb67a4cb493ea6aa03267a6a8c8d3183ad7d2540141049d839946965297cd23c5029fa9c143f321ae45880a2d9116e8d6c2654cdbaeabe614e9d2c98bc5b3bd867601e51c1c4f05b0eb2282c83449ccbf8db94c93b7adffffffff024081ba01000000001976a914637ca0c4380e89691ad2b3499e0bf3677b1458b688ac00add913010000001976a914aa488b648913eca50ad175c80a92f4fbef1bc60488ac00000000"
    },
    {
      "txid": "744b5b334c32d62394721f0ffff3a71a25e895f6dcee3a8975dcdcf4d3d48181",
      "hash": "744b5b334c32d62394721f0ffff3a71a25e895f6dcee3a8975dcdcf4d3d48181",
      "version": 1,
      "size": 258,
      "vsize": 258,
      "weight": 1032,
      "locktime": 0,
      "vin": [
        {
          "txid": "f1905aa61e6b2c74f66789749e8fc148a84486b5b99c4c6c2261c4f2956de8ae",
          "vout": 1,
          "scriptSig": {
            "asm": "3045022100a6a7706260390f592869fe788737ee475a3b5b635668002eb2d77c493302198402201c80d9adc89c74eb8f9a5eb357a36767d844fc03718f07232f5f8d9b8b270e2d[ALL] 048abb8e17559b37c06cf693d69c920a95aa8aefd7172c1d0c911aabce6b86ff759b4e7f86aec51f3673994eb8eef2e0a3e7f20da779752dab41e360066d718864",
            "hex": "483045022100a6a7706260390f592869fe788737ee475a3b5b635668002eb2d77c493302198402201c80d9adc89c74eb8f9a5eb357a36767d844fc03718f07232f5f8d9b8b270e2d0141048abb8e17559b37c06cf693d69c920a95aa8aefd7172c1d0c911aabce6b86ff759b4e7f86aec51f3673994eb8eef2e0a3e7f20da779752dab41e360066d718864"
          },
          "sequence": 4294967295
        }
      ],
      "vout": [
        {
          "value": 22.79000000,
          "n": 0,
          "scriptPubKey": {
            "asm": "OP_DUP OP_HASH160 e3cef8864d401df3bd7337a68f4d3a364d857ca8 OP_EQUALVERIFY OP_CHECKSIG",
            "hex": "76a914e3cef8864d401df3bd7337a68f4d3a364d857ca888ac",
            "address": "1MmYL8U7GcHRB2X2yccJGsbiyzEzNjPKBq",
            "type": "pubkeyhash"
          }
        },
        {
          "value": 0.03000000,
          "n": 1,
          "scriptPubKey": {
            "asm": "OP_DUP OP_HASH160 1f7bd341eaa059390d14b80373c093eb2a2191ab OP_EQUALVERIFY OP_CHECKSIG",
            "hex": "76a9141f7bd341eaa059390d14b80373c093eb2a2191ab88ac",
            "address": "13sUHUW8G23BLQEKFwVMf5cKUkiSuFK8XC",
            "type": "pubkeyhash"
          }
        }
      ],
      "fee": 0.00000000,
      "hex": "0100000001aee86d95f2c461226c4c9cb9b58644a848c18f9e748967f6742c6b1ea65a90f1010000008b483045022100a6a7706260390f592869fe788737ee475a3b5b635668002eb2d77c493302198402201c80d9adc89c74eb8f9a5eb357a36767d844fc03718f07232f5f8d9b8b270e2d0141048abb8e17559b37c06cf693d69c920a95aa8aefd7172c1d0c911aabce6b86ff759b4e7f86aec51f3673994eb8eef2e0a3e7f20da779752dab41e360066d718864ffffffff02c0c7d687000000001976a914e3cef8864d401df3bd7337a68f4d3a364d857ca888acc0c62d00000000001976a9141f7bd341eaa059390d14b80373c093eb2a2191ab88ac00000000"
    }
  ]
}