{
  "txid": "0ec0e4894797ef91a562e0b4a08ee1f6501cf754252a0cbc89827884824f5f2b",
  "hash": "0ec0e4894797ef91a562e0b4a08ee1f6501cf754252a0cbc89827884824f5f2b",
  "version": 1,
  "size": 800,
  "vsize": 800,
  "weight": 3200,
  "locktime": 0,
  "vin": [
    {
      "txid": "7e341bd059cdb7dfa9a44d08a4f8d635393002aaa6d9f8f072fa8fa09154df00",
      "vout": 12,
      "scriptSig": {
        "asm": "304402200bf78bd0b92a30380a0c2b7b6d61fdcb3738e3c3c8772d94f585553a31c9835c02202e18882e1d6cba67b75d39707666bfee0d52d0b56c333355b0b79cb6527bf20c[ALL] 0469baa27e8072a1311f8e7549c15bfd6824512d34e9e217058e01229bba33a78e8ff44b3e53432e8ee0228e77c04379b1160c74d51ce448e693c73addd51fd066",
        "hex": "47304402200bf78bd0b92a30380a0c2b7b6d61fdcb3738e3c3c8772d94f585553a31c9835c02202e18882e1d6cba67b75d39707666bfee0d52d0b56c333355b0b79cb6527bf20c01410469baa27e8072a1311f8e7549c15bfd6824512d34e9e217058e01229bba33a78e8ff44b3e53432e8ee0228e77c04379b1160c74d51ce448e693c73addd51fd066"
      },
      "sequence": 4294967295
    },
    {
      "txid": "d743861edd9bedf49123bc231a4bbc24ad533ba77330eca3b47663faddade7ed",
      "vout": 12,
      "scriptSig": {
        "asm": "3046022100dadbb34ba03d21bb6f49251724912ae2c2891af6de44109b6083a9abd87267b3022100aee16eb34b9104d065ec83be5dfd5933108741fd6c57a6317751ea44e3789242[ALL] 0469baa27e8072a1311f8e7549c15bfd6824512d34e9e217058e01229bba33a78e8ff44b3e53432e8ee0228e77c04379b1160c74d51ce448e693c73addd51fd066",
        "hex": "493046022100dadbb34ba03d21bb6f49251724912ae2c2891af6de44109b6083a9abd87267b3022100aee16eb34b9104d065ec83be5dfd5933108741fd6c57a6317751ea44e378924201410469baa27e8072a1311f8e7549c15bfd6824512d34e9e217058e01229bba33a78e8ff44b3e53432e8ee0228e77c04379b1160c74d51ce448e693c73addd51fd066"
      },
      "sequence": 4294967295
    },
    {
      "txid": "a91bb9d5f1558ebb31bc03dc2d856118cae380c18370708c342b484795785e30",
      "vout": 46,
      "scriptSig": {
        "asm": "3046022100f8bfd02a10082c0bd7a81b0eed0486510a4098f5b9fd6fa1fe02568b01bea172022100eacb9b3e16a92bcdcdce33d4e0b91b2ac0a1fe4c2516cddd718f10d6c977e1e7[ALL] 0469baa27e8072a1311f8e7549c15bfd6824512d34e9e217058e01229bba33a78e8ff44b3e53432e8ee0228e77c04379b1160c74d51ce448e693c73addd51fd066",
        "hex": "493046022100f8bfd02a10082c0bd7a81b0eed0486510a4098f5b9fd6fa1fe02568b01bea172022100eacb9b3e16a92bcdcdce33d4e0b91b2ac0a1fe4c2516cddd718f10d6c977e1e701410469baa27e8072a1311f8e7549c15bfd6824512d34e9e217058e01229bba33a78e8ff44b3e53432e8ee0228e77c04379b1160c74d51ce448e693c73addd51fd066"
      },
      "sequence": 4294967295
    },
    {
      "txid": "2b8bcb324f0e8f024b19c76fe5119f63fc0bb278f3c6cda2d3db6e7b33891ee8",
      "vout": 0,
      "scriptSig": {
        "asm": "3046022100e4eab7799de3a24b2017c912420e92e863c296d1b874c31b01c15bc7651a5990022100d0b231ab9c9a5dd3381769e4df99afe8bcc03025ddc376bd7b92be3965767c30[ALL] 041eee94c2f162f5be541dfee7c9af24d284cc6a469c756de0050e0b8acdfdd6b4ddf8576eb90e460b075f1aef7f5a37870b104f920d332de856cb1e070046ca81",
        "hex": "493046022100e4eab7799de3a24b2017c912420e92e863c296d1b874c31b01c15bc7651a5990022100d0b231ab9c9a5dd3381769e4df99afe8bcc03025ddc376bd7b92be3965767c300141041eee94c2f162f5be541dfee7c9af24d284cc6a469c756de0050e0b8acdfdd6b4ddf8576eb90e460b075f1aef7f5a37870b104f920d332de856cb1e070046ca81"
      },
      "sequence": 4294967295
    }
  ],
  "vout": [
    {
      "value": 25.00000000,
      "n": 0,
      "scriptPubKey": {
        "asm": "OP_DUP OP_HASH160 7a867ba441e2553be3a90115b0d602bc4489e9e5 OP_EQUALVERIFY OP_CHECKSIG",
        "hex": "76a9147a867ba441e2553be3a90115b0d602bc4489e9e588ac",
        "address": "1CArYSmQUXnaHyKTHcR6XUknfxXKGQqRbv",
        "type": "pubkeyhash"
      }
    },
    {
      "value": 0.15000000,
      "n": 1,
      "scriptPubKey": {
        "asm": "OP_DUP OP_HASH160 9962e44e9b18a016a21a737ec718ec0f491f68c6 OP_EQUALVERIFY OP_CHECKSIG",
        "hex": "76a9149962e44e9b18a016a21a737ec718ec0f491f68c688ac",
        "address": "1Ez2rUX8fpbP4rfoLY7PtQmejZr1QteZTX",
        "type": "pubkeyhash"
      }
    }
  ],
  "blockhash": "0000000000007f77aa02a642e7b568b1e6623376a4951f0383e9dce13175fc93",
  "hex": "010000000400df5491a08ffa72f0f8d9a6aa02303935d6f8a4084da4a9dfb7cd59d01b347e0c0000008a47304402200bf78bd0b92a30380a0c2b7b6d61fdcb3738e3c3c8772d94f585553a31c9835c02202e18882e1d6cba67b75d39707666bfee0d52d0b56c333355b0b79cb6527bf20c01410469baa27e8072a1311f8e7549c15bfd6824512d34e9e217058e01229bba33a78e8ff44b3e53432e8ee0228e77c04379b1160c74d51ce448e693c73addd51fd066ffffffffede7adddfa6376b4a3ec3073a73b53ad24bc4b1a23bc2391f4ed9bdd1e8643d70c0000008c493046022100dadbb34ba03d21bb6f49251724912ae2c2891af6de44109b6083a9abd87267b3022100aee16eb34b9104d065ec83be5dfd5933108741fd6c57a6317751ea44e378924201410469baa27e8072a1311f8e7549c15bfd6824512d34e9e217058e01229bba33a78e8ff44b3e53432e8ee0228e77c04379b1160c74d51ce448e693c73addd51fd066ffffffff305e789547482b348c707083c180e3ca1861852ddc03bc31bb8e55f1d5b91ba92e0000008c493046022100f8bfd02a10082c0bd7a81b0eed0486510a4098f5b9fd6fa1fe02568b01bea172022100eacb9b3e16a92bcdcdce33d4e0b91b2ac0a1fe4c2516cddd718f10d6c977e1e701410469baa27e8072a1311f8e7549c15bfd6824512d34e9e217058e01229bba33a78e8ff44b3e53432e8ee0228e77c04379b1160c74d51ce448e693c73addd51fd066ffffffffe81e89337b6edbd3a2cdc6f378b20bfc639f11e56fc7194b028f0e4f32cb8b2b000000008c493046022100e4eab7799de3a24b2017c912420e92e863c296d1b874c31b01c15bc7651a5990022100d0b231ab9c9a5dd3381769e4df99afe8bcc03025ddc376bd7b92be3965767c300141041eee94c2f162f5be541dfee7c9af24d284cc6a469c756de0050e0b8acdfdd6b4ddf8576eb90e460b075f1aef7f5a37870b104f920d332de856cb1e070046ca81ffffffff0200f90295000000001976a9147a867ba441e2553be3a90115b0d602bc4489e9e588acc0e1e400000000001976a9149962e44e9b18a016a21a737ec718ec0f491f68c688ac00000000"
}