{
  "txid": "23394c536c343fc90dc9e804f1f13543572313cd2d07553c4229df836445b821",
  "hash": "23394c536c343fc90dc9e804f1f13543572313cd2d07553c4229df836445b821",
  "version": 1,
  "size": 438,
  "vsize": 438,
  "weight": 1752,
  "locktime": 0,
  "vin": [
    {
      "txid": "822e76c83df63393f8137a870a1b7b9bce89049e740484a66fd95a319c399e89",
      "vout": 0,
      "scriptSig": {
        "asm": "3045022100ea6c3aa3b754ed3972cd9aa00e0172f9088a3a473cb8041ca7104b7d90a91d1b02206b7d103934d4f983763a9c3e9255a11b4e6980a464d68aac488b6f057d94e217[ALL] 040934a162521f38ca9cfe468a8de00e0fb8cf4e7154d59a89eafdf6bee2a8e0f0334d44a16697d9be23c2ece1025fc79f2598cee06be4f9c1603600520f75283b",
        "hex": "483045022100ea6c3aa3b754ed3972cd9aa00e0172f9088a3a473cb8041ca7104b7d90a91d1b02206b7d103934d4f983763a9c3e9255a11b4e6980a464d68aac488b6f057d94e2170141040934a162521f38ca9cfe468a8de00e0fb8cf4e7154d59a89eafdf6bee2a8e0f0334d44a16697d9be23c2ece1025fc79f2598cee06be4f9c1603600520f75283b"
      },
      "sequence": 4294967295
    },
    {
      "txid": "822e76c83df63393f8137a870a1b7b9bce89049e740484a66fd95a319c399e89",
      "vout": 1,
      "scriptSig": {
        "asm": "30450220582f5b1d4b9eca502d7dd1cdbe293122328b18ffbc1287454ba954203091b4a002210098b21be64b543fdcf32384f7b625bf5334e4e4566c6cce490fa4f35a9306c663[ALL] 04b5086f6f2cc288cbb4f237467d76a920284c0557a125f3d3eae5f12bbbd3704c38e28d3e96f5a48cbb593c5fa2690e0951b2fa9f17bf985801f7df57d58da6d7",
        "hex": "4830450220582f5b1d4b9eca502d7dd1cdbe293122328b18ffbc1287454ba954203091b4a002210098b21be64b543fdcf32384f7b625bf5334e4e4566c6cce490fa4f35a9306c663014104b5086f6f2cc288cbb4f237467d76a920284c0557a125f3d3eae5f12bbbd3704c38e28d3e96f5a48cbb593c5fa2690e0951b2fa9f17bf985801f7df57d58da6d7"
      },
      "sequence": 4294967295
    }
  ],
  "vout": [
    {
      "value": 8.85000000,
      "n": 0,
      "scriptPubKey": {
        "asm": "OP_DUP OP_HASH160 fc321e1881a81204aab91e3b48d2218c56df80b5 OP_EQUALVERIFY OP_CHECKSIG",
        "hex": "76a914fc321e1881a81204aab91e3b48d2218c56df80b588ac",
        "address": "1PzVKa66uZKUbgfmKUjRXq775LoQ8cg6LL",
        "type": "pubkeyhash"
      }
    },
    {
      "value": 26.68000000,
      "n": 1,
      "scriptPubKey": {
        "asm": "OP_DUP OP_HASH160 c2130dca99cc3eca42a6afc3d3e01e5d38a01795 OP_EQUALVERIFY OP_CHECKSIG",
        "hex": "76a914c2130dca99cc3eca42a6afc3d3e01e5d38a0179588ac",
        "address": "1JhAv6t4W6fFVQPfGgtJGvxoBBx3DAKUHd",
        "type": "pubkeyhash"
      }
    }
  ],
  "blockhash": "00000000000063984244d41e8649a870a3cadf11fcee4306c5fe6521183902ca",
  "hex": "0100000002899e399c315ad96fa68404749e0489ce9b7b1b0a877a13f89333f63dc8762e82000000008b483045022100ea6c3aa3b754ed3972cd9aa00e0172f9088a3a473cb8041ca7104b7d90a91d1b02206b7d103934d4f983763a9c3e9255a11b4e6980a464d68aac488b6f057d94e2170141040934a162521f38ca9cfe468a8de00e0fb8cf4e7154d59a89eafdf6bee2a8e0f0334d44a16697d9be23c2ece1025fc79f2598cee06be4f9c1603600520f75283bffffffff899e399c315ad96fa68404749e0489ce9b7b1b0a877a13f89333f63dc8762e82010000008b4830450220582f5b1d4b9eca502d7dd1cdbe293122328b18ffbc1287454ba954203091b4a002210098b21be64b543fdcf32384f7b625bf5334e4e4566c6cce490fa4f35a9306c663014104b5086f6f2cc288cbb4f237467d76a920284c0557a125f3d3eae5f12bbbd3704c38e28d3e96f5a48cbb593c5fa2690e0951b2fa9f17bf985801f7df57d58da6d7ffffffff024007c034000000001976a914fc321e1881a81204aab91e3b48d2218c56df80b588ac0073069f000000001976a914c2130dca99cc3eca42a6afc3d3e01e5d38a0179588ac00000000"
}