{
  "txid": "42fef697e34557f62901ad99b9ba8e7748ae9678e4f0b880bad5a8dd42cb24b9",
  "hash": "42fef697e34557f62901ad99b9ba8e7748ae9678e4f0b880bad5a8dd42cb24b9",
  "version": 1,
  "size": 2205,
  "vsize": 2205,
  "weight": 8820,
  "locktime": 0,
  "vin": [
    {
      "txid": "74bbcbe8c0b0001e928b3e61dd9f0409879acd463095746f3e7fa494dbf0646d",
      "vout": 42,
      "scriptSig": {
        "asm": "304402201574f3f1a546815cc3b5d950cd3373fffc4d18df6c7a28724c47de8951364c9a02200a21b90a582b89aa2bb38c0b18a8480d45380b31f390076101fa611173c7d9b8[ALL] 045fcc4fcb65255fe4017fa9c590bbc0a72cd1c8384f04ea36d3c0fbd0769ead2b587d1169fae5bfb2f9281e3f6fc7d645fb79e709d96705d015b2261cb9b58677",
        "hex": "47304402201574f3f1a546815cc3b5d950cd3373fffc4d18df6c7a28724c47de8951364c9a02200a21b90a582b89aa2bb38c0b18a8480d45380b31f390076101fa611173c7d9b80141045fcc4fcb65255fe4017fa9c590bbc0a72cd1c8384f04ea36d3c0fbd0769ead2b587d1169fae5bfb2f9281e3f6fc7d645fb79e709d96705d015b2261cb9b58677"
      },
      "sequence": 4294967295
    },
    {
      "txid": "12ff7b5d95b1a35bb668972d5d0c024856024ab5904130ca533eadafb316df55",
      "vout": 0,
      "scriptSig": {
        "asm": "3045022100cfcc276042ee8705f53da7f6236a4efd4932caa639cf1c7329183c1ba62fe31f0220054535ee75f924fe23835662339b6cf3688eba1c99970b99a8304b030df77076[ALL] 045fcc4fcb65255fe4017fa9c590bbc0a72cd1c8384f04ea36d3c0fbd0769ead2b587d1169fae5bfb2f9281e3f6fc7d645fb79e709d96705d015b2261cb9b58677",
        "hex": "483045022100cfcc276042ee8705f53da7f6236a4efd4932caa639cf1c7329183c1ba62fe31f0220054535ee75f924fe23835662339b6cf3688eba1c99970b99a8304b030df770760141045fcc4fcb65255fe4017fa9c590bbc0a72cd1c8384f04ea36d3c0fbd0769ead2b587d1169fae5bfb2f9281e3f6fc7d645fb79e709d96705d015b2261cb9b58677"
      },
      "sequence": 4294967295
    },
    {
      "txid": "e753e23c4b1ed13be74bcab56c59d78e6790f2000b3dd5bf8ab5b18d598e19a1",
      "vout": 0,
      "scriptSig": {
        "asm": "3045022012584d180b6fefee2bc18a18cad331afcf0195ad59f60f3efe6f850abb34e2dc022100cf7e9cc17ce99911fd05b0d5d02aebf26bb12611e231e67bc9c0cf25eaf8d090[ALL] 045fcc4fcb65255fe4017fa9c590bbc0a72cd1c8384f04ea36d3c0fbd0769ead2b587d1169fae5bfb2f9281e3f6fc7d645fb79e709d96705d015b2261cb9b58677",
        "hex": "483045022012584d180b6fefee2bc18a18cad331afcf0195ad59f60f3efe6f850abb34e2dc022100cf7e9cc17ce99911fd05b0d5d02aebf26bb12611e231e67bc9c0cf25eaf8d0900141045fcc4fcb65255fe4017fa9c590bbc0a72cd1c8384f04ea36d3c0fbd0769ead2b587d1169fae5bfb2f9281e3f6fc7d645fb79e709d96705d015b2261cb9b58677"
      },
      "sequence": 4294967295
    },
    {
      "txid": "9e71b7d5d8aecae8cf08d61d3ccd506ba74768718b2a825d98baa3dc8d1ffac4",
      "vout": 0,
      "scriptSig": {
        "asm": "304402207bc8706307cf1a8964f80e9ddf8a6536696924b4bfbef4be21b2d5fa39f5b3ee0220203778a11cfeda26397cc463244f0c45440658be695f210356a9b0b43aa0ac22[ALL] 045fcc4fcb65255fe4017fa9c590bbc0a72cd1c8384f04ea36d3c0fbd0769ead2b587d1169fae5bfb2f9281e3f6fc7d645fb79e709d96705d015b2261cb9b58677",
        "hex": "47304402207bc8706307cf1a8964f80e9ddf8a6536696924b4bfbef4be21b2d5fa39f5b3ee0220203778a11cfeda26397cc463244f0c45440658be695f210356a9b0b43aa0ac220141045fcc4fcb65255fe4017fa9c590bbc0a72cd1c8384f04ea36d3c0fbd0769ead2b587d1169fae5bfb2f9281e3f6fc7d645fb79e709d96705d015b2261cb9b58677"
      },
      "sequence": 4294967295
    },
    {
      "txid": "f122f521de94fa8e91e42d7440d33a153fbdd4e457154fafd262a84fee2ba007",
      "vout": 0,
      "scriptSig": {
        "asm": "3046022100899e94fc2f7cf624dcaf702f721a2a0681d2b5cb89ffa8ae8dbb34f8464d04bc022100f88bd144ebc805ff4be17adc2d683e1e1fcd4f37993bca5df41287bc824c058b[ALL] 045fcc4fcb65255fe4017fa9c590bbc0a72cd1c8384f04ea36d3c0fbd0769ead2b587d1169fae5bfb2f9281e3f6fc7d645fb79e709d96705d015b2261cb9b58677",
        "hex": "493046022100899e94fc2f7cf624dcaf702f721a2a0681d2b5cb89ffa8ae8dbb34f8464d04bc022100f88bd144ebc805ff4be17adc2d683e1e1fcd4f37993bca5df41287bc824c058b0141045fcc4fcb65255fe4017fa9c590bbc0a72cd1c8384f04ea36d3c0fbd0769ead2b587d1169fae5bfb2f9281e3f6fc7d645fb79e709d96705d015b2261cb9b58677"
      },
      "sequence": 4294967295
    },
    {
      "txid": "5372326743dab02dee0c2f622009d5ac5adb789fbf009193e2a52054407dd22a",
      "vout": 0,
      "scriptSig": {
        "asm": "3045022100bba3b29e92d1ab02e48cadbd8c9ba7bd49540042daabdddd71b23de6c45717c3022069229f190e8644db52b2a0f494592da826b380b4b7e70223cedd64657daa0541[ALL] 045fcc4fcb65255fe4017fa9c590bbc0a72cd1c8384f04ea36d3c0fbd0769ead2b587d1169fae5bfb2f9281e3f6fc7d645fb79e709d96705d015b2261cb9b58677",
        "hex": "483045022100bba3b29e92d1ab02e48cadbd8c9ba7bd49540042daabdddd71b23de6c45717c3022069229f190e8644db52b2a0f494592da826b380b4b7e70223cedd64657daa05410141045fcc4fcb65255fe4017fa9c590bbc0a72cd1c8384f04ea36d3c0fbd0769ead2b587d1169fae5bfb2f9281e3f6fc7d645fb79e709d96705d015b2261cb9b58677"
      },
      "sequence": 4294967295
    },
    {
      "txid": "cd4f1ed73baeaa845854bd555ff660bf3aea836ff37676664e6165cd0f614a03",
      "vout": 0,
      "scriptSig": {
        "asm": "3046022100f48d21e7bd5def521f299e91589c010e3442e181404957e872e7a8771c7183a1022100f5e864e2a3d64405c4e0b1fa0322676d79d737ff6873305a74ad2691a1af2d5b[ALL] 045fcc4fcb65255fe4017fa9c590bbc0a72cd1c8384f04ea36d3c0fbd0769ead2b587d1169fae5bfb2f9281e3f6fc7d645fb79e709d96705d015b2261cb9b58677",
        "hex": "493046022100f48d21e7bd5def521f299e91589c010e3442e181404957e872e7a8771c7183a1022100f5e864e2a3d64405c4e0b1fa0322676d79d737ff6873305a74ad2691a1af2d5b0141045fcc4fcb65255fe4017fa9c590bbc0a72cd1c8384f04ea36d3c0fbd0769ead2b587d1169fae5bfb2f9281e3f6fc7d645fb79e709d96705d015b2261cb9b58677"
      },
      "sequence": 4294967295
    },
    {
      "txid": "6e0fa182f2630b82f91dca70bfe7c86e885b0910174a574b071fbae9390f48ba",
      "vout": 0,
      "scriptSig": {
        "asm": "3046022100822b447150cc494a33b073e5b8b5ec2eeb060441f1b8021d67185ec11835456e022100fdcf151ffefb254bea99f6119a13381198b49b433168d0d119db4437cc3fcef3[ALL] 045fcc4fcb65255fe4017fa9c590bbc0a72cd1c8384f04ea36d3c0fbd0769ead2b587d1169fae5bfb2f9281e3f6fc7d645fb79e709d96705d015b2261cb9b58677",
        "hex": "493046022100822b447150cc494a33b073e5b8b5ec2eeb060441f1b8021d67185ec11835456e022100fdcf151ffefb254bea99f6119a13381198b49b433168d0d119db4437cc3fcef30141045fcc4fcb65255fe4017fa9c590bbc0a72cd1c8384f04ea36d3c0fbd0769ead2b587d1169fae5bfb2f9281e3f6fc7d645fb79e709d96705d015b2261cb9b58677"
      },
      "sequence": 4294967295
    },
    {
      "txid": "9da76b875443e2d82bdc13cd4543729477c4b50dcc80e1de89c1f246e0365a8b",
      "vout": 0,
      "scriptSig": {
        "asm": "3044022047e91217b9933ce7494f5c03e284f05a493ecd8a91b6ae970dc38aac7fa5e5c1022056d8ae0d4ca1513db79a843eab835f69fc7b9b025ffd215dac3da89a3ad3f7e7[ALL] 045fcc4fcb65255fe4017fa9c590bbc0a72cd1c8384f04ea36d3c0fbd0769ead2b587d1169fae5bfb2f9281e3f6fc7d645fb79e709d96705d015b2261cb9b58677",
        "hex": "473044022047e91217b9933ce7494f5c03e284f05a493ecd8a91b6ae970dc38aac7fa5e5c1022056d8ae0d4ca1513db79a843eab835f69fc7b9b025ffd215dac3da89a3ad3f7e70141045fcc4fcb65255fe4017fa9c590bbc0a72cd1c8384f04ea36d3c0fbd0769ead2b587d1169fae5bfb2f9281e3f6fc7d645fb79e709d96705d015b2261cb9b58677"
      },
      "sequence": 4294967295
    },
    {
      "txid": "14ff932b9487b926c0c0a893fab7ade8f29a99acdba5bbff359d77f48f5acf2e",
      "vout": 0,
      "scriptSig": {
        "asm": "3046022100de8227f0c6516fa41b95c3e0d58178a238e1ae9bbf3273e8efd223fcf5ea0ba7022100a75cc7248f66a6810d3d46680dfcc562e463716f5d6efa14948717117df61b17[ALL] 045fcc4fcb65255fe4017fa9c590bbc0a72cd1c8384f04ea36d3c0fbd0769ead2b587d1169fae5bfb2f9281e3f6fc7d645fb79e709d96705d015b2261cb9b58677",
        "hex": "493046022100de8227f0c6516fa41b95c3e0d58178a238e1ae9bbf3273e8efd223fcf5ea0ba7022100a75cc7248f66a6810d3d46680dfcc562e463716f5d6efa14948717117df61b170141045fcc4fcb65255fe4017fa9c590bbc0a72cd1c8384f04ea36d3c0fbd0769ead2b587d1169fae5bfb2f9281e3f6fc7d645fb79e709d96705d015b2261cb9b58677"
      },
      "sequence": 4294967295
    },
    {
      "txid": "b624be86c38148724379b0c838f68ebaa6d43b78a1d7e2a83a98237008a4deb4",
      "vout": 0,
      "scriptSig": {
        "asm": "30450220530a69d950594de1a34afe2cc202f46d4ee7d2385ad797aaa8c5b379fe6e1a6202210082642ebed59ee7117e07f2e2e41bca8832e0f40afdbb1c7ac4d759ede13bc64a[ALL] 045fcc4fcb65255fe4017fa9c590bbc0a72cd1c8384f04ea36d3c0fbd0769ead2b587d1169fae5bfb2f9281e3f6fc7d645fb79e709d96705d015b2261cb9b58677",
        "hex": "4830450220530a69d950594de1a34afe2cc202f46d4ee7d2385ad797aaa8c5b379fe6e1a6202210082642ebed59ee7117e07f2e2e41bca8832e0f40afdbb1c7ac4d759ede13bc64a0141045fcc4fcb65255fe4017fa9c590bbc0a72cd1c8384f04ea36d3c0fbd0769ead2b587d1169fae5bfb2f9281e3f6fc7d645fb79e709d96705d015b2261cb9b58677"
      },
      "sequence": 4294967295
    },
    {
      "txid": "51c42d1210a291658c135e410ce7a91c92350f5057bfdbbaade5f4a4c56c5278",
      "vout": 0,
      "scriptSig": {
        "asm": "3045022100f0f06361f6c28da30c3eae1303fd2ed12200c6b0c5c11f1251c1c3ac0245055802200dbbc0f3dafdd8668812db3d4224154ff9221f03277da7feab69b419172c34af[ALL] 045fcc4fcb65255fe4017fa9c590bbc0a72cd1c8384f04ea36d3c0fbd0769ead2b587d1169fae5bfb2f9281e3f6fc7d645fb79e709d96705d015b2261cb9b58677",
        "hex": "483045022100f0f06361f6c28da30c3eae1303fd2ed12200c6b0c5c11f1251c1c3ac0245055802200dbbc0f3dafdd8668812db3d4224154ff9221f03277da7feab69b419172c34af0141045fcc4fcb65255fe4017fa9c590bbc0a72cd1c8384f04ea36d3c0fbd0769ead2b587d1169fae5bfb2f9281e3f6fc7d645fb79e709d96705d015b2261cb9b58677"
      },
      "sequence": 4294967295
    }
  ],
  "vout": [
    {
      "value": 2.28000000,
      "n": 0,
      "scriptPubKey": {
        "asm": "OP_DUP OP_HASH160 83e935994a42742e7b9e2213f37ea81c45751ef9 OP_EQUALVERIFY OP_CHECKSIG",
        "hex": "76a91483e935994a42742e7b9e2213f37ea81c45751ef988ac",
        "address": "1D2UtoTEN5wqGZGPL6d1fK4aYZZEbt3hfL",
        "type": "pubkeyhash"
      }
    }
  ],
  "blockhash": "000000000000aff46c8ef335d222fa9a7e486efce5e1cba0aa1268ae5e6fc7a4",
  "hex": "010000000c6d64f0db94a47f3e6f74953046cd9a8709049fdd613e8b921e00b0c0e8cbbb742a0000008a47304402201574f3f1a546815cc3b5d950cd3373fffc4d18df6c7a28724c47de8951364c9a02200a21b90a582b89aa2bb38c0b18a8480d45380b31f390076101fa611173c7d9b80141045fcc4fcb65255fe4017fa9c590bbc0a72cd1c8384f04ea36d3c0fbd0769ead2b587d1169fae5bfb2f9281e3f6fc7d645fb79e709d96705d015b2261cb9b58677ffffffff55df16b3afad3e53ca304190b54a025648020c5d2d9768b65ba3b1955d7bff12000000008b483045022100cfcc276042ee8705f53da7f6236a4efd4932caa639cf1c7329183c1ba62fe31f0220054535ee75f924fe23835662339b6cf3688eba1c99970b99a8304b030df770760141045fcc4fcb65255fe4017fa9c590bbc0a72cd1c8384f04ea36d3c0fbd0769ead2b587d1169fae5bfb2f9281e3f6fc7d645fb79e709d96705d015b2261cb9b58677ffffffffa1198e598db1b58abfd53d0b00f290678ed7596cb5ca4be73bd11e4b3ce253e7000000008b483045022012584d180b6fefee2bc18a18cad331afcf0195ad59f60f3efe6f850abb34e2dc022100cf7e9cc17ce99911fd05b0d5d02aebf26bb12611e231e67bc9c0cf25eaf8d0900141045fcc4fcb65255fe4017fa9c590bbc0a72cd1c8384f04ea36d3c0fbd0769ead2b587d1169fae5bfb2f9281e3f6fc7d645fb79e709d96705d015b2261cb9b58677ffffffffc4fa1f8ddca3ba985d822a8b716847a76b50cd3c1dd608cfe8caaed8d5b7719e000000008a47304402207bc8706307cf1a8964f80e9ddf8a6536696924b4bfbef4be21b2d5fa39f5b3ee0220203778a11cfeda26397cc463244f0c45440658be695f210356a9b0b43aa0ac220141045fcc4fcb65255fe4017fa9c590bbc0a72cd1c8384f04ea36d3c0fbd0769ead2b587d1169fae5bfb2f9281e3f6fc7d645fb79e709d96705d015b2261cb9b58677ffffffff07a02bee4fa862d2af4f1557e4d4bd3f153ad340742de4918efa94de21f522f1000000008c493046022100899e94fc2f7cf624dcaf702f721a2a0681d2b5cb89ffa8ae8dbb34f8464d04bc022100f88bd144ebc805ff4be17adc2d683e1e1fcd4f37993bca5df41287bc824c058b0141045fcc4fcb65255fe4017fa9c590bbc0a72cd1c8384f04ea36d3c0fbd0769ead2b587d1169fae5bfb2f9281e3f6fc7d645fb79e709d96705d015b2261cb9b58677ffffffff2ad27d405420a5e2939100bf9f78db5aacd50920622f0cee2db0da4367327253000000008b483045022100bba3b29e92d1ab02e48cadbd8c9ba7bd49540042daabdddd71b23de6c45717c3022069229f190e8644db52b2a0f494592da826b380b4b7e70223cedd64657daa05410141045fcc4fcb65255fe4017fa9c590bbc0a72cd1c8384f04ea36d3c0fbd0769ead2b587d1169fae5bfb2f9281e3f6fc7d645fb79e709d96705d015b2261cb9b58677ffffffff034a610fcd65614e667676f36f83ea3abf60f65f55bd545884aaae3bd71e4fcd000000008c493046022100f48d21e7bd5def521f299e91589c010e3442e181404957e872e7a8771c7183a1022100f5e864e2a3d64405c4e0b1fa0322676d79d737ff6873305a74ad2691a1af2d5b0141045fcc4fcb65255fe4017fa9c590bbc0a72cd1c8384f04ea36d3c0fbd0769ead2b587d1169fae5bfb2f9281e3f6fc7d645fb79e709d96705d015b2261cb9b58677ffffffffba480f39e9ba1f074b574a1710095b886ec8e7bf70ca1df9820b63f282a10f6e000000008c493046022100822b447150cc494a33b073e5b8b5ec2eeb060441f1b8021d67185ec11835456e022100fdcf151ffefb254bea99f6119a13381198b49b433168d0d119db4437cc3fcef30141045fcc4fcb65255fe4017fa9c590bbc0a72cd1c8384f04ea36d3c0fbd0769ead2b587d1169fae5bfb2f9281e3f6fc7d645fb79e709d96705d015b2261cb9b58677ffffffff8b5a36e046f2c189dee180cc0db5c47794724345cd13dc2bd8e24354876ba79d000000008a473044022047e91217b9933ce7494f5c03e284f05a493ecd8a91b6ae970dc38aac7fa5e5c1022056d8ae0d4ca1513db79a843eab835f69fc7b9b025ffd215dac3da89a3ad3f7e70141045fcc4fcb65255fe4017fa9c590bbc0a72cd1c8384f04ea36d3c0fbd0769ead2b587d1169fae5bfb2f9281e3f6fc7d645fb79e709d96705d015b2261cb9b58677ffffffff2ecf5a8ff4779d35ffbba5dbac999af2e8adb7fa93a8c0c026b987942b93ff14000000008c493046022100de8227f0c6516fa41b95c3e0d58178a238e1ae9bbf3273e8efd223fcf5ea0ba7022100a75cc7248f66a6810d3d46680dfcc562e463716f5d6efa14948717117df61b170141045fcc4fcb65255fe4017fa9c590bbc0a72cd1c8384f04ea36d3c0fbd0769ead2b587d1169fae5bfb2f9281e3f6fc7d645fb79e709d96705d015b2261cb9b58677ffffffffb4dea4087023983aa8e2d7a1783bd4a6ba8ef638c8b07943724881c386be24b6000000008b4830450220530a69d950594de1a34afe2cc202f46d4ee7d2385ad797aaa8c5b379fe6e1a6202210082642ebed59ee7117e07f2e2e41bca8832e0f40afdbb1c7ac4d759ede13bc64a0141045fcc4fcb65255fe4017fa9c590bbc0a72cd1c8384f04ea36d3c0fbd0769ead2b587d1169fae5bfb2f9281e3f6fc7d645fb79e709d96705d015b2261cb9b58677ffffffff78526cc5a4f4e5adbadbbf57500f35921ca9e70c415e138c6591a210122dc451000000008b483045022100f0f06361f6c28da30c3eae1303fd2ed12200c6b0c5c11f1251c1c3ac0245055802200dbbc0f3dafdd8668812db3d4224154ff9221f03277da7feab69b419172c34af0141045fcc4fcb65255fe4017fa9c590bbc0a72cd1c8384f04ea36d3c0fbd0769ead2b587d1169fae5bfb2f9281e3f6fc7d645fb79e709d96705d015b2261cb9b58677ffffffff010001970d000000001976a91483e935994a42742e7b9e2213f37ea81c45751ef988ac00000000"
}