{
  "txid": "5712f9dbd05ec0cbc027f87c5bf7b9e756185b6c7ee6aa776df34b91352a8aa7",
  "hash": "5712f9dbd05ec0cbc027f87c5bf7b9e756185b6c7ee6aa776df34b91352a8aa7",
  "version": 1,
  "size": 621,
  "vsize": 621,
  "weight": 2484,
  "locktime": 0,
  "vin": [
    {
      "txid": "c228deab80672b18327c4fe3c8d118c8559876fcd07726745ef31e63177f9e27",
      "vout": 1,
      "scriptSig": {
        "asm": "3046022100feb8df3e5e660d2472e160b3414f514e839a9cec1443342486083c79768422f8022100eff1a4e58972e8f838a5b223e2055dbf0cd937407fd54afbacfe76d6eaa03278[ALL] 040cc8811da8ff59590dd4b064c346c31f429b330c90ed81e2f1e3f90cce3ce0e278157668246c4f8bbf5620b0b1d63f5e59e914dc28f77d102def97e237dc2fb4",
        "hex": "493046022100feb8df3e5e660d2472e160b3414f514e839a9cec1443342486083c79768422f8022100eff1a4e58972e8f838a5b223e2055dbf0cd937407fd54afbacfe76d6eaa032780141040cc8811da8ff59590dd4b064c346c31f429b330c90ed81e2f1e3f90cce3ce0e278157668246c4f8bbf5620b0b1d63f5e59e914dc28f77d102def97e237dc2fb4"
      },
      "sequence": 4294967295
    },
    {
      "txid": "0370885a45b5f232e92e5dfe86f9a58f7d23cbe4ce5a75bb2e279d7c755b9049",
      "vout": 1,
      "scriptSig": {
        "asm": "3046022100dbd8c5ade2dc61f281f97a58dcd6d5a89eed6881a4d39458b92539383202fad90221009bdd961defc4cf60ff3c1bf0fa035231c6a60efdde91e711c4ca23bc82100c9c[ALL] 040cc8811da8ff59590dd4b064c346c31f429b330c90ed81e2f1e3f90cce3ce0e278157668246c4f8bbf5620b0b1d63f5e59e914dc28f77d102def97e237dc2fb4",
        "hex": "493046022100dbd8c5ade2dc61f281f97a58dcd6d5a89eed6881a4d39458b92539383202fad90221009bdd961defc4cf60ff3c1bf0fa035231c6a60efdde91e711c4ca23bc82100c9c0141040cc8811da8ff59590dd4b064c346c31f429b330c90ed81e2f1e3f90cce3ce0e278157668246c4f8bbf5620b0b1d63f5e59e914dc28f77d102def97e237dc2fb4"
      },
      "sequence": 4294967295
    },
    {
      "txid": "51c42d1210a291658c135e410ce7a91c92350f5057bfdbbaade5f4a4c56c5278",
      "vout": 16,
      "scriptSig": {
        "asm": "30460221009028d8a206fa556f80581bb165ba50ea8955d0f94f49d84006f6acdb03f4e11c022100a030e82095ebdb78ee33a8d1fdf573309065907513cfc5670cb911e3a0148ec0[ALL] 040cc8811da8ff59590dd4b064c346c31f429b330c90ed81e2f1e3f90cce3ce0e278157668246c4f8bbf5620b0b1d63f5e59e914dc28f77d102def97e237dc2fb4",
        "hex": "4930460221009028d8a206fa556f80581bb165ba50ea8955d0f94f49d84006f6acdb03f4e11c022100a030e82095ebdb78ee33a8d1fdf573309065907513cfc5670cb911e3a0148ec00141040cc8811da8ff59590dd4b064c346c31f429b330c90ed81e2f1e3f90cce3ce0e278157668246c4f8bbf5620b0b1d63f5e59e914dc28f77d102def97e237dc2fb4"
      },
      "sequence": 4294967295
    }
  ],
  "vout": [
    {
      "value": 0.17000000,
      "n": 0,
      "scriptPubKey": {
        "asm": "OP_DUP OP_HASH160 2e3c0b608e7f2dfb04a26a94ee028154b1329d39 OP_EQUALVERIFY OP_CHECKSIG",
        "hex": "76a9142e3c0b608e7f2dfb04a26a94ee028154b1329d3988ac",
        "address": "15DU1nYL3kkpgwppUNwTejCfAsVELaE1J3",
        "type": "pubkeyhash"
      }
    },
    {
      "value": 2.00000000,
      "n": 1,
      "scriptPubKey": {
        "asm": "OP_DUP OP_HASH160 8322607e323c2a2d51c0734e01cf90b426feadc9 OP_EQUALVERIFY OP_CHECKSIG",
        "hex": "76a9148322607e323c2a2d51c0734e01cf90b426feadc988ac",
        "address": "1CxNhgU2wNBz8LAGRcEo8EDXeCL51QUNLK",
        "type": "pubkeyhash"
      }
    }
  ],
  "blockhash": "000000000000841937285b79b178206fb74fd173973ddf3a3e8cc91538c36a37",
  "hex": "0100000003279e7f17631ef35e742677d0fc769855c818d1c8e34f7c32182b6780abde28c2010000008c493046022100feb8df3e5e660d2472e160b3414f514e839a9cec1443342486083c79768422f8022100eff1a4e58972e8f838a5b223e2055dbf0cd937407fd54afbacfe76d6eaa032780141040cc8811da8ff59590dd4b064c346c31f429b330c90ed81e2f1e3f90cce3ce0e278157668246c4f8bbf5620b0b1d63f5e59e914dc28f77d102def97e237dc2fb4ffffffff49905b757c9d272ebb755acee4cb237d8fa5f986fe5d2ee932f2b5455a887003010000008c493046022100dbd8c5ade2dc61f281f97a58dcd6d5a89eed6881a4d39458b92539383202fad90221009bdd961defc4cf60ff3c1bf0fa035231c6a60efdde91e711c4ca23bc82100c9c0141040cc8811da8ff59590dd4b064c346c31f429b330c90ed81e2f1e3f90cce3ce0e278157668246c4f8bbf5620b0b1d63f5e59e914dc28f77d102def97e237dc2fb4ffffffff78526cc5a4f4e5adbadbbf57500f35921ca9e70c415e138c6591a210122dc451100000008c4930460221009028d8a206fa556f80581bb165ba50ea8955d0f94f49d84006f6acdb03f4e11c022100a030e82095ebdb78ee33a8d1fdf573309065907513cfc5670cb911e3a0148ec00141040cc8811da8ff59590dd4b064c346c31f429b330c90ed81e2f1e3f90cce3ce0e278157668246c4f8bbf5620b0b1d63f5e59e914dc28f77d102def97e237dc2fb4ffffffff0240660301000000001976a9142e3c0b608e7f2dfb04a26a94ee028154b1329d3988ac00c2eb0b000000001976a9148322607e323c2a2d51c0734e01cf90b426feadc988ac00000000"
}