{
  "txid": "7c5d726c428f05bca4c52fc2bca5f52e56f395158b77df7285586180d3091f2f",
  "hash": "7c5d726c428f05bca4c52fc2bca5f52e56f395158b77df7285586180d3091f2f",
  "version": 1,
  "size": 618,
  "vsize": 618,
  "weight": 2472,
  "locktime": 0,
  "vin": [
    {
      "txid": "0c8f61d8a2a342a4bc9d09b70f0f6c0c582ac0fa55b429de3109ba2778eabaee",
      "vout": 0,
      "scriptSig": {
        "asm": "3045022100b4066d5a326bc45e4c5e1290a6ce80bb42d46abce22aa67d8186032b6b84a13a02200ed745644f257a3a890398d12049cea69ce5ddf07846ceaf2da9eaf79e17904a[ALL] 04d316aaf2d4e679838814c12d0f132782b844a3eaefb8bd1889645c6dc160a95ab19fe70c0abed576f9f91266e7f12c0c027680277094b839dc627bb3dfef5d68",
        "hex": "483045022100b4066d5a326bc45e4c5e1290a6ce80bb42d46abce22aa67d8186032b6b84a13a02200ed745644f257a3a890398d12049cea69ce5ddf07846ceaf2da9eaf79e17904a014104d316aaf2d4e679838814c12d0f132782b844a3eaefb8bd1889645c6dc160a95ab19fe70c0abed576f9f91266e7f12c0c027680277094b839dc627bb3dfef5d68"
      },
      "sequence": 4294967295
    },
    {
      "txid": "dd082fec26053f953d0a56b14fbf3c34b965330bc94624c3f4c26af328a75031",
      "vout": 0,
      "scriptSig": {
        "asm": "3045022100cff46745b6753eef3c8e13cba4c895412f35a039867e86f388392cf7bd064cff022009d8b837dcce08c938db5699c90bf3c72749a741e17c391afac03c8e4e6eef4a[ALL] 04092927eedc1decb5fd535eba846168c7a664502ff37ba96c39749b85cf85deb295165aacae6fb55a01d8410509838ed1c04cba9489321c0a8d5590286905d5f1",
        "hex": "483045022100cff46745b6753eef3c8e13cba4c895412f35a039867e86f388392cf7bd064cff022009d8b837dcce08c938db5699c90bf3c72749a741e17c391afac03c8e4e6eef4a014104092927eedc1decb5fd535eba846168c7a664502ff37ba96c39749b85cf85deb295165aacae6fb55a01d8410509838ed1c04cba9489321c0a8d5590286905d5f1"
      },
      "sequence": 4294967295
    },
    {
      "txid": "2a83beb91af81ade994aca8fb24312b84a354b6feddca5ec8e5ded4aec950553",
      "vout": 0,
      "scriptSig": {
        "asm": "304502204415f00ceab0a51c0fd9a2c8f2551ab249a20b538bb69c42918a4f598137717e022100846e1cea2d1f019489c561069be0e925e91cac48d906f6eb57a34a2ad14646c7[ALL] 04f0e6c8df8e5bb28b1875b46a7b2d25f0e5c8db23938665206c2b808bbbc6f42f9bb9b1c0d48d77cf9fd0cadd367616e708d68c779cc3acc70845468bcfec9a14",
        "hex": "48304502204415f00ceab0a51c0fd9a2c8f2551ab249a20b538bb69c42918a4f598137717e022100846e1cea2d1f019489c561069be0e925e91cac48d906f6eb57a34a2ad14646c7014104f0e6c8df8e5bb28b1875b46a7b2d25f0e5c8db23938665206c2b808bbbc6f42f9bb9b1c0d48d77cf9fd0cadd367616e708d68c779cc3acc70845468bcfec9a14"
      },
      "sequence": 4294967295
    }
  ],
  "vout": [
    {
      "value": 0.10000000,
      "n": 0,
      "scriptPubKey": {
        "asm": "OP_DUP OP_HASH160 a9a653206ea4d1994c54e2e011ac04edb1a4dd89 OP_EQUALVERIFY OP_CHECKSIG",
        "hex": "76a914a9a653206ea4d1994c54e2e011ac04edb1a4dd8988ac",
        "address": "1GU2Ss4GoHNFLJCHfpfYoVJDg3D3gyFCBu",
        "type": "pubkeyhash"
      }
    },
    {
      "value": 3.40000000,
      "n": 1,
      "scriptPubKey": {
        "asm": "OP_DUP OP_HASH160 01ca4f2f9b3fd04ff7b24302a189d4d90cd2c5b1 OP_EQUALVERIFY OP_CHECKSIG",
        "hex": "76a91401ca4f2f9b3fd04ff7b24302a189d4d90cd2c5b188ac",
        "address": "1AU2tcNk9iPECpKBtNrC9RVgeqNVfWxyt",
        "type": "pubkeyhash"
      }
    }
  ],
  "blockhash": "00000000000063984244d41e8649a870a3cadf11fcee4306c5fe6521183902ca",
  "hex": "0100000003eebaea7827ba0931de29b455fac02a580c6c0f0fb7099dbca442a3a2d8618f0c000000008b483045022100b4066d5a326bc45e4c5e1290a6ce80bb42d46abce22aa67d8186032b6b84a13a02200ed745644f257a3a890398d12049cea69ce5ddf07846ceaf2da9eaf79e17904a014104d316aaf2d4e679838814c12d0f132782b844a3eaefb8bd1889645c6dc160a95ab19fe70c0abed576f9f91266e7f12c0c027680277094b839dc627bb3dfef5d68ffffffff3150a728f36ac2f4c32446c90b3365b9343cbf4fb1560a3d953f0526ec2f08dd000000008b483045022100cff46745b6753eef3c8e13cba4c895412f35a039867e86f388392cf7bd064cff022009d8b837dcce08c938db5699c90bf3c72749a741e17c391afac03c8e4e6eef4a014104092927eedc1decb5fd535eba846168c7a664502ff37ba96c39749b85cf85deb295165aacae6fb55a01d8410509838ed1c04cba9489321c0a8d5590286905d5f1ffffffff530595ec4aed5d8eeca5dced6f4b354ab81243b28fca4a99de1af81ab9be832a000000008b48304502204415f00ceab0a51c0fd9a2c8f2551ab249a20b538bb69c42918a4f598137717e022100846e1cea2d1f019489c561069be0e925e91cac48d906f6eb57a34a2ad14646c7014104f0e6c8df8e5bb28b1875b46a7b2d25f0e5c8db23938665206c2b808bbbc6f42f9bb9b1c0d48d77cf9fd0cadd367616e708d68c779cc3acc70845468bcfec9a14ffffffff0280969800000000001976a914a9a653206ea4d1994c54e2e011ac04edb1a4dd8988ac00fd4314000000001976a91401ca4f2f9b3fd04ff7b24302a189d4d90cd2c5b188ac00000000"
}