{
  "txid": "a78097ac964c50839999742432794f8dba16eccc2365a47be0130f6c657f427a",
  "hash": "a78097ac964c50839999742432794f8dba16eccc2365a47be0130f6c657f427a",
  "version": 1,
  "size": 192,
  "vsize": 192,
  "weight": 768,
  "locktime": 0,
  "vin": [
    {
      "txid": "cbdff7217fa942dd7d60060e6eb68a1b41ac9e593468dd962771d7020e25cfe0",
      "vout": 0,
      "scriptSig": {
        "asm": "304502201059bcb50c9e285074d65ea7aad47dd978a7b6c9d92d0f9fdee2d1f867c28326022100a1d152f2f78cde74d6780b1e95e618cf66b106f9c3011016559144bed45a2899[ALL]",
        "hex": "48304502201059bcb50c9e285074d65ea7aad47dd978a7b6c9d92d0f9fdee2d1f867c28326022100a1d152f2f78cde74d6780b1e95e618cf66b106f9c3011016559144bed45a289901"
      },
      "sequence": 4294967295
    }
  ],
  "vout": [
    {
      "value": 25.00000000,
      "n": 0,
      "scriptPubKey": {
        "asm": "OP_DUP OP_HASH160 47dec19dfde6ddae161a78e552fd2b5f4159cf05 OP_EQUALVERIFY OP_CHECKSIG",
        "hex": "76a91447dec19dfde6ddae161a78e552fd2b5f4159cf0588ac",
        "address": "17Z1q11gXkKNdCXg7FZ9ojnmkkyaiLp86H",
        "type": "pubkeyhash"
      }
    },
    {
      "value": 25.00000000,
      "n": 1,
      "scriptPubKey": {
        "asm": "OP_DUP OP_HASH160 7a867ba441e2553be3a90115b0d602bc4489e9e5 OP_EQUALVERIFY OP_CHECKSIG",
        "hex": "76a9147a867ba441e2553be3a90115b0d602bc4489e9e588ac",
        "address": "1CArYSmQUXnaHyKTHcR6XUknfxXKGQqRbv",
        "type": "pubkeyhash"
      }
    }
  ],
  "blockhash": "000000000000aff46c8ef335d222fa9a7e486efce5e1cba0aa1268ae5e6fc7a4",
  "hex": "0100000001e0cf250e02d7712796dd6834599eac411b8ab66e0e06607ddd42a97f21f7dfcb000000004948304502201059bcb50c9e285074d65ea7aad47dd978a7b6c9d92d0f9fdee2d1f867c28326022100a1d152f2f78cde74d6780b1e95e618cf66b106f9c3011016559144bed45a289901ffffffff0200f90295000000001976a91447dec19dfde6ddae161a78e552fd2b5f4159cf0588ac00f90295000000001976a9147a867ba441e2553be3a90115b0d602bc4489e9e588ac00000000"
}