{
  "txid": "b721a43b7ff9b220cb0d48cadc65baaf962fe4d2f774780805f2760a40a8808e",
  "hash": "b721a43b7ff9b220cb0d48cadc65baaf962fe4d2f774780805f2760a40a8808e",
  "version": 1,
  "size": 257,
  "vsize": 257,
  "weight": 1028,
  "locktime": 0,
  "vin": [
    {
      "txid": "5a7512668a3fc5546657b42cd1be64a30bb3a5946a92c859b3c283d825f23ee6",
      "vout": 1,
      "scriptSig": {
        "asm": "3044022077167cab8fe14b07067b7cf9d0d027abf54c1449c3a309ad6e50cf9aba9048f10220747b829eeac295cbba21ab8c2626e06ff8804094ad355d57dc388e85f2b21f29[ALL] 04e581822e324e45e6fd80b8c12e0a4a6c38e103cc469a63b9d78ac9f7654833a147fc0419bf17e6f33c67df4be36ce2af08393badfd69980989640693d3340367",
        "hex": "473044022077167cab8fe14b07067b7cf9d0d027abf54c1449c3a309ad6e50cf9aba9048f10220747b829eeac295cbba21ab8c2626e06ff8804094ad355d57dc388e85f2b21f29014104e581822e324e45e6fd80b8c12e0a4a6c38e103cc469a63b9d78ac9f7654833a147fc0419bf17e6f33c67df4be36ce2af08393badfd69980989640693d3340367"
      },
      "sequence": 4294967295
    }
  ],
  "vout": [
    {
      "value": 22.85000000,
      "n": 0,
      "scriptPubKey": {
        "asm": "OP_DUP OP_HASH160 5e8723440a354fd9a0d9901aced5990f79be6028 OP_EQUALVERIFY OP_CHECKSIG",
        "hex": "76a9145e8723440a354fd9a0d9901aced5990f79be602888ac",
        "address": "19cpQZwpyzBxGvGusF2jruqQtHuNPyb1Mw",
        "type": "pubkeyhash"
      }
    },
    {
      "value": 0.03000000,
      "n": 1,
      "scriptPubKey": {
        "asm": "OP_DUP OP_HASH160 1f7bd341eaa059390d14b80373c093eb2a2191ab OP_EQUALVERIFY OP_CHECKSIG",
        "hex": "76a9141f7bd341eaa059390d14b80373c093eb2a2191ab88ac",
        "address": "13sUHUW8G23BLQEKFwVMf5cKUkiSuFK8XC",
        "type": "pubkeyhash"
      }
    }
  ],
  "blockhash": "000000000000aa19a05550e1232120879182afb79244d0fa1853443629823acc",
  "hex": "0100000001e63ef225d883c2b359c8926a94a5b30ba364bed12cb4576654c53f8a6612755a010000008a473044022077167cab8fe14b07067b7cf9d0d027abf54c1449c3a309ad6e50cf9aba9048f10220747b829eeac295cbba21ab8c2626e06ff8804094ad355d57dc388e85f2b21f29014104e581822e324e45e6fd80b8c12e0a4a6c38e103cc469a63b9d78ac9f7654833a147fc0419bf17e6f33c67df4be36ce2af08393badfd69980989640693d3340367ffffffff0240553288000000001976a9145e8723440a354fd9a0d9901aced5990f79be602888acc0c62d00000000001976a9141f7bd341eaa059390d14b80373c093eb2a2191ab88ac00000000"
}