{
  "txid": "e8a17a8973a981a6446c7ea56ca66e861ae92acf248acc721fd26306c1be26ea",
  "hash": "e8a17a8973a981a6446c7ea56ca66e861ae92acf248acc721fd26306c1be26ea",
  "version": 1,
  "size": 799,
  "vsize": 799,
  "weight": 3196,
  "locktime": 0,
  "vin": [
    {
      "txid": "8a3d018d86769df336911721582e9ec05edec2e7bb01ce675c30998fb3aaf8e5",
      "vout": 0,
      "scriptSig": {
        "asm": "3046022100c18bb70ae9bd5a5544f4842aa7df0c85f8fe7813983818cb174a929bc364ff7f022100a5e3f4fe60fc60c7cca0ae590d3c5278696e431c4e857fc42fc9aa0bf02495d3[ALL] 042963864fd7143b76b80021748a5b891e07e4f6e8e330f701a03800228668562d4903fc02174258970f4932b6b8af79797e6d4a84ff5d783f9e61859ebed164d0",
        "hex": "493046022100c18bb70ae9bd5a5544f4842aa7df0c85f8fe7813983818cb174a929bc364ff7f022100a5e3f4fe60fc60c7cca0ae590d3c5278696e431c4e857fc42fc9aa0bf02495d30141042963864fd7143b76b80021748a5b891e07e4f6e8e330f701a03800228668562d4903fc02174258970f4932b6b8af79797e6d4a84ff5d783f9e61859ebed164d0"
      },
      "sequence": 4294967295
    },
    {
      "txid": "8a3d018d86769df336911721582e9ec05edec2e7bb01ce675c30998fb3aaf8e5",
      "vout": 1,
      "scriptSig": {
        "asm": "304502205f8c0fd4277b346f0050a061c8dfefa947bf5b4cf628f007f4272a7599dacf880221008235fbdd064da637c15b28286c85220b72c14bb45dcf26bcefd424a99303299c[ALL] 04856086f78600160cb92b2d908667cee065b602c232a08340e115f4c055b52c896b63b86f0c9cc09c9e03873f06cb3d84800e9901f8df425dfd0adc2de0c06ed3",
        "hex": "48304502205f8c0fd4277b346f0050a061c8dfefa947bf5b4cf628f007f4272a7599dacf880221008235fbdd064da637c15b28286c85220b72c14bb45dcf26bcefd424a99303299c014104856086f78600160cb92b2d908667cee065b602c232a08340e115f4c055b52c896b63b86f0c9cc09c9e03873f06cb3d84800e9901f8df425dfd0adc2de0c06ed3"
      },
      "sequence": 4294967295
    },
    {
      "txid": "ac702a078026aea7b710cbd30264b4be1ebb6491f32bb6270e19146056f7cf46",
      "vout": 0,
      "scriptSig": {
        "asm": "304502200f61c3300190048d159dc26bd6b0b0953ad32a400211b47665ba73c34d2f4435022100f07e7c5b1d8b84e95eaee8a6a6a04b78bece611742748fe6a7cc4c0aa1aa58c7[ALL] 046af3b5c4d2aaa52dc6b9a4583866a47003111fa7804d74c079dd4cb199cc5dd20401cc856fd9d666f99fe7680c3b81530fe4e0821d248b270ea43e3b00dea409",
        "hex": "48304502200f61c3300190048d159dc26bd6b0b0953ad32a400211b47665ba73c34d2f4435022100f07e7c5b1d8b84e95eaee8a6a6a04b78bece611742748fe6a7cc4c0aa1aa58c70141046af3b5c4d2aaa52dc6b9a4583866a47003111fa7804d74c079dd4cb199cc5dd20401cc856fd9d666f99fe7680c3b81530fe4e0821d248b270ea43e3b00dea409"
      },
      "sequence": 4294967295
    },
    {
      "txid": "ac702a078026aea7b710cbd30264b4be1ebb6491f32bb6270e19146056f7cf46",
      "vout": 1,
      "scriptSig": {
        "asm": "3045022100d56228ee85eb4983d17600d2f7fec18849040514a43c830790862917c446ff93022032a09a69b932794ca79147fa1999777692f63adbb08c1be167d468bffe91051a[ALL] 04dce6e04268ee20c9530dab4e411632f9dd4429e179d07a2be2aed140e14fb009078d075cd98ee51cd7402772911232c08204f3209c5f147623f8e18b927d91d8",
        "hex": "483045022100d56228ee85eb4983d17600d2f7fec18849040514a43c830790862917c446ff93022032a09a69b932794ca79147fa1999777692f63adbb08c1be167d468bffe91051a014104dce6e04268ee20c9530dab4e411632f9dd4429e179d07a2be2aed140e14fb009078d075cd98ee51cd7402772911232c08204f3209c5f147623f8e18b927d91d8"
      },
      "sequence": 4294967295
    }
  ],
  "vout": [
    {
      "value": 6.54000000,
      "n": 0,
      "scriptPubKey": {
        "asm": "OP_DUP OP_HASH160 5b63c7aff6ea68f2b134634026ac5715ce528e5e OP_EQUALVERIFY OP_CHECKSIG",
        "hex": "76a9145b63c7aff6ea68f2b134634026ac5715ce528e5e88ac",
        "address": "19LE2J5iqT3kFuWR8MjnTbw815imjkxHCw",
        "type": "pubkeyhash"
      }
    },
    {
      "value": 293.00000000,
      "n": 1,
      "scriptPubKey": {
        "asm": "OP_DUP OP_HASH160 b9534fedcf04848e7dee3c20820e6d3d7b6171ac OP_EQUALVERIFY OP_CHECKSIG",
        "hex": "76a914b9534fedcf04848e7dee3c20820e6d3d7b6171ac88ac",
        "address": "1Htup89rpVz9cizq6d9devZi1AQTJSmsKm",
        "type": "pubkeyhash"
      }
    }
  ],
  "blockhash": "00000000000090f953d084378410e7e9d911d3867c78a0a8ce38dab7b666002c",
  "hex": "0100000004e5f8aab38f99305c67ce01bbe7c2de5ec09e2e5821179136f39d76868d013d8a000000008c493046022100c18bb70ae9bd5a5544f4842aa7df0c85f8fe7813983818cb174a929bc364ff7f022100a5e3f4fe60fc60c7cca0ae590d3c5278696e431c4e857fc42fc9aa0bf02495d30141042963864fd7143b76b80021748a5b891e07e4f6e8e330f701a03800228668562d4903fc02174258970f4932b6b8af79797e6d4a84ff5d783f9e61859ebed164d0ffffffffe5f8aab38f99305c67ce01bbe7c2de5ec09e2e5821179136f39d76868d013d8a010000008b48304502205f8c0fd4277b346f0050a061c8dfefa947bf5b4cf628f007f4272a7599dacf880221008235fbdd064da637c15b28286c85220b72c14bb45dcf26bcefd424a99303299c014104856086f78600160cb92b2d908667cee065b602c232a08340e115f4c055b52c896b63b86f0c9cc09c9e03873f06cb3d84800e9901f8df425dfd0adc2de0c06ed3ffffffff46cff7566014190e27b62bf39164bb1ebeb46402d3cb10b7a7ae2680072a70ac000000008b48304502200f61c3300190048d159dc26bd6b0b0953ad32a400211b47665ba73c34d2f4435022100f07e7c5b1d8b84e95eaee8a6a6a04b78bece611742748fe6a7cc4c0aa1aa58c70141046af3b5c4d2aaa52dc6b9a4583866a47003111fa7804d74c079dd4cb199cc5dd20401cc856fd9d666f99fe7680c3b81530fe4e0821d248b270ea43e3b00dea409ffffffff46cff7566014190e27b62bf39164bb1ebeb46402d3cb10b7a7ae2680072a70ac010000008b483045022100d56228ee85eb4983d17600d2f7fec18849040514a43c830790862917c446ff93022032a09a69b932794ca79147fa1999777692f63adbb08c1be167d468bffe91051a014104dce6e04268ee20c9530dab4e411632f9dd4429e179d07a2be2aed140e14fb009078d075cd98ee51cd7402772911232c08204f3209c5f147623f8e18b927d91d8ffffffff02803ffb26000000001976a9145b63c7aff6ea68f2b134634026ac5715ce528e5e88ac00856ad2060000001976a914b9534fedcf04848e7dee3c20820e6d3d7b6171ac88ac00000000"
}