{
  "txid": "e4192b3d45885bed8e0a1b7f35d1ee8ff38702ba6314675987a3f78d6fee0de6",
  "hash": "e4192b3d45885bed8e0a1b7f35d1ee8ff38702ba6314675987a3f78d6fee0de6",
  "version": 1,
  "size": 258,
  "vsize": 258,
  "weight": 1032,
  "locktime": 0,
  "vin": [
    {
      "txid": "c44779e075eb31d6915c993596d7e9b4415e31ec53f6d70b83dc8ef37f98b884",
      "vout": 1,
      "scriptSig": {
        "asm": "3045022058ff357ccc9fc79d692a87da2a544f1518a268df45f877e0a0647ba73eaf8068022100c97121da4c6a6f0edc03c8fee39e41a9290e8c02d677457754529ff2ed1ac090[ALL] 04c0ad1a88de08800e107c07873be411fc126b2b3defc111686f003eb10786f900ff83537ee961cbeac5a50552d0aa85893eee00f4d39ec6c10c5eac37018fcef7",
        "hex": "483045022058ff357ccc9fc79d692a87da2a544f1518a268df45f877e0a0647ba73eaf8068022100c97121da4c6a6f0edc03c8fee39e41a9290e8c02d677457754529ff2ed1ac090014104c0ad1a88de08800e107c07873be411fc126b2b3defc111686f003eb10786f900ff83537ee961cbeac5a50552d0aa85893eee00f4d39ec6c10c5eac37018fcef7"
      },
      "sequence": 4294967295
    }
  ],
  "vout": [
    {
      "value": 0.03000000,
      "n": 0,
      "scriptPubKey": {
        "asm": "OP_DUP OP_HASH160 1f7bd341eaa059390d14b80373c093eb2a2191ab OP_EQUALVERIFY OP_CHECKSIG",
        "hex": "76a9141f7bd341eaa059390d14b80373c093eb2a2191ab88ac",
        "address": "13sUHUW8G23BLQEKFwVMf5cKUkiSuFK8XC",
        "type": "pubkeyhash"
      }
    },
    {
      "value": 258.22000000,
      "n": 1,
      "scriptPubKey": {
        "asm": "OP_DUP OP_HASH160 80507c8b975e9861ccf6eb14afaec473c44c189b OP_EQUALVERIFY OP_CHECKSIG",
        "hex": "76a91480507c8b975e9861ccf6eb14afaec473c44c189b88ac",
        "address": "1ChTuraDHdEjT66BtojKkGaPif8Ufp9fzT",
        "type": "pubkeyhash"
      }
    }
  ],
  "blockhash": "0000000000005de3559bba3f403272916e53be98e8982201a5573b0ebc25737d",
  "hex": "010000000184b8987ff38edc830bd7f653ec315e41b4e9d79635995c91d631eb75e07947c4010000008b483045022058ff357ccc9fc79d692a87da2a544f1518a268df45f877e0a0647ba73eaf8068022100c97121da4c6a6f0edc03c8fee39e41a9290e8c02d677457754529ff2ed1ac090014104c0ad1a88de08800e107c07873be411fc126b2b3defc111686f003eb10786f900ff83537ee961cbeac5a50552d0aa85893eee00f4d39ec6c10c5eac37018fcef7ffffffff02c0c62d00000000001976a9141f7bd341eaa059390d14b80373c093eb2a2191ab88ac80731c03060000001976a91480507c8b975e9861ccf6eb14afaec473c44c189b88ac00000000"
}