{
  "txid": "f1905aa61e6b2c74f66789749e8fc148a84486b5b99c4c6c2261c4f2956de8ae",
  "hash": "f1905aa61e6b2c74f66789749e8fc148a84486b5b99c4c6c2261c4f2956de8ae",
  "version": 1,
  "size": 258,
  "vsize": 258,
  "weight": 1032,
  "locktime": 0,
  "vin": [
    {
      "txid": "b721a43b7ff9b220cb0d48cadc65baaf962fe4d2f774780805f2760a40a8808e",
      "vout": 0,
      "scriptSig": {
        "asm": "3045022007e29f51a13ede8d5807dc1ff390f84ccf167e9e86923c2e0138be0fe1826ab3022100bbc0293002bad329c749769e190285754e3f29b275054bb6a0529046ccb3eca6[ALL] 0457b748d6156a0a244a12bd18ebd87a162bfc0410e291ee1e11ddf8d7ab51718ffdcb8366af0a84ccadc4433cb5425d34060cd3702de0fcabc7599e01a81b2f89",
        "hex": "483045022007e29f51a13ede8d5807dc1ff390f84ccf167e9e86923c2e0138be0fe1826ab3022100bbc0293002bad329c749769e190285754e3f29b275054bb6a0529046ccb3eca601410457b748d6156a0a244a12bd18ebd87a162bfc0410e291ee1e11ddf8d7ab51718ffdcb8366af0a84ccadc4433cb5425d34060cd3702de0fcabc7599e01a81b2f89"
      },
      "sequence": 4294967295
    }
  ],
  "vout": [
    {
      "value": 0.03000000,
      "n": 0,
      "scriptPubKey": {
        "asm": "OP_DUP OP_HASH160 1f7bd341eaa059390d14b80373c093eb2a2191ab OP_EQUALVERIFY OP_CHECKSIG",
        "hex": "76a9141f7bd341eaa059390d14b80373c093eb2a2191ab88ac",
        "address": "13sUHUW8G23BLQEKFwVMf5cKUkiSuFK8XC",
        "type": "pubkeyhash"
      }
    },
    {
      "value": 22.82000000,
      "n": 1,
      "scriptPubKey": {
        "asm": "OP_DUP OP_HASH160 c611c24ce824dde468d381f9db5db08b567428b9 OP_EQUALVERIFY OP_CHECKSIG",
        "hex": "76a914c611c24ce824dde468d381f9db5db08b567428b988ac",
        "address": "1K4J4u7E9bxYXSQHatYik8xZT1UVXStoyU",
        "type": "pubkeyhash"
      }
    }
  ],
  "blockhash": "00000000000044f0f93afa970a7b95c91899a2b53040d449fdde7ee88856ce7d",
  "hex": "01000000018e80a8400a76f205087874f7d2e42f96afba65dcca480dcb20b2f97f3ba421b7000000008b483045022007e29f51a13ede8d5807dc1ff390f84ccf167e9e86923c2e0138be0fe1826ab3022100bbc0293002bad329c749769e190285754e3f29b275054bb6a0529046ccb3eca601410457b748d6156a0a244a12bd18ebd87a162bfc0410e291ee1e11ddf8d7ab51718ffdcb8366af0a84ccadc4433cb5425d34060cd3702de0fcabc7599e01a81b2f89ffffffff02c0c62d00000000001976a9141f7bd341eaa059390d14b80373c093eb2a2191ab88ac808e0488000000001976a914c611c24ce824dde468d381f9db5db08b567428b988ac00000000"
}