{
  "txid": "f4992f88e3a97ec9b6953ba4b4e3d8a14940dc7a6537ac322f05db46c42b0f66",
  "hash": "f4992f88e3a97ec9b6953ba4b4e3d8a14940dc7a6537ac322f05db46c42b0f66",
  "version": 1,
  "size": 258,
  "vsize": 258,
  "weight": 1032,
  "locktime": 0,
  "vin": [
    {
      "txid": "9331b5a24f551a6218ab000086af06d2e0508bf8526c8c4827ab9a8dcf84a171",
      "vout": 0,
      "scriptSig": {
        "asm": "30450220499111c9ae43a3a5bef14d8bcdce86add5682aa334d6f86d3faae3b97dd68350022100f7bc9934be037f844574491fd51676ecf7b9e12bdf5a7f3c9f2f3819a4148bcd[ALL] 048c10750514d80f387d7941210b9170cbf662d97a86791b84c342392c016a148908f6d5dfcb75504dac7b43b245011d78ebb40ba00799a2e410227782062d883b",
        "hex": "4830450220499111c9ae43a3a5bef14d8bcdce86add5682aa334d6f86d3faae3b97dd68350022100f7bc9934be037f844574491fd51676ecf7b9e12bdf5a7f3c9f2f3819a4148bcd0141048c10750514d80f387d7941210b9170cbf662d97a86791b84c342392c016a148908f6d5dfcb75504dac7b43b245011d78ebb40ba00799a2e410227782062d883b"
      },
      "sequence": 4294967295
    }
  ],
  "vout": [
    {
      "value": 0.03000000,
      "n": 0,
      "scriptPubKey": {
        "asm": "OP_DUP OP_HASH160 1f7bd341eaa059390d14b80373c093eb2a2191ab OP_EQUALVERIFY OP_CHECKSIG",
        "hex": "76a9141f7bd341eaa059390d14b80373c093eb2a2191ab88ac",
        "address": "13sUHUW8G23BLQEKFwVMf5cKUkiSuFK8XC",
        "type": "pubkeyhash"
      }
    },
    {
      "value": 259.66000000,
      "n": 1,
      "scriptPubKey": {
        "asm": "OP_DUP OP_HASH160 7d2d992dcdb9904ff5f1aec371cd604647b775d3 OP_EQUALVERIFY OP_CHECKSIG",
        "hex": "76a9147d2d992dcdb9904ff5f1aec371cd604647b775d388ac",
        "address": "1CQt6D4vKFdyNreD7jQPopoqniuFYqRqK8",
        "type": "pubkeyhash"
      }
    }
  ],
  "blockhash": "0000000000005de3559bba3f403272916e53be98e8982201a5573b0ebc25737d",
  "hex": "010000000171a184cf8d9aab27488c6c52f88b50e0d206af860000ab18621a554fa2b53193000000008b4830450220499111c9ae43a3a5bef14d8bcdce86add5682aa334d6f86d3faae3b97dd68350022100f7bc9934be037f844574491fd51676ecf7b9e12bdf5a7f3c9f2f3819a4148bcd0141048c10750514d80f387d7941210b9170cbf662d97a86791b84c342392c016a148908f6d5dfcb75504dac7b43b245011d78ebb40ba00799a2e410227782062d883bffffffff02c0c62d00000000001976a9141f7bd341eaa059390d14b80373c093eb2a2191ab88ac80b7b10b060000001976a9147d2d992dcdb9904ff5f1aec371cd604647b775d388ac00000000"
}