{
  "txid": "07402368adef4d197db0239019ed3076cdbcea6119647c6c0c39532b4f4a4ec6",
  "hash": "07402368adef4d197db0239019ed3076cdbcea6119647c6c0c39532b4f4a4ec6",
  "version": 1,
  "size": 258,
  "vsize": 258,
  "weight": 1032,
  "locktime": 0,
  "vin": [
    {
      "txid": "4ac798f775015114c48958ac7eafc0883966246e5bf0903c187eb324974a4e5b",
      "vout": 1,
      "scriptSig": {
        "asm": "30450221009b8b60b596d81cd0ef3df1112367e68698674dd58e3b4f915b0e9abe9c944aa4022046523506f0ee024976018863fe36341000b7b02c8eb47f7400e199bacd555fbd[ALL] 04f3f549b1241b15cbeebcee1834310faa6ef871a1ae855f562e2526c057d996be5d34b557a38a9e4c22d1508655f077c822cfa8023f1ecee9081359bfefbea5c4",
        "hex": "4830450221009b8b60b596d81cd0ef3df1112367e68698674dd58e3b4f915b0e9abe9c944aa4022046523506f0ee024976018863fe36341000b7b02c8eb47f7400e199bacd555fbd014104f3f549b1241b15cbeebcee1834310faa6ef871a1ae855f562e2526c057d996be5d34b557a38a9e4c22d1508655f077c822cfa8023f1ecee9081359bfefbea5c4"
      },
      "sequence": 4294967295
    }
  ],
  "vout": [
    {
      "value": 0.05000000,
      "n": 0,
      "scriptPubKey": {
        "asm": "OP_DUP OP_HASH160 69b52fdd8d92998a6769ab04aa4186b7489be698 OP_EQUALVERIFY OP_CHECKSIG",
        "hex": "76a91469b52fdd8d92998a6769ab04aa4186b7489be69888ac",
        "address": "1Adw1EZkwkM9dL7ArMoKyEVL3SLmzjECng",
        "type": "pubkeyhash"
      }
    },
    {
      "value": 0.15000000,
      "n": 1,
      "scriptPubKey": {
        "asm": "OP_DUP OP_HASH160 d41131c918eee1c331f4b5fbb96178f8187f695c OP_EQUALVERIFY OP_CHECKSIG",
        "hex": "76a914d41131c918eee1c331f4b5fbb96178f8187f695c88ac",
        "address": "1LLJrMwjnBihnAYpksU6mKKruZn395saRv",
        "type": "pubkeyhash"
      }
    }
  ],
  "blockhash": "000000000000028c2206e2565a9c14784d9f8686ed8b1fddf073ecbe35a463d7",
  "hex": "01000000015b4e4a9724b37e183c90f05b6e24663988c0af7eac5889c414510175f798c74a010000008b4830450221009b8b60b596d81cd0ef3df1112367e68698674dd58e3b4f915b0e9abe9c944aa4022046523506f0ee024976018863fe36341000b7b02c8eb47f7400e199bacd555fbd014104f3f549b1241b15cbeebcee1834310faa6ef871a1ae855f562e2526c057d996be5d34b557a38a9e4c22d1508655f077c822cfa8023f1ecee9081359bfefbea5c4ffffffff02404b4c00000000001976a91469b52fdd8d92998a6769ab04aa4186b7489be69888acc0e1e400000000001976a914d41131c918eee1c331f4b5fbb96178f8187f695c88ac00000000"
}