{
  "txid": "3030247ad47f323863b5fa6b31f52213adf9f656315a013e5bcf6b1f680d9165",
  "hash": "3030247ad47f323863b5fa6b31f52213adf9f656315a013e5bcf6b1f680d9165",
  "version": 1,
  "size": 223,
  "vsize": 223,
  "weight": 892,
  "locktime": 0,
  "vin": [
    {
      "txid": "ffe3e24aabfe6735c61ca009762bc5e5623b0ab147043111816e9d296db97a8d",
      "vout": 0,
      "scriptSig": {
        "asm": "3044022018c1c067dc189ab11c69ca3af5f7a0b1a71f559aad151afb92d455aed5d6d5350220533861522c55e10e9af2bdd1fae576a3f7d484f1cd170ebf754d233a7e664b00[ALL] 0411772c72d60ca45ec711eb241edfc4407caf83e12a0fc3ee6d73cb5a13cee7b1b2fca47841177fd3b339723a92271068f30ea21575277693cc1f60ac5fadf460",
        "hex": "473044022018c1c067dc189ab11c69ca3af5f7a0b1a71f559aad151afb92d455aed5d6d5350220533861522c55e10e9af2bdd1fae576a3f7d484f1cd170ebf754d233a7e664b0001410411772c72d60ca45ec711eb241edfc4407caf83e12a0fc3ee6d73cb5a13cee7b1b2fca47841177fd3b339723a92271068f30ea21575277693cc1f60ac5fadf460"
      },
      "sequence": 4294967295
    }
  ],
  "vout": [
    {
      "value": 3.00000000,
      "n": 0,
      "scriptPubKey": {
        "asm": "OP_DUP OP_HASH160 e96f25f513478b31f29feb715f8072ef9977dc7f OP_EQUALVERIFY OP_CHECKSIG",
        "hex": "76a914e96f25f513478b31f29feb715f8072ef9977dc7f88ac",
        "address": "1NHHbQznyPo3dw8YVENZqyRvq5nK25tvbL",
        "type": "pubkeyhash"
      }
    }
  ],
  "blockhash": "0000000000007a743b55c00193d74b7d3d447b7acc95551164134c246b1f95b5",
  "hex": "01000000018d7ab96d299d6e8111310447b10a3b62e5c52b7609a01cc63567feab4ae2e3ff000000008a473044022018c1c067dc189ab11c69ca3af5f7a0b1a71f559aad151afb92d455aed5d6d5350220533861522c55e10e9af2bdd1fae576a3f7d484f1cd170ebf754d233a7e664b0001410411772c72d60ca45ec711eb241edfc4407caf83e12a0fc3ee6d73cb5a13cee7b1b2fca47841177fd3b339723a92271068f30ea21575277693cc1f60ac5fadf460ffffffff0100a3e111000000001976a914e96f25f513478b31f29feb715f8072ef9977dc7f88ac00000000"
}