{
  "txid": "5e9cc9871adc40fa742646145bc10ce31f1981177970ae4e66d265d27ba38dc7",
  "hash": "5e9cc9871adc40fa742646145bc10ce31f1981177970ae4e66d265d27ba38dc7",
  "version": 1,
  "size": 259,
  "vsize": 259,
  "weight": 1036,
  "locktime": 0,
  "vin": [
    {
      "txid": "7cc9a188853e421446f65a78b7e892fa4b4e3314697cef5cee1a666290231365",
      "vout": 1,
      "scriptSig": {
        "asm": "3046022100fb39eb999904c54b08c04787a43c7dceadc07eb30a602e371b028c8cac69d9580221008a348cfe5ce630db43ffb6877a42d509604a1cd245eceb3ce030e089d729837a[ALL] 04dce067605f9ac2bfe144724235f1df193829c4a77938aefdfa7eeabf8ac716e8ee6f41af4274e2f021ba8bb1253608b98884ffc5c3fbcf43be2a01b92b963896",
        "hex": "493046022100fb39eb999904c54b08c04787a43c7dceadc07eb30a602e371b028c8cac69d9580221008a348cfe5ce630db43ffb6877a42d509604a1cd245eceb3ce030e089d729837a014104dce067605f9ac2bfe144724235f1df193829c4a77938aefdfa7eeabf8ac716e8ee6f41af4274e2f021ba8bb1253608b98884ffc5c3fbcf43be2a01b92b963896"
      },
      "sequence": 4294967295
    }
  ],
  "vout": [
    {
      "value": 4.83000000,
      "n": 0,
      "scriptPubKey": {
        "asm": "OP_DUP OP_HASH160 5f3ddea5f497c74e38dedd30435fc69874497007 OP_EQUALVERIFY OP_CHECKSIG",
        "hex": "76a9145f3ddea5f497c74e38dedd30435fc6987449700788ac",
        "address": "19gbK1RqV1tyVrGMVtbcvzrMi1nKuyCyqY",
        "type": "pubkeyhash"
      }
    },
    {
      "value": 0.19000000,
      "n": 1,
      "scriptPubKey": {
        "asm": "OP_DUP OP_HASH160 7f15c1cd34aaa08b79b64786459f12d416a45c3d OP_EQUALVERIFY OP_CHECKSIG",
        "hex": "76a9147f15c1cd34aaa08b79b64786459f12d416a45c3d88ac",
        "address": "1Caxt4wWJrAwF58wvdem4ca4tNmA9hnJZd",
        "type": "pubkeyhash"
      }
    }
  ],
  "blockhash": "0000000000005dfaafada2737c18f1dc72df989007f8863c81e35896b7a45f3b",
  "hex": "01000000016513239062661aee5cef7c6914334e4bfa92e8b7785af64614423e8588a1c97c010000008c493046022100fb39eb999904c54b08c04787a43c7dceadc07eb30a602e371b028c8cac69d9580221008a348cfe5ce630db43ffb6877a42d509604a1cd245eceb3ce030e089d729837a014104dce067605f9ac2bfe144724235f1df193829c4a77938aefdfa7eeabf8ac716e8ee6f41af4274e2f021ba8bb1253608b98884ffc5c3fbcf43be2a01b92b963896ffffffff02c0fec91c000000001976a9145f3ddea5f497c74e38dedd30435fc6987449700788acc0ea2101000000001976a9147f15c1cd34aaa08b79b64786459f12d416a45c3d88ac00000000"
}