{
  "txid": "6662ba9c6dface6ce972aa3b32eafe6f2bb5f0a36e4cdc95ff6bbb534577b723",
  "hash": "6662ba9c6dface6ce972aa3b32eafe6f2bb5f0a36e4cdc95ff6bbb534577b723",
  "version": 1,
  "size": 258,
  "vsize": 258,
  "weight": 1032,
  "locktime": 0,
  "vin": [
    {
      "txid": "885c6698ff50b00693cc7b5ca89d8cfa97d67c54501106a0dcacc646b1feb72d",
      "vout": 0,
      "scriptSig": {
        "asm": "3045022100a8bffa6591c724a45594262a868c6cf80bc20466f71bbe9f8caf030f6b3911ec02206a2b7d757cfa8e5dc22aa067d64e34cc57733f0d18153d007b67aed06e15c8d8[ALL] 04cfee3c4acdfcdee98822d0a0d00c257be423b5758f9f20748161ab61b797bd04aa1bae6d2df304aa116fa5f459da24cc4b10c26b3d6a7061d4a5f9d524249e04",
        "hex": "483045022100a8bffa6591c724a45594262a868c6cf80bc20466f71bbe9f8caf030f6b3911ec02206a2b7d757cfa8e5dc22aa067d64e34cc57733f0d18153d007b67aed06e15c8d8014104cfee3c4acdfcdee98822d0a0d00c257be423b5758f9f20748161ab61b797bd04aa1bae6d2df304aa116fa5f459da24cc4b10c26b3d6a7061d4a5f9d524249e04"
      },
      "sequence": 4294967295
    }
  ],
  "vout": [
    {
      "value": 34.17000000,
      "n": 0,
      "scriptPubKey": {
        "asm": "OP_DUP OP_HASH160 b0fa9f71538a9e22557003e40f8c859655f1e79d OP_EQUALVERIFY OP_CHECKSIG",
        "hex": "76a914b0fa9f71538a9e22557003e40f8c859655f1e79d88ac",
        "address": "1H8nALniFKzZjWQMieDjSd3MFokS3Hf6pM",
        "type": "pubkeyhash"
      }
    },
    {
      "value": 12.86000000,
      "n": 1,
      "scriptPubKey": {
        "asm": "OP_DUP OP_HASH160 b5a9a2bd0d01e53f9ae24a5e86e7fc915e6e4132 OP_EQUALVERIFY OP_CHECKSIG",
        "hex": "76a914b5a9a2bd0d01e53f9ae24a5e86e7fc915e6e413288ac",
        "address": "1HZYXDYDqyiaJBMveo6G9QGbYXuv8RRjv6",
        "type": "pubkeyhash"
      }
    }
  ],
  "blockhash": "00000000000023fad8ebaec5288c9c08842891f7f2e65ecc7ac5063109d4e0be",
  "hex": "01000000012db7feb146c6acdca0061150547cd697fa8c9da85c7bcc9306b050ff98665c88000000008b483045022100a8bffa6591c724a45594262a868c6cf80bc20466f71bbe9f8caf030f6b3911ec02206a2b7d757cfa8e5dc22aa067d64e34cc57733f0d18153d007b67aed06e15c8d8014104cfee3c4acdfcdee98822d0a0d00c257be423b5758f9f20748161ab61b797bd04aa1bae6d2df304aa116fa5f459da24cc4b10c26b3d6a7061d4a5f9d524249e04ffffffff024048abcb000000001976a914b0fa9f71538a9e22557003e40f8c859655f1e79d88ac80cda64c000000001976a914b5a9a2bd0d01e53f9ae24a5e86e7fc915e6e413288ac00000000"
}