{
  "txid": "8f45f971083e0e2a24bf6e3b252d80a4e3e87e1f001baeba92187da5fa6e4f00",
  "hash": "8f45f971083e0e2a24bf6e3b252d80a4e3e87e1f001baeba92187da5fa6e4f00",
  "version": 1,
  "size": 258,
  "vsize": 258,
  "weight": 1032,
  "locktime": 0,
  "vin": [
    {
      "txid": "4da0f56111f664566bf3265305ea19ad50f1368c0b1678dfb9bf7ac6244f0311",
      "vout": 0,
      "scriptSig": {
        "asm": "3045022100c855e721c9fd624ac4dad050418d5c6f6efa623224e9624b2b448a54c290771202202a3d1f88cfaa86e31af72e5b8480a8d7f58fe756277f831f6bc526bbfb4435d5[ALL] 04a67e7594641097993fc8daae10778a811c70645cab078e275466fce7581c23e4c913c5f40b289bd1c9ca0dbfb65b4af5470a80cc7cd6a7b81e6ac9088e4af158",
        "hex": "483045022100c855e721c9fd624ac4dad050418d5c6f6efa623224e9624b2b448a54c290771202202a3d1f88cfaa86e31af72e5b8480a8d7f58fe756277f831f6bc526bbfb4435d5014104a67e7594641097993fc8daae10778a811c70645cab078e275466fce7581c23e4c913c5f40b289bd1c9ca0dbfb65b4af5470a80cc7cd6a7b81e6ac9088e4af158"
      },
      "sequence": 4294967295
    }
  ],
  "vout": [
    {
      "value": 0.11000000,
      "n": 0,
      "scriptPubKey": {
        "asm": "OP_DUP OP_HASH160 a8a5adce87b3c68fd3f146822a092f8afb5b108f OP_EQUALVERIFY OP_CHECKSIG",
        "hex": "76a914a8a5adce87b3c68fd3f146822a092f8afb5b108f88ac",
        "address": "1GNizoVTSjEHT78tbVc19gTcFBaCTUFQ1C",
        "type": "pubkeyhash"
      }
    },
    {
      "value": 0.20000000,
      "n": 1,
      "scriptPubKey": {
        "asm": "OP_DUP OP_HASH160 3b748c94972e5079ce56bd6526c043115151c08f OP_EQUALVERIFY OP_CHECKSIG",
        "hex": "76a9143b748c94972e5079ce56bd6526c043115151c08f88ac",
        "address": "16RNVJ5G3xbrfwW6gHj1hCDxcghe89e7pm",
        "type": "pubkeyhash"
      }
    }
  ],
  "blockhash": "000000000000b1ae6eee5b2163c746baedbcec3ca32080fc46b21b28bd0b0b05",
  "hex": "010000000111034f24c67abfb9df78160b8c36f150ad19ea055326f36b5664f61161f5a04d000000008b483045022100c855e721c9fd624ac4dad050418d5c6f6efa623224e9624b2b448a54c290771202202a3d1f88cfaa86e31af72e5b8480a8d7f58fe756277f831f6bc526bbfb4435d5014104a67e7594641097993fc8daae10778a811c70645cab078e275466fce7581c23e4c913c5f40b289bd1c9ca0dbfb65b4af5470a80cc7cd6a7b81e6ac9088e4af158ffffffff02c0d8a700000000001976a914a8a5adce87b3c68fd3f146822a092f8afb5b108f88ac002d3101000000001976a9143b748c94972e5079ce56bd6526c043115151c08f88ac00000000"
}