{
  "txid": "83d2a514a2de6fef4af707bf26fc94c5feb041d53debd48e13be9abd6760c2ac",
  "hash": "83d2a514a2de6fef4af707bf26fc94c5feb041d53debd48e13be9abd6760c2ac",
  "version": 1,
  "size": 258,
  "vsize": 258,
  "weight": 1032,
  "locktime": 0,
  "vin": [
    {
      "txid": "318d42d57f96eb20b8b05973204dbb739e75b1aa921167a0d1359e99ba2c3970",
      "vout": 0,
      "scriptSig": {
        "asm": "3045022030c90ebf0651d44abf2d30a5be45dbbf9f8f2c865e2976673ae20704cadaad33022100fee3b231ae270e0f4ccdebac8e088c742eb63b603c7859bce361daf4c5a52c7a[ALL] 043271ecfeff9312f3ff82653c07cc6aa570a6ccd9ea50c3cd29b322add96e9cc29cc7fafd7c6371ba9d15dd79d0437beaf9f09e0ce2a06e6590d057eae44a6bd5",
        "hex": "483045022030c90ebf0651d44abf2d30a5be45dbbf9f8f2c865e2976673ae20704cadaad33022100fee3b231ae270e0f4ccdebac8e088c742eb63b603c7859bce361daf4c5a52c7a0141043271ecfeff9312f3ff82653c07cc6aa570a6ccd9ea50c3cd29b322add96e9cc29cc7fafd7c6371ba9d15dd79d0437beaf9f09e0ce2a06e6590d057eae44a6bd5"
      },
      "sequence": 4294967295
    }
  ],
  "vout": [
    {
      "value": 0.07000000,
      "n": 0,
      "scriptPubKey": {
        "asm": "OP_DUP OP_HASH160 3f2f2b49e8f9bcfa6ed45227139a527b026ccc45 OP_EQUALVERIFY OP_CHECKSIG",
        "hex": "76a9143f2f2b49e8f9bcfa6ed45227139a527b026ccc4588ac",
        "address": "16m65TCBScYkuXH8HXi5AzaCASyKYByuFq",
        "type": "pubkeyhash"
      }
    },
    {
      "value": 0.40000000,
      "n": 1,
      "scriptPubKey": {
        "asm": "OP_DUP OP_HASH160 d41131c918eee1c331f4b5fbb96178f8187f695c OP_EQUALVERIFY OP_CHECKSIG",
        "hex": "76a914d41131c918eee1c331f4b5fbb96178f8187f695c88ac",
        "address": "1LLJrMwjnBihnAYpksU6mKKruZn395saRv",
        "type": "pubkeyhash"
      }
    }
  ],
  "blockhash": "000000000000028c2206e2565a9c14784d9f8686ed8b1fddf073ecbe35a463d7",
  "hex": "010000000170392cba999e35d1a0671192aab1759e73bb4d207359b0b820eb967fd5428d31000000008b483045022030c90ebf0651d44abf2d30a5be45dbbf9f8f2c865e2976673ae20704cadaad33022100fee3b231ae270e0f4ccdebac8e088c742eb63b603c7859bce361daf4c5a52c7a0141043271ecfeff9312f3ff82653c07cc6aa570a6ccd9ea50c3cd29b322add96e9cc29cc7fafd7c6371ba9d15dd79d0437beaf9f09e0ce2a06e6590d057eae44a6bd5ffffffff02c0cf6a00000000001976a9143f2f2b49e8f9bcfa6ed45227139a527b026ccc4588ac005a6202000000001976a914d41131c918eee1c331f4b5fbb96178f8187f695c88ac00000000"
}