{
  "txid": "9331b5a24f551a6218ab000086af06d2e0508bf8526c8c4827ab9a8dcf84a171",
  "hash": "9331b5a24f551a6218ab000086af06d2e0508bf8526c8c4827ab9a8dcf84a171",
  "version": 1,
  "size": 258,
  "vsize": 258,
  "weight": 1032,
  "locktime": 0,
  "vin": [
    {
      "txid": "4ad55fb74f8047d0d325a523ca009846e5f119c76cce1358be46d8a0ec9e7244",
      "vout": 1,
      "scriptSig": {
        "asm": "3045022019c2065e1aeb416515ceecb8e9e999277469144a7cbe8a78e74b5b95b2278f5f022100d46013ebea29410115e80941473b86f21e3e132c55793d6cfd79c7e9fae65104[ALL] 04acae3431553c166997e90e7d2824d95e0ebce58ea7f345460be085252d312022fab32fbed32bcb2a97b3a48ccfcd9a95f69d27e0470b67432f34f705d441515f",
        "hex": "483045022019c2065e1aeb416515ceecb8e9e999277469144a7cbe8a78e74b5b95b2278f5f022100d46013ebea29410115e80941473b86f21e3e132c55793d6cfd79c7e9fae65104014104acae3431553c166997e90e7d2824d95e0ebce58ea7f345460be085252d312022fab32fbed32bcb2a97b3a48ccfcd9a95f69d27e0470b67432f34f705d441515f"
      },
      "sequence": 4294967295
    }
  ],
  "vout": [
    {
      "value": 259.69000000,
      "n": 0,
      "scriptPubKey": {
        "asm": "OP_DUP OP_HASH160 b465c6d7f94181e3f0bc7fbbbb34550eeeee7853 OP_EQUALVERIFY OP_CHECKSIG",
        "hex": "76a914b465c6d7f94181e3f0bc7fbbbb34550eeeee785388ac",
        "address": "1HSrZ6rHRziVB9r6DbgEA79r1sibvguTrE",
        "type": "pubkeyhash"
      }
    },
    {
      "value": 0.03000000,
      "n": 1,
      "scriptPubKey": {
        "asm": "OP_DUP OP_HASH160 1f7bd341eaa059390d14b80373c093eb2a2191ab OP_EQUALVERIFY OP_CHECKSIG",
        "hex": "76a9141f7bd341eaa059390d14b80373c093eb2a2191ab88ac",
        "address": "13sUHUW8G23BLQEKFwVMf5cKUkiSuFK8XC",
        "type": "pubkeyhash"
      }
    }
  ],
  "blockhash": "000000000000aa19a05550e1232120879182afb79244d0fa1853443629823acc",
  "hex": "010000000144729eeca0d846be5813ce6cc719f1e5469800ca23a525d3d047804fb75fd54a010000008b483045022019c2065e1aeb416515ceecb8e9e999277469144a7cbe8a78e74b5b95b2278f5f022100d46013ebea29410115e80941473b86f21e3e132c55793d6cfd79c7e9fae65104014104acae3431553c166997e90e7d2824d95e0ebce58ea7f345460be085252d312022fab32fbed32bcb2a97b3a48ccfcd9a95f69d27e0470b67432f34f705d441515fffffffff02407edf0b060000001976a914b465c6d7f94181e3f0bc7fbbbb34550eeeee785388acc0c62d00000000001976a9141f7bd341eaa059390d14b80373c093eb2a2191ab88ac00000000"
}