{
  "txid": "b83bcacf8f1fc123907837b42679e4dee0f101db75cae4793dace8751a6fd896",
  "hash": "b83bcacf8f1fc123907837b42679e4dee0f101db75cae4793dace8751a6fd896",
  "version": 1,
  "size": 258,
  "vsize": 258,
  "weight": 1032,
  "locktime": 0,
  "vin": [
    {
      "txid": "1f554df5ac6704950616481da8b6a9c61e7eff47fef2af65d2f6111aaa78d1c1",
      "vout": 0,
      "scriptSig": {
        "asm": "3045022043123ec29d6b94c59186539400b5d46ab37b2869047628c05dc89e2041f2e767022100e485b5e36f2fa2e2767b9f9b84e52cfc884162e85a54f61c0fdb77df8395ae8d[ALL] 04d9f8f8efd0a0eedd71f3aa39b2d66bb2ef6b0be615483d069a1d7fde93286059bea56c30d8f093747edc9230956a70201bd3175fb4eac8d04d2a21800ca33882",
        "hex": "483045022043123ec29d6b94c59186539400b5d46ab37b2869047628c05dc89e2041f2e767022100e485b5e36f2fa2e2767b9f9b84e52cfc884162e85a54f61c0fdb77df8395ae8d014104d9f8f8efd0a0eedd71f3aa39b2d66bb2ef6b0be615483d069a1d7fde93286059bea56c30d8f093747edc9230956a70201bd3175fb4eac8d04d2a21800ca33882"
      },
      "sequence": 4294967295
    }
  ],
  "vout": [
    {
      "value": 1.77000000,
      "n": 0,
      "scriptPubKey": {
        "asm": "OP_DUP OP_HASH160 13aed6b79016a8f0ef3f4c96fce2a8500b0c5698 OP_EQUALVERIFY OP_CHECKSIG",
        "hex": "76a91413aed6b79016a8f0ef3f4c96fce2a8500b0c569888ac",
        "address": "12o5HetgXcYxxvB4p26uAweHqPkvzVeECC",
        "type": "pubkeyhash"
      }
    },
    {
      "value": 0.14000000,
      "n": 1,
      "scriptPubKey": {
        "asm": "OP_DUP OP_HASH160 ddcce78de39a5685d88e27dfb30010c8385be5a1 OP_EQUALVERIFY OP_CHECKSIG",
        "hex": "76a914ddcce78de39a5685d88e27dfb30010c8385be5a188ac",
        "address": "1MDmoQkBA3zxhKizfEVeFRWSEY8eYT1a8a",
        "type": "pubkeyhash"
      }
    }
  ],
  "blockhash": "000000000000010f61768d6721b22fd6a79be7240695ecb960c394c11f91c364",
  "hex": "0100000001c1d178aa1a11f6d265aff2fe47ff7e1ec6a9b6a81d481606950467acf54d551f000000008b483045022043123ec29d6b94c59186539400b5d46ab37b2869047628c05dc89e2041f2e767022100e485b5e36f2fa2e2767b9f9b84e52cfc884162e85a54f61c0fdb77df8395ae8d014104d9f8f8efd0a0eedd71f3aa39b2d66bb2ef6b0be615483d069a1d7fde93286059bea56c30d8f093747edc9230956a70201bd3175fb4eac8d04d2a21800ca33882ffffffff0240ce8c0a000000001976a91413aed6b79016a8f0ef3f4c96fce2a8500b0c569888ac809fd500000000001976a914ddcce78de39a5685d88e27dfb30010c8385be5a188ac00000000"
}