{
  "txid": "c228deab80672b18327c4fe3c8d118c8559876fcd07726745ef31e63177f9e27",
  "hash": "c228deab80672b18327c4fe3c8d118c8559876fcd07726745ef31e63177f9e27",
  "version": 1,
  "size": 258,
  "vsize": 258,
  "weight": 1032,
  "locktime": 0,
  "vin": [
    {
      "txid": "5fefb32a9c22b32eb98736479cbf64c4df7f7384bc71b69bc3dd09eabe178675",
      "vout": 0,
      "scriptSig": {
        "asm": "304502202984b73a2a31b6072662b42cfbe1a73856ad60f08a191b3a1a83c03c9937b5ff0221008b35b7a5c18561f635bb412b388ecd76fc6250d0be2e086cd51062eedfe5b838[ALL] 043d2009e0314d864182165242c41453e7f96ca2dc71d187df16dd2a1b9d4d1c324962c9c88afca95800aef2f5028552a913f320b7074908a3aaea5cd6322dcad9",
        "hex": "48304502202984b73a2a31b6072662b42cfbe1a73856ad60f08a191b3a1a83c03c9937b5ff0221008b35b7a5c18561f635bb412b388ecd76fc6250d0be2e086cd51062eedfe5b8380141043d2009e0314d864182165242c41453e7f96ca2dc71d187df16dd2a1b9d4d1c324962c9c88afca95800aef2f5028552a913f320b7074908a3aaea5cd6322dcad9"
      },
      "sequence": 4294967295
    }
  ],
  "vout": [
    {
      "value": 0.08000000,
      "n": 0,
      "scriptPubKey": {
        "asm": "OP_DUP OP_HASH160 000c5750b34fceeba538c580cb02684121e1aabe OP_EQUALVERIFY OP_CHECKSIG",
        "hex": "76a914000c5750b34fceeba538c580cb02684121e1aabe88ac",
        "address": "11FnURwxq3KgdTXNwt35ZqYQ3gHePFucQ",
        "type": "pubkeyhash"
      }
    },
    {
      "value": 0.87000000,
      "n": 1,
      "scriptPubKey": {
        "asm": "OP_DUP OP_HASH160 e59d887fcecdcfa32a71a0bec9f267738f84ac8e OP_EQUALVERIFY OP_CHECKSIG",
        "hex": "76a914e59d887fcecdcfa32a71a0bec9f267738f84ac8e88ac",
        "address": "1Mw6TXcY2zCHcryH9ex2EUU6yNTSz96Sbe",
        "type": "pubkeyhash"
      }
    }
  ],
  "blockhash": "000000000000968b25bc11bf171928c62d84fc72b7e3ddafcecd9d321b8f350f",
  "hex": "0100000001758617beea09ddc39bb671bc84737fdfc464bf9c473687b92eb3229c2ab3ef5f000000008b48304502202984b73a2a31b6072662b42cfbe1a73856ad60f08a191b3a1a83c03c9937b5ff0221008b35b7a5c18561f635bb412b388ecd76fc6250d0be2e086cd51062eedfe5b8380141043d2009e0314d864182165242c41453e7f96ca2dc71d187df16dd2a1b9d4d1c324962c9c88afca95800aef2f5028552a913f320b7074908a3aaea5cd6322dcad9ffffffff0200127a00000000001976a914000c5750b34fceeba538c580cb02684121e1aabe88acc0832f05000000001976a914e59d887fcecdcfa32a71a0bec9f267738f84ac8e88ac00000000"
}