{
  "txid": "c44779e075eb31d6915c993596d7e9b4415e31ec53f6d70b83dc8ef37f98b884",
  "hash": "c44779e075eb31d6915c993596d7e9b4415e31ec53f6d70b83dc8ef37f98b884",
  "version": 1,
  "size": 258,
  "vsize": 258,
  "weight": 1032,
  "locktime": 0,
  "vin": [
    {
      "txid": "4e89f8ba09702b72ac03959efc66d4100aa9c625831890313940616c36a9e05a",
      "vout": 1,
      "scriptSig": {
        "asm": "3045022013428c8268be277d8673f311b1110278b53010e12250cb3fe9d644268f15398a022100930e55bb5bec4569f0e20f752b075beed7739ecdcf52245d9521131c41666daa[ALL] 042bc7dd2c02ecf31161bcdc1f9089618b7362c74e0cf6b85d03f1061878d0ca69656daacf40aa4f6228efd3d795800dfb945378d64efdfec99c55687a02f40607",
        "hex": "483045022013428c8268be277d8673f311b1110278b53010e12250cb3fe9d644268f15398a022100930e55bb5bec4569f0e20f752b075beed7739ecdcf52245d9521131c41666daa0141042bc7dd2c02ecf31161bcdc1f9089618b7362c74e0cf6b85d03f1061878d0ca69656daacf40aa4f6228efd3d795800dfb945378d64efdfec99c55687a02f40607"
      },
      "sequence": 4294967295
    }
  ],
  "vout": [
    {
      "value": 0.03000000,
      "n": 0,
      "scriptPubKey": {
        "asm": "OP_DUP OP_HASH160 1f7bd341eaa059390d14b80373c093eb2a2191ab OP_EQUALVERIFY OP_CHECKSIG",
        "hex": "76a9141f7bd341eaa059390d14b80373c093eb2a2191ab88ac",
        "address": "13sUHUW8G23BLQEKFwVMf5cKUkiSuFK8XC",
        "type": "pubkeyhash"
      }
    },
    {
      "value": 258.25000000,
      "n": 1,
      "scriptPubKey": {
        "asm": "OP_DUP OP_HASH160 873c36169012281cc82b7b8adf2603d5eed62212 OP_EQUALVERIFY OP_CHECKSIG",
        "hex": "76a914873c36169012281cc82b7b8adf2603d5eed6221288ac",
        "address": "1DL4MT7qNitLtzvGpdjwqgMFbdfkbTi38F",
        "type": "pubkeyhash"
      }
    }
  ],
  "blockhash": "000000000000aa19a05550e1232120879182afb79244d0fa1853443629823acc",
  "hex": "01000000015ae0a9366c6140393190188325c6a90a10d466fc9e9503ac722b7009baf8894e010000008b483045022013428c8268be277d8673f311b1110278b53010e12250cb3fe9d644268f15398a022100930e55bb5bec4569f0e20f752b075beed7739ecdcf52245d9521131c41666daa0141042bc7dd2c02ecf31161bcdc1f9089618b7362c74e0cf6b85d03f1061878d0ca69656daacf40aa4f6228efd3d795800dfb945378d64efdfec99c55687a02f40607ffffffff02c0c62d00000000001976a9141f7bd341eaa059390d14b80373c093eb2a2191ab88ac403a4a03060000001976a914873c36169012281cc82b7b8adf2603d5eed6221288ac00000000"
}